{
  "_format": "hh-sol-artifact-1",
  "contractName": "Ecertify",
  "sourceName": "contracts/Ecertify.sol",
  "abi": [
    {
      "inputs": [
        {
          "internalType": "string",
          "name": "",
          "type": "string"
        }
      ],
      "name": "BonafiedHashExist",
      "outputs": [
        {
          "internalType": "bool",
          "name": "",
          "type": "bool"
        }
      ],
      "stateMutability": "view",
      "type": "function"
    },
    {
      "inputs": [
        {
          "internalType": "string",
          "name": "_Ihash",
          "type": "string"
        }
      ],
      "name": "BonafiedHashUpdate",
      "outputs": [],
      "stateMutability": "nonpayable",
      "type": "function"
    },
    {
      "inputs": [
        {
          "internalType": "string",
          "name": "_name",
          "type": "string"
        },
        {
          "internalType": "string",
          "name": "_course",
          "type": "string"
        },
        {
          "internalType": "string",
          "name": "_email",
          "type": "string"
        },
        {
          "internalType": "uint256",
          "name": "_passoutYear",
          "type": "uint256"
        },
        {
          "internalType": "string",
          "name": "_percentage",
          "type": "string"
        },
        {
          "internalType": "uint256",
          "name": "_SAP",
          "type": "uint256"
        },
        {
          "internalType": "uint256",
          "name": "_phone",
          "type": "uint256"
        },
        {
          "internalType": "string",
          "name": "_issueDate",
          "type": "string"
        }
      ],
      "name": "addCertificate",
      "outputs": [],
      "stateMutability": "nonpayable",
      "type": "function"
    },
    {
      "inputs": [
        {
          "components": [
            {
              "internalType": "uint256",
              "name": "certid",
              "type": "uint256"
            },
            {
              "internalType": "string",
              "name": "transactionHash",
              "type": "string"
            },
            {
              "internalType": "string",
              "name": "name",
              "type": "string"
            },
            {
              "internalType": "string",
              "name": "email",
              "type": "string"
            },
            {
              "internalType": "string",
              "name": "domain",
              "type": "string"
            },
            {
              "internalType": "uint256",
              "name": "contact",
              "type": "uint256"
            },
            {
              "internalType": "string",
              "name": "eventName",
              "type": "string"
            },
            {
              "internalType": "string",
              "name": "eventType",
              "type": "string"
            },
            {
              "internalType": "string",
              "name": "eventDate",
              "type": "string"
            },
            {
              "internalType": "string",
              "name": "issueDate",
              "type": "string"
            }
          ],
          "internalType": "struct Ecertify.EventCertificate[]",
          "name": "b",
          "type": "tuple[]"
        }
      ],
      "name": "addEventInBulk",
      "outputs": [],
      "stateMutability": "nonpayable",
      "type": "function"
    },
    {
      "inputs": [
        {
          "internalType": "string",
          "name": "_name",
          "type": "string"
        },
        {
          "internalType": "string",
          "name": "_course",
          "type": "string"
        },
        {
          "internalType": "string",
          "name": "_email",
          "type": "string"
        },
        {
          "internalType": "uint256",
          "name": "_SAP",
          "type": "uint256"
        },
        {
          "internalType": "string",
          "name": "_type",
          "type": "string"
        },
        {
          "internalType": "string",
          "name": "_issueDate",
          "type": "string"
        },
        {
          "internalType": "string",
          "name": "_Ihash",
          "type": "string"
        }
      ],
      "name": "addExtraCertificate",
      "outputs": [],
      "stateMutability": "nonpayable",
      "type": "function"
    },
    {
      "inputs": [
        {
          "components": [
            {
              "internalType": "uint256",
              "name": "certid",
              "type": "uint256"
            },
            {
              "internalType": "string",
              "name": "transactionHash",
              "type": "string"
            },
            {
              "internalType": "string",
              "name": "name",
              "type": "string"
            },
            {
              "internalType": "string",
              "name": "course",
              "type": "string"
            },
            {
              "internalType": "string",
              "name": "email",
              "type": "string"
            },
            {
              "internalType": "uint256",
              "name": "passoutYear",
              "type": "uint256"
            },
            {
              "internalType": "string",
              "name": "percentage",
              "type": "string"
            },
            {
              "internalType": "uint256",
              "name": "SAP",
              "type": "uint256"
            },
            {
              "internalType": "uint256",
              "name": "contact",
              "type": "uint256"
            },
            {
              "internalType": "string",
              "name": "issueDate",
              "type": "string"
            }
          ],
          "internalType": "struct Ecertify.Certificate[]",
          "name": "b",
          "type": "tuple[]"
        }
      ],
      "name": "addInBulk",
      "outputs": [],
      "stateMutability": "nonpayable",
      "type": "function"
    },
    {
      "inputs": [
        {
          "internalType": "uint256",
          "name": "",
          "type": "uint256"
        }
      ],
      "name": "allCertificates",
      "outputs": [
        {
          "internalType": "uint256",
          "name": "certid",
          "type": "uint256"
        },
        {
          "internalType": "string",
          "name": "transactionHash",
          "type": "string"
        },
        {
          "internalType": "string",
          "name": "name",
          "type": "string"
        },
        {
          "internalType": "string",
          "name": "course",
          "type": "string"
        },
        {
          "internalType": "string",
          "name": "email",
          "type": "string"
        },
        {
          "internalType": "uint256",
          "name": "passoutYear",
          "type": "uint256"
        },
        {
          "internalType": "string",
          "name": "percentage",
          "type": "string"
        },
        {
          "internalType": "uint256",
          "name": "SAP",
          "type": "uint256"
        },
        {
          "internalType": "uint256",
          "name": "contact",
          "type": "uint256"
        },
        {
          "internalType": "string",
          "name": "issueDate",
          "type": "string"
        }
      ],
      "stateMutability": "view",
      "type": "function"
    },
    {
      "inputs": [
        {
          "internalType": "uint256",
          "name": "",
          "type": "uint256"
        }
      ],
      "name": "allEventCertificates",
      "outputs": [
        {
          "internalType": "uint256",
          "name": "certid",
          "type": "uint256"
        },
        {
          "internalType": "string",
          "name": "transactionHash",
          "type": "string"
        },
        {
          "internalType": "string",
          "name": "name",
          "type": "string"
        },
        {
          "internalType": "string",
          "name": "email",
          "type": "string"
        },
        {
          "internalType": "string",
          "name": "domain",
          "type": "string"
        },
        {
          "internalType": "uint256",
          "name": "contact",
          "type": "uint256"
        },
        {
          "internalType": "string",
          "name": "eventName",
          "type": "string"
        },
        {
          "internalType": "string",
          "name": "eventType",
          "type": "string"
        },
        {
          "internalType": "string",
          "name": "eventDate",
          "type": "string"
        },
        {
          "internalType": "string",
          "name": "issueDate",
          "type": "string"
        }
      ],
      "stateMutability": "view",
      "type": "function"
    },
    {
      "inputs": [
        {
          "internalType": "uint256",
          "name": "",
          "type": "uint256"
        }
      ],
      "name": "allExtraCertificates",
      "outputs": [
        {
          "internalType": "uint256",
          "name": "certid",
          "type": "uint256"
        },
        {
          "internalType": "string",
          "name": "transactionHash",
          "type": "string"
        },
        {
          "internalType": "string",
          "name": "name",
          "type": "string"
        },
        {
          "internalType": "string",
          "name": "course",
          "type": "string"
        },
        {
          "internalType": "string",
          "name": "email",
          "type": "string"
        },
        {
          "internalType": "uint256",
          "name": "SAP",
          "type": "uint256"
        },
        {
          "internalType": "string",
          "name": "certType",
          "type": "string"
        },
        {
          "internalType": "string",
          "name": "issueDate",
          "type": "string"
        },
        {
          "internalType": "string",
          "name": "Ihash",
          "type": "string"
        }
      ],
      "stateMutability": "view",
      "type": "function"
    },
    {
      "inputs": [
        {
          "internalType": "string",
          "name": "",
          "type": "string"
        }
      ],
      "name": "allhashedCertificates",
      "outputs": [
        {
          "internalType": "uint256",
          "name": "certid",
          "type": "uint256"
        },
        {
          "internalType": "string",
          "name": "transactionHash",
          "type": "string"
        },
        {
          "internalType": "string",
          "name": "name",
          "type": "string"
        },
        {
          "internalType": "string",
          "name": "course",
          "type": "string"
        },
        {
          "internalType": "string",
          "name": "email",
          "type": "string"
        },
        {
          "internalType": "uint256",
          "name": "passoutYear",
          "type": "uint256"
        },
        {
          "internalType": "string",
          "name": "percentage",
          "type": "string"
        },
        {
          "internalType": "uint256",
          "name": "SAP",
          "type": "uint256"
        },
        {
          "internalType": "uint256",
          "name": "contact",
          "type": "uint256"
        },
        {
          "internalType": "string",
          "name": "issueDate",
          "type": "string"
        }
      ],
      "stateMutability": "view",
      "type": "function"
    },
    {
      "inputs": [
        {
          "internalType": "string",
          "name": "",
          "type": "string"
        }
      ],
      "name": "allhashedEventCertificates",
      "outputs": [
        {
          "internalType": "uint256",
          "name": "certid",
          "type": "uint256"
        },
        {
          "internalType": "string",
          "name": "transactionHash",
          "type": "string"
        },
        {
          "internalType": "string",
          "name": "name",
          "type": "string"
        },
        {
          "internalType": "string",
          "name": "email",
          "type": "string"
        },
        {
          "internalType": "string",
          "name": "domain",
          "type": "string"
        },
        {
          "internalType": "uint256",
          "name": "contact",
          "type": "uint256"
        },
        {
          "internalType": "string",
          "name": "eventName",
          "type": "string"
        },
        {
          "internalType": "string",
          "name": "eventType",
          "type": "string"
        },
        {
          "internalType": "string",
          "name": "eventDate",
          "type": "string"
        },
        {
          "internalType": "string",
          "name": "issueDate",
          "type": "string"
        }
      ],
      "stateMutability": "view",
      "type": "function"
    },
    {
      "inputs": [
        {
          "internalType": "string",
          "name": "",
          "type": "string"
        }
      ],
      "name": "allhashedExtraCertificates",
      "outputs": [
        {
          "internalType": "uint256",
          "name": "certid",
          "type": "uint256"
        },
        {
          "internalType": "string",
          "name": "transactionHash",
          "type": "string"
        },
        {
          "internalType": "string",
          "name": "name",
          "type": "string"
        },
        {
          "internalType": "string",
          "name": "course",
          "type": "string"
        },
        {
          "internalType": "string",
          "name": "email",
          "type": "string"
        },
        {
          "internalType": "uint256",
          "name": "SAP",
          "type": "uint256"
        },
        {
          "internalType": "string",
          "name": "certType",
          "type": "string"
        },
        {
          "internalType": "string",
          "name": "issueDate",
          "type": "string"
        },
        {
          "internalType": "string",
          "name": "Ihash",
          "type": "string"
        }
      ],
      "stateMutability": "view",
      "type": "function"
    },
    {
      "inputs": [
        {
          "internalType": "bytes32",
          "name": "_bytes32",
          "type": "bytes32"
        }
      ],
      "name": "bytes32ToString",
      "outputs": [
        {
          "internalType": "string",
          "name": "",
          "type": "string"
        }
      ],
      "stateMutability": "pure",
      "type": "function"
    },
    {
      "inputs": [
        {
          "internalType": "string",
          "name": "",
          "type": "string"
        }
      ],
      "name": "certficateHashExist",
      "outputs": [
        {
          "internalType": "bool",
          "name": "",
          "type": "bool"
        }
      ],
      "stateMutability": "view",
      "type": "function"
    },
    {
      "inputs": [],
      "name": "certificateCounter",
      "outputs": [
        {
          "internalType": "uint256",
          "name": "",
          "type": "uint256"
        }
      ],
      "stateMutability": "view",
      "type": "function"
    },
    {
      "inputs": [],
      "name": "eventCertificateCounter",
      "outputs": [
        {
          "internalType": "uint256",
          "name": "",
          "type": "uint256"
        }
      ],
      "stateMutability": "view",
      "type": "function"
    },
    {
      "inputs": [],
      "name": "extracertificateCounter",
      "outputs": [
        {
          "internalType": "uint256",
          "name": "",
          "type": "uint256"
        }
      ],
      "stateMutability": "view",
      "type": "function"
    },
    {
      "inputs": [
        {
          "internalType": "string",
          "name": "userAddress",
          "type": "string"
        }
      ],
      "name": "getValueAtMapping",
      "outputs": [
        {
          "components": [
            {
              "internalType": "uint256",
              "name": "certid",
              "type": "uint256"
            },
            {
              "internalType": "string",
              "name": "transactionHash",
              "type": "string"
            },
            {
              "internalType": "string",
              "name": "name",
              "type": "string"
            },
            {
              "internalType": "string",
              "name": "course",
              "type": "string"
            },
            {
              "internalType": "string",
              "name": "email",
              "type": "string"
            },
            {
              "internalType": "uint256",
              "name": "passoutYear",
              "type": "uint256"
            },
            {
              "internalType": "string",
              "name": "percentage",
              "type": "string"
            },
            {
              "internalType": "uint256",
              "name": "SAP",
              "type": "uint256"
            },
            {
              "internalType": "uint256",
              "name": "contact",
              "type": "uint256"
            },
            {
              "internalType": "string",
              "name": "issueDate",
              "type": "string"
            }
          ],
          "internalType": "struct Ecertify.Certificate",
          "name": "",
          "type": "tuple"
        }
      ],
      "stateMutability": "view",
      "type": "function"
    },
    {
      "inputs": [
        {
          "internalType": "string",
          "name": "_string",
          "type": "string"
        },
        {
          "internalType": "uint256",
          "name": "_contact",
          "type": "uint256"
        }
      ],
      "name": "hash",
      "outputs": [
        {
          "internalType": "bytes32",
          "name": "",
          "type": "bytes32"
        }
      ],
      "stateMutability": "pure",
      "type": "function"
    },
    {
      "inputs": [
        {
          "internalType": "uint256",
          "name": "",
          "type": "uint256"
        }
      ],
      "name": "sapIdExist",
      "outputs": [
        {
          "internalType": "bool",
          "name": "",
          "type": "bool"
        }
      ],
      "stateMutability": "view",
      "type": "function"
    },
    {
      "inputs": [
        {
          "internalType": "uint8",
          "name": "_uint8",
          "type": "uint8"
        }
      ],
      "name": "toByte",
      "outputs": [
        {
          "internalType": "bytes1",
          "name": "",
          "type": "bytes1"
        }
      ],
      "stateMutability": "pure",
      "type": "function"
    },
    {
      "inputs": [
        {
          "internalType": "string",
          "name": "_transactionHash",
          "type": "string"
        }
      ],
      "name": "updateExtraTransaction",
      "outputs": [],
      "stateMutability": "nonpayable",
      "type": "function"
    },
    {
      "inputs": [
        {
          "internalType": "string",
          "name": "_transactionHash",
          "type": "string"
        }
      ],
      "name": "updateTransaction",
      "outputs": [],
      "stateMutability": "nonpayable",
      "type": "function"
    }
  ],
  "bytecode": "0x608060405234801561001057600080fd5b5061519d806100206000396000f3fe608060405234801561001057600080fd5b506004361061014d5760003560e01c8063b87bca61116100c3578063de3d64111161007c578063de3d641114610431578063dfcaf60d14610469578063e9a80da7146104a2578063f31125cf146104be578063fbfb8ce2146104da578063fe704005146104f85761014d565b8063b87bca6114610339578063be25270f14610369578063c65c94c714610399578063d3a3f082146103b5578063da4039df146103e5578063dbdd28cf146104015761014d565b806367764b261161011557806367764b261461024b5780637f0740441461026957806386261270146102855780639201de55146102a1578063a86b73f0146102d1578063b1fc3f92146103015761014d565b8063053c8e251461015257806312e253301461018b5780631e830c3f146101bb5780631f0be590146101f457806329ee255914610212575b600080fd5b61016c60048036038101906101679190613b5a565b610514565b6040516101829a99989796959493929190613c26565b60405180910390f35b6101a560048036038101906101a09190613b5a565b610898565b6040516101b29190613d07565b60405180910390f35b6101d560048036038101906101d09190613e57565b6108b8565b6040516101eb9a99989796959493929190613c26565b60405180910390f35b6101fc610c52565b6040516102099190613ea0565b60405180910390f35b61022c60048036038101906102279190613b5a565b610c58565b6040516102429a99989796959493929190613ebb565b60405180910390f35b6102536110ec565b6040516102609190613ea0565b60405180910390f35b610283600480360381019061027e9190613e57565b6110f2565b005b61029f600480360381019061029a9190613e57565b611704565b005b6102bb60048036038101906102b69190613fc5565b61173e565b6040516102c89190613ff2565b60405180910390f35b6102eb60048036038101906102e6919061404d565b6118f4565b6040516102f891906140b5565b60405180910390f35b61031b60048036038101906103169190613e57565b611931565b604051610330999897969594939291906140d0565b60405180910390f35b610353600480360381019061034e9190613e57565b611d4d565b6040516103609190613d07565b60405180910390f35b610383600480360381019061037e919061418e565b611d83565b60405161039091906141f9565b60405180910390f35b6103b360048036038101906103ae91906144da565b611db6565b005b6103cf60048036038101906103ca9190613e57565b612134565b6040516103dc9190613d07565b60405180910390f35b6103ff60048036038101906103fa91906147a2565b61216a565b005b61041b60048036038101906104169190613e57565b6124cf565b6040516104289190614941565b60405180910390f35b61044b60048036038101906104469190613b5a565b61289c565b604051610460999897969594939291906140d0565b60405180910390f35b610483600480360381019061047e9190613e57565b612ca2565b6040516104999a99989796959493929190613ebb565b60405180910390f35b6104bc60048036038101906104b79190614963565b61314c565b005b6104d860048036038101906104d39190613e57565b6132e1565b005b6104e2613873565b6040516104ef9190613ea0565b60405180910390f35b610512600480360381019061050d9190614aa5565b613879565b005b600460205280600052604060002060009150905080600001549080600101805461053d90614c1e565b80601f016020809104026020016040519081016040528092919081815260200182805461056990614c1e565b80156105b65780601f1061058b576101008083540402835291602001916105b6565b820191906000526020600020905b81548152906001019060200180831161059957829003601f168201915b5050505050908060020180546105cb90614c1e565b80601f01602080910402602001604051908101604052809291908181526020018280546105f790614c1e565b80156106445780601f1061061957610100808354040283529160200191610644565b820191906000526020600020905b81548152906001019060200180831161062757829003601f168201915b50505050509080600301805461065990614c1e565b80601f016020809104026020016040519081016040528092919081815260200182805461068590614c1e565b80156106d25780601f106106a7576101008083540402835291602001916106d2565b820191906000526020600020905b8154815290600101906020018083116106b557829003601f168201915b5050505050908060040180546106e790614c1e565b80601f016020809104026020016040519081016040528092919081815260200182805461071390614c1e565b80156107605780601f1061073557610100808354040283529160200191610760565b820191906000526020600020905b81548152906001019060200180831161074357829003601f168201915b50505050509080600501549080600601805461077b90614c1e565b80601f01602080910402602001604051908101604052809291908181526020018280546107a790614c1e565b80156107f45780601f106107c9576101008083540402835291602001916107f4565b820191906000526020600020905b8154815290600101906020018083116107d757829003601f168201915b50505050509080600701549080600801549080600901805461081590614c1e565b80601f016020809104026020016040519081016040528092919081815260200182805461084190614c1e565b801561088e5780601f106108635761010080835404028352916020019161088e565b820191906000526020600020905b81548152906001019060200180831161087157829003601f168201915b505050505090508a565b600b6020528060005260406000206000915054906101000a900460ff1681565b6007818051602081018201805184825260208301602085012081835280955050505050506000915090508060000154908060010180546108f790614c1e565b80601f016020809104026020016040519081016040528092919081815260200182805461092390614c1e565b80156109705780601f1061094557610100808354040283529160200191610970565b820191906000526020600020905b81548152906001019060200180831161095357829003601f168201915b50505050509080600201805461098590614c1e565b80601f01602080910402602001604051908101604052809291908181526020018280546109b190614c1e565b80156109fe5780601f106109d3576101008083540402835291602001916109fe565b820191906000526020600020905b8154815290600101906020018083116109e157829003601f168201915b505050505090806003018054610a1390614c1e565b80601f0160208091040260200160405190810160405280929190818152602001828054610a3f90614c1e565b8015610a8c5780601f10610a6157610100808354040283529160200191610a8c565b820191906000526020600020905b815481529060010190602001808311610a6f57829003601f168201915b505050505090806004018054610aa190614c1e565b80601f0160208091040260200160405190810160405280929190818152602001828054610acd90614c1e565b8015610b1a5780601f10610aef57610100808354040283529160200191610b1a565b820191906000526020600020905b815481529060010190602001808311610afd57829003601f168201915b505050505090806005015490806006018054610b3590614c1e565b80601f0160208091040260200160405190810160405280929190818152602001828054610b6190614c1e565b8015610bae5780601f10610b8357610100808354040283529160200191610bae565b820191906000526020600020905b815481529060010190602001808311610b9157829003601f168201915b505050505090806007015490806008015490806009018054610bcf90614c1e565b80601f0160208091040260200160405190810160405280929190818152602001828054610bfb90614c1e565b8015610c485780601f10610c1d57610100808354040283529160200191610c48565b820191906000526020600020905b815481529060010190602001808311610c2b57829003601f168201915b505050505090508a565b60025481565b6005602052806000526040600020600091509050806000015490806001018054610c8190614c1e565b80601f0160208091040260200160405190810160405280929190818152602001828054610cad90614c1e565b8015610cfa5780601f10610ccf57610100808354040283529160200191610cfa565b820191906000526020600020905b815481529060010190602001808311610cdd57829003601f168201915b505050505090806002018054610d0f90614c1e565b80601f0160208091040260200160405190810160405280929190818152602001828054610d3b90614c1e565b8015610d885780601f10610d5d57610100808354040283529160200191610d88565b820191906000526020600020905b815481529060010190602001808311610d6b57829003601f168201915b505050505090806003018054610d9d90614c1e565b80601f0160208091040260200160405190810160405280929190818152602001828054610dc990614c1e565b8015610e165780601f10610deb57610100808354040283529160200191610e16565b820191906000526020600020905b815481529060010190602001808311610df957829003601f168201915b505050505090806004018054610e2b90614c1e565b80601f0160208091040260200160405190810160405280929190818152602001828054610e5790614c1e565b8015610ea45780601f10610e7957610100808354040283529160200191610ea4565b820191906000526020600020905b815481529060010190602001808311610e8757829003601f168201915b505050505090806005015490806006018054610ebf90614c1e565b80601f0160208091040260200160405190810160405280929190818152602001828054610eeb90614c1e565b8015610f385780601f10610f0d57610100808354040283529160200191610f38565b820191906000526020600020905b815481529060010190602001808311610f1b57829003601f168201915b505050505090806007018054610f4d90614c1e565b80601f0160208091040260200160405190810160405280929190818152602001828054610f7990614c1e565b8015610fc65780601f10610f9b57610100808354040283529160200191610fc6565b820191906000526020600020905b815481529060010190602001808311610fa957829003601f168201915b505050505090806008018054610fdb90614c1e565b80601f016020809104026020016040519081016040528092919081815260200182805461100790614c1e565b80156110545780601f1061102957610100808354040283529160200191611054565b820191906000526020600020905b81548152906001019060200180831161103757829003601f168201915b50505050509080600901805461106990614c1e565b80601f016020809104026020016040519081016040528092919081815260200182805461109590614c1e565b80156110e25780601f106110b7576101008083540402835291602001916110e2565b820191906000526020600020905b8154815290600101906020018083116110c557829003601f168201915b505050505090508a565b60005481565b60006006600080548152602001908152602001600020604051806101200160405290816000820154815260200160018201805461112e90614c1e565b80601f016020809104026020016040519081016040528092919081815260200182805461115a90614c1e565b80156111a75780601f1061117c576101008083540402835291602001916111a7565b820191906000526020600020905b81548152906001019060200180831161118a57829003601f168201915b505050505081526020016002820180546111c090614c1e565b80601f01602080910402602001604051908101604052809291908181526020018280546111ec90614c1e565b80156112395780601f1061120e57610100808354040283529160200191611239565b820191906000526020600020905b81548152906001019060200180831161121c57829003601f168201915b5050505050815260200160038201805461125290614c1e565b80601f016020809104026020016040519081016040528092919081815260200182805461127e90614c1e565b80156112cb5780601f106112a0576101008083540402835291602001916112cb565b820191906000526020600020905b8154815290600101906020018083116112ae57829003601f168201915b505050505081526020016004820180546112e490614c1e565b80601f016020809104026020016040519081016040528092919081815260200182805461131090614c1e565b801561135d5780601f106113325761010080835404028352916020019161135d565b820191906000526020600020905b81548152906001019060200180831161134057829003601f168201915b505050505081526020016005820154815260200160068201805461138090614c1e565b80601f01602080910402602001604051908101604052809291908181526020018280546113ac90614c1e565b80156113f95780601f106113ce576101008083540402835291602001916113f9565b820191906000526020600020905b8154815290600101906020018083116113dc57829003601f168201915b5050505050815260200160078201805461141290614c1e565b80601f016020809104026020016040519081016040528092919081815260200182805461143e90614c1e565b801561148b5780601f106114605761010080835404028352916020019161148b565b820191906000526020600020905b81548152906001019060200180831161146e57829003601f168201915b505050505081526020016008820180546114a490614c1e565b80601f01602080910402602001604051908101604052809291908181526020018280546114d090614c1e565b801561151d5780601f106114f25761010080835404028352916020019161151d565b820191906000526020600020905b81548152906001019060200180831161150057829003601f168201915b50505050508152505090508181602001819052508060066000805481526020019081526020016000206000820151816000015560208201518160010190816115659190614dfb565b50604082015181600201908161157b9190614dfb565b5060608201518160030190816115919190614dfb565b5060808201518160040190816115a79190614dfb565b5060a0820151816005015560c08201518160060190816115c79190614dfb565b5060e08201518160070190816115dd9190614dfb565b506101008201518160080190816115f49190614dfb565b50905050806009836040516116099190614f09565b90815260200160405180910390206000820151816000015560208201518160010190816116369190614dfb565b50604082015181600201908161164c9190614dfb565b5060608201518160030190816116629190614dfb565b5060808201518160040190816116789190614dfb565b5060a0820151816005015560c08201518160060190816116989190614dfb565b5060e08201518160070190816116ae9190614dfb565b506101008201518160080190816116c59190614dfb565b509050506001600a836040516116db9190614f09565b908152602001604051809103902060006101000a81548160ff0219169083151502179055505050565b6001600c826040516117169190614f09565b908152602001604051809103902060006101000a81548160ff02191690831515021790555050565b6060600080604067ffffffffffffffff81111561175e5761175d613d2c565b5b6040519080825280601f01601f1916602001820160405280156117905781602001600182028036833780820191505090505b509050600091505b80518260ff1610156118ea576000600f60f81b856002856117b99190614f7e565b60ff16602081106117cd576117cc614faf565b5b1a60f81b1660f81c905060006004866002866117e99190614f7e565b60ff16602081106117fd576117fc614faf565b5b1a60f81b7effffffffffffffffffffffffffffffffffffffffffffffffffffffffffffff1916901c60f81c9050611833826118f4565b838560ff168151811061184957611848614faf565b5b60200101907effffffffffffffffffffffffffffffffffffffffffffffffffffffffffffff1916908160001a9053506001846118859190614fde565b9350611890816118f4565b838560ff16815181106118a6576118a5614faf565b5b60200101907effffffffffffffffffffffffffffffffffffffffffffffffffffffffffffff1916908160001a905350505081806118e290615013565b925050611798565b8092505050919050565b6000600a8260ff1610156119195760308261190f9190614fde565b60f81b905061192c565b6057826119269190614fde565b60f81b90505b919050565b60098180516020810182018051848252602083016020850120818352809550505050505060009150905080600001549080600101805461197090614c1e565b80601f016020809104026020016040519081016040528092919081815260200182805461199c90614c1e565b80156119e95780601f106119be576101008083540402835291602001916119e9565b820191906000526020600020905b8154815290600101906020018083116119cc57829003601f168201915b5050505050908060020180546119fe90614c1e565b80601f0160208091040260200160405190810160405280929190818152602001828054611a2a90614c1e565b8015611a775780601f10611a4c57610100808354040283529160200191611a77565b820191906000526020600020905b815481529060010190602001808311611a5a57829003601f168201915b505050505090806003018054611a8c90614c1e565b80601f0160208091040260200160405190810160405280929190818152602001828054611ab890614c1e565b8015611b055780601f10611ada57610100808354040283529160200191611b05565b820191906000526020600020905b815481529060010190602001808311611ae857829003601f168201915b505050505090806004018054611b1a90614c1e565b80601f0160208091040260200160405190810160405280929190818152602001828054611b4690614c1e565b8015611b935780601f10611b6857610100808354040283529160200191611b93565b820191906000526020600020905b815481529060010190602001808311611b7657829003601f168201915b505050505090806005015490806006018054611bae90614c1e565b80601f0160208091040260200160405190810160405280929190818152602001828054611bda90614c1e565b8015611c275780601f10611bfc57610100808354040283529160200191611c27565b820191906000526020600020905b815481529060010190602001808311611c0a57829003601f168201915b505050505090806007018054611c3c90614c1e565b80601f0160208091040260200160405190810160405280929190818152602001828054611c6890614c1e565b8015611cb55780601f10611c8a57610100808354040283529160200191611cb5565b820191906000526020600020905b815481529060010190602001808311611c9857829003601f168201915b505050505090806008018054611cca90614c1e565b80601f0160208091040260200160405190810160405280929190818152602001828054611cf690614c1e565b8015611d435780601f10611d1857610100808354040283529160200191611d43565b820191906000526020600020905b815481529060010190602001808311611d2657829003601f168201915b5050505050905089565b600c818051602081018201805184825260208301602085012081835280955050505050506000915054906101000a900460ff1681565b60008282604051602001611d9892919061505d565b60405160208183030381529060405280519060200120905092915050565b60005b81518110156121305760016000815480929190611dd590615085565b91905055506000611e22838381518110611df257611df1614faf565b5b602002602001015160400151848481518110611e1157611e10614faf565b5b602002602001015160a00151611d83565b9050611e2d8161173e565b60039081611e3b9190614dfb565b506000604051806101400160405280600154815260200160038054611e5f90614c1e565b80601f0160208091040260200160405190810160405280929190818152602001828054611e8b90614c1e565b8015611ed85780601f10611ead57610100808354040283529160200191611ed8565b820191906000526020600020905b815481529060010190602001808311611ebb57829003601f168201915b50505050508152602001858581518110611ef557611ef4614faf565b5b6020026020010151604001518152602001858581518110611f1957611f18614faf565b5b6020026020010151606001518152602001858581518110611f3d57611f3c614faf565b5b6020026020010151608001518152602001858581518110611f6157611f60614faf565b5b602002602001015160a001518152602001858581518110611f8557611f84614faf565b5b602002602001015160c001518152602001858581518110611fa957611fa8614faf565b5b602002602001015160e001518152602001858581518110611fcd57611fcc614faf565b5b602002602001015161010001518152602001858581518110611ff257611ff1614faf565b5b602002602001015161012001518152509050806005600060015481526020019081526020016000206000820151816000015560208201518160010190816120399190614dfb565b50604082015181600201908161204f9190614dfb565b5060608201518160030190816120659190614dfb565b50608082015181600401908161207b9190614dfb565b5060a0820151816005015560c082015181600601908161209b9190614dfb565b5060e08201518160070190816120b19190614dfb565b506101008201518160080190816120c89190614dfb565b506101208201518160090190816120df9190614dfb565b509050506001600a60036040516120f69190615150565b908152602001604051809103902060006101000a81548160ff0219169083151502179055505050808061212890615085565b915050611db9565b5050565b600a818051602081018201805184825260208301602085012081835280955050505050506000915054906101000a900460ff1681565b60005b81518110156124cb5760008081548092919061218890615085565b919050555060006121d68383815181106121a5576121a4614faf565b5b6020026020010151604001518484815181106121c4576121c3614faf565b5b60200260200101516101000151611d83565b90506121e18161173e565b600390816121ef9190614dfb565b50600060405180610140016040528060005481526020016003805461221390614c1e565b80601f016020809104026020016040519081016040528092919081815260200182805461223f90614c1e565b801561228c5780601f106122615761010080835404028352916020019161228c565b820191906000526020600020905b81548152906001019060200180831161226f57829003601f168201915b505050505081526020018585815181106122a9576122a8614faf565b5b60200260200101516040015181526020018585815181106122cd576122cc614faf565b5b60200260200101516060015181526020018585815181106122f1576122f0614faf565b5b602002602001015160800151815260200185858151811061231557612314614faf565b5b602002602001015160a00151815260200185858151811061233957612338614faf565b5b602002602001015160c00151815260200185858151811061235d5761235c614faf565b5b602002602001015160e00151815260200185858151811061238157612380614faf565b5b6020026020010151610100015181526020018585815181106123a6576123a5614faf565b5b6020026020010151610120015181525090508060046000805481526020019081526020016000206000820151816000015560208201518160010190816123ec9190614dfb565b5060408201518160020190816124029190614dfb565b5060608201518160030190816124189190614dfb565b50608082015181600401908161242e9190614dfb565b5060a0820151816005015560c082015181600601908161244e9190614dfb565b5060e08201518160070155610100820151816008015561012082015181600901908161247a9190614dfb565b509050506001600a60036040516124919190615150565b908152602001604051809103902060006101000a81548160ff021916908315150217905550505080806124c390615085565b91505061216d565b5050565b6124d7613abd565b6007826040516124e79190614f09565b9081526020016040518091039020604051806101400160405290816000820154815260200160018201805461251b90614c1e565b80601f016020809104026020016040519081016040528092919081815260200182805461254790614c1e565b80156125945780601f1061256957610100808354040283529160200191612594565b820191906000526020600020905b81548152906001019060200180831161257757829003601f168201915b505050505081526020016002820180546125ad90614c1e565b80601f01602080910402602001604051908101604052809291908181526020018280546125d990614c1e565b80156126265780601f106125fb57610100808354040283529160200191612626565b820191906000526020600020905b81548152906001019060200180831161260957829003601f168201915b5050505050815260200160038201805461263f90614c1e565b80601f016020809104026020016040519081016040528092919081815260200182805461266b90614c1e565b80156126b85780601f1061268d576101008083540402835291602001916126b8565b820191906000526020600020905b81548152906001019060200180831161269b57829003601f168201915b505050505081526020016004820180546126d190614c1e565b80601f01602080910402602001604051908101604052809291908181526020018280546126fd90614c1e565b801561274a5780601f1061271f5761010080835404028352916020019161274a565b820191906000526020600020905b81548152906001019060200180831161272d57829003601f168201915b505050505081526020016005820154815260200160068201805461276d90614c1e565b80601f016020809104026020016040519081016040528092919081815260200182805461279990614c1e565b80156127e65780601f106127bb576101008083540402835291602001916127e6565b820191906000526020600020905b8154815290600101906020018083116127c957829003601f168201915b50505050508152602001600782015481526020016008820154815260200160098201805461281390614c1e565b80601f016020809104026020016040519081016040528092919081815260200182805461283f90614c1e565b801561288c5780601f106128615761010080835404028352916020019161288c565b820191906000526020600020905b81548152906001019060200180831161286f57829003601f168201915b5050505050815250509050919050565b60066020528060005260406000206000915090508060000154908060010180546128c590614c1e565b80601f01602080910402602001604051908101604052809291908181526020018280546128f190614c1e565b801561293e5780601f106129135761010080835404028352916020019161293e565b820191906000526020600020905b81548152906001019060200180831161292157829003601f168201915b50505050509080600201805461295390614c1e565b80601f016020809104026020016040519081016040528092919081815260200182805461297f90614c1e565b80156129cc5780601f106129a1576101008083540402835291602001916129cc565b820191906000526020600020905b8154815290600101906020018083116129af57829003601f168201915b5050505050908060030180546129e190614c1e565b80601f0160208091040260200160405190810160405280929190818152602001828054612a0d90614c1e565b8015612a5a5780601f10612a2f57610100808354040283529160200191612a5a565b820191906000526020600020905b815481529060010190602001808311612a3d57829003601f168201915b505050505090806004018054612a6f90614c1e565b80601f0160208091040260200160405190810160405280929190818152602001828054612a9b90614c1e565b8015612ae85780601f10612abd57610100808354040283529160200191612ae8565b820191906000526020600020905b815481529060010190602001808311612acb57829003601f168201915b505050505090806005015490806006018054612b0390614c1e565b80601f0160208091040260200160405190810160405280929190818152602001828054612b2f90614c1e565b8015612b7c5780601f10612b5157610100808354040283529160200191612b7c565b820191906000526020600020905b815481529060010190602001808311612b5f57829003601f168201915b505050505090806007018054612b9190614c1e565b80601f0160208091040260200160405190810160405280929190818152602001828054612bbd90614c1e565b8015612c0a5780601f10612bdf57610100808354040283529160200191612c0a565b820191906000526020600020905b815481529060010190602001808311612bed57829003601f168201915b505050505090806008018054612c1f90614c1e565b80601f0160208091040260200160405190810160405280929190818152602001828054612c4b90614c1e565b8015612c985780601f10612c6d57610100808354040283529160200191612c98565b820191906000526020600020905b815481529060010190602001808311612c7b57829003601f168201915b5050505050905089565b600881805160208101820180518482526020830160208501208183528095505050505050600091509050806000015490806001018054612ce190614c1e565b80601f0160208091040260200160405190810160405280929190818152602001828054612d0d90614c1e565b8015612d5a5780601f10612d2f57610100808354040283529160200191612d5a565b820191906000526020600020905b815481529060010190602001808311612d3d57829003601f168201915b505050505090806002018054612d6f90614c1e565b80601f0160208091040260200160405190810160405280929190818152602001828054612d9b90614c1e565b8015612de85780601f10612dbd57610100808354040283529160200191612de8565b820191906000526020600020905b815481529060010190602001808311612dcb57829003601f168201915b505050505090806003018054612dfd90614c1e565b80601f0160208091040260200160405190810160405280929190818152602001828054612e2990614c1e565b8015612e765780601f10612e4b57610100808354040283529160200191612e76565b820191906000526020600020905b815481529060010190602001808311612e5957829003601f168201915b505050505090806004018054612e8b90614c1e565b80601f0160208091040260200160405190810160405280929190818152602001828054612eb790614c1e565b8015612f045780601f10612ed957610100808354040283529160200191612f04565b820191906000526020600020905b815481529060010190602001808311612ee757829003601f168201915b505050505090806005015490806006018054612f1f90614c1e565b80601f0160208091040260200160405190810160405280929190818152602001828054612f4b90614c1e565b8015612f985780601f10612f6d57610100808354040283529160200191612f98565b820191906000526020600020905b815481529060010190602001808311612f7b57829003601f168201915b505050505090806007018054612fad90614c1e565b80601f0160208091040260200160405190810160405280929190818152602001828054612fd990614c1e565b80156130265780601f10612ffb57610100808354040283529160200191613026565b820191906000526020600020905b81548152906001019060200180831161300957829003601f168201915b50505050509080600801805461303b90614c1e565b80601f016020809104026020016040519081016040528092919081815260200182805461306790614c1e565b80156130b45780601f10613089576101008083540402835291602001916130b4565b820191906000526020600020905b81548152906001019060200180831161309757829003601f168201915b5050505050908060090180546130c990614c1e565b80601f01602080910402602001604051908101604052809291908181526020018280546130f590614c1e565b80156131425780601f1061311757610100808354040283529160200191613142565b820191906000526020600020905b81548152906001019060200180831161312557829003601f168201915b505050505090508a565b60008081548092919061315e90615085565b9190505550600060405180610140016040528060005481526020016040518060400160405280600381526020017f307830000000000000000000000000000000000000000000000000000000000081525081526020018a81526020018981526020018881526020018781526020018681526020018581526020018481526020018381525090508060046000805481526020019081526020016000206000820151816000015560208201518160010190816132189190614dfb565b50604082015181600201908161322e9190614dfb565b5060608201518160030190816132449190614dfb565b50608082015181600401908161325a9190614dfb565b5060a0820151816005015560c082015181600601908161327a9190614dfb565b5060e0820151816007015561010082015181600801556101208201518160090190816132a69190614dfb565b509050506001600b600086815260200190815260200160002060006101000a81548160ff021916908315150217905550505050505050505050565b60006004600080548152602001908152602001600020604051806101400160405290816000820154815260200160018201805461331d90614c1e565b80601f016020809104026020016040519081016040528092919081815260200182805461334990614c1e565b80156133965780601f1061336b57610100808354040283529160200191613396565b820191906000526020600020905b81548152906001019060200180831161337957829003601f168201915b505050505081526020016002820180546133af90614c1e565b80601f01602080910402602001604051908101604052809291908181526020018280546133db90614c1e565b80156134285780601f106133fd57610100808354040283529160200191613428565b820191906000526020600020905b81548152906001019060200180831161340b57829003601f168201915b5050505050815260200160038201805461344190614c1e565b80601f016020809104026020016040519081016040528092919081815260200182805461346d90614c1e565b80156134ba5780601f1061348f576101008083540402835291602001916134ba565b820191906000526020600020905b81548152906001019060200180831161349d57829003601f168201915b505050505081526020016004820180546134d390614c1e565b80601f01602080910402602001604051908101604052809291908181526020018280546134ff90614c1e565b801561354c5780601f106135215761010080835404028352916020019161354c565b820191906000526020600020905b81548152906001019060200180831161352f57829003601f168201915b505050505081526020016005820154815260200160068201805461356f90614c1e565b80601f016020809104026020016040519081016040528092919081815260200182805461359b90614c1e565b80156135e85780601f106135bd576101008083540402835291602001916135e8565b820191906000526020600020905b8154815290600101906020018083116135cb57829003601f168201915b50505050508152602001600782015481526020016008820154815260200160098201805461361590614c1e565b80601f016020809104026020016040519081016040528092919081815260200182805461364190614c1e565b801561368e5780601f106136635761010080835404028352916020019161368e565b820191906000526020600020905b81548152906001019060200180831161367157829003601f168201915b50505050508152505090508181602001819052508060046000805481526020019081526020016000206000820151816000015560208201518160010190816136d69190614dfb565b5060408201518160020190816136ec9190614dfb565b5060608201518160030190816137029190614dfb565b5060808201518160040190816137189190614dfb565b5060a0820151816005015560c08201518160060190816137389190614dfb565b5060e0820151816007015561010082015181600801556101208201518160090190816137649190614dfb565b50905050806007836040516137799190614f09565b90815260200160405180910390206000820151816000015560208201518160010190816137a69190614dfb565b5060408201518160020190816137bc9190614dfb565b5060608201518160030190816137d29190614dfb565b5060808201518160040190816137e89190614dfb565b5060a0820151816005015560c08201518160060190816138089190614dfb565b5060e0820151816007015561010082015181600801556101208201518160090190816138349190614dfb565b509050506001600a8360405161384a9190614f09565b908152602001604051809103902060006101000a81548160ff0219169083151502179055505050565b60015481565b6002600081548092919061388c90615085565b9190505550600061389d8886611d83565b90506138a88161173e565b600390816138b69190614dfb565b5060006040518061012001604052806002548152602001600380546138da90614c1e565b80601f016020809104026020016040519081016040528092919081815260200182805461390690614c1e565b80156139535780601f1061392857610100808354040283529160200191613953565b820191906000526020600020905b81548152906001019060200180831161393657829003601f168201915b505050505081526020018a8152602001898152602001888152602001878152602001868152602001858152602001848152509050806006600060025481526020019081526020016000206000820151816000015560208201518160010190816139bc9190614dfb565b5060408201518160020190816139d29190614dfb565b5060608201518160030190816139e89190614dfb565b5060808201518160040190816139fe9190614dfb565b5060a0820151816005015560c0820151816006019081613a1e9190614dfb565b5060e0820151816007019081613a349190614dfb565b50610100820151816008019081613a4b9190614dfb565b509050506001600b600088815260200190815260200160002060006101000a81548160ff0219169083151502179055506001600c84604051613a8d9190614f09565b908152602001604051809103902060006101000a81548160ff021916908315150217905550505050505050505050565b604051806101400160405280600081526020016060815260200160608152602001606081526020016060815260200160008152602001606081526020016000815260200160008152602001606081525090565b6000604051905090565b600080fd5b600080fd5b6000819050919050565b613b3781613b24565b8114613b4257600080fd5b50565b600081359050613b5481613b2e565b92915050565b600060208284031215613b7057613b6f613b1a565b5b6000613b7e84828501613b45565b91505092915050565b613b9081613b24565b82525050565b600081519050919050565b600082825260208201905092915050565b60005b83811015613bd0578082015181840152602081019050613bb5565b60008484015250505050565b6000601f19601f8301169050919050565b6000613bf882613b96565b613c028185613ba1565b9350613c12818560208601613bb2565b613c1b81613bdc565b840191505092915050565b600061014082019050613c3c600083018d613b87565b8181036020830152613c4e818c613bed565b90508181036040830152613c62818b613bed565b90508181036060830152613c76818a613bed565b90508181036080830152613c8a8189613bed565b9050613c9960a0830188613b87565b81810360c0830152613cab8187613bed565b9050613cba60e0830186613b87565b613cc8610100830185613b87565b818103610120830152613cdb8184613bed565b90509b9a5050505050505050505050565b60008115159050919050565b613d0181613cec565b82525050565b6000602082019050613d1c6000830184613cf8565b92915050565b600080fd5b600080fd5b7f4e487b7100000000000000000000000000000000000000000000000000000000600052604160045260246000fd5b613d6482613bdc565b810181811067ffffffffffffffff82111715613d8357613d82613d2c565b5b80604052505050565b6000613d96613b10565b9050613da28282613d5b565b919050565b600067ffffffffffffffff821115613dc257613dc1613d2c565b5b613dcb82613bdc565b9050602081019050919050565b82818337600083830152505050565b6000613dfa613df584613da7565b613d8c565b905082815260208101848484011115613e1657613e15613d27565b5b613e21848285613dd8565b509392505050565b600082601f830112613e3e57613e3d613d22565b5b8135613e4e848260208601613de7565b91505092915050565b600060208284031215613e6d57613e6c613b1a565b5b600082013567ffffffffffffffff811115613e8b57613e8a613b1f565b5b613e9784828501613e29565b91505092915050565b6000602082019050613eb56000830184613b87565b92915050565b600061014082019050613ed1600083018d613b87565b8181036020830152613ee3818c613bed565b90508181036040830152613ef7818b613bed565b90508181036060830152613f0b818a613bed565b90508181036080830152613f1f8189613bed565b9050613f2e60a0830188613b87565b81810360c0830152613f408187613bed565b905081810360e0830152613f548186613bed565b9050818103610100830152613f698185613bed565b9050818103610120830152613f7e8184613bed565b90509b9a5050505050505050505050565b6000819050919050565b613fa281613f8f565b8114613fad57600080fd5b50565b600081359050613fbf81613f99565b92915050565b600060208284031215613fdb57613fda613b1a565b5b6000613fe984828501613fb0565b91505092915050565b6000602082019050818103600083015261400c8184613bed565b905092915050565b600060ff82169050919050565b61402a81614014565b811461403557600080fd5b50565b60008135905061404781614021565b92915050565b60006020828403121561406357614062613b1a565b5b600061407184828501614038565b91505092915050565b60007fff0000000000000000000000000000000000000000000000000000000000000082169050919050565b6140af8161407a565b82525050565b60006020820190506140ca60008301846140a6565b92915050565b6000610120820190506140e6600083018c613b87565b81810360208301526140f8818b613bed565b9050818103604083015261410c818a613bed565b905081810360608301526141208189613bed565b905081810360808301526141348188613bed565b905061414360a0830187613b87565b81810360c08301526141558186613bed565b905081810360e08301526141698185613bed565b905081810361010083015261417e8184613bed565b90509a9950505050505050505050565b600080604083850312156141a5576141a4613b1a565b5b600083013567ffffffffffffffff8111156141c3576141c2613b1f565b5b6141cf85828601613e29565b92505060206141e085828601613b45565b9150509250929050565b6141f381613f8f565b82525050565b600060208201905061420e60008301846141ea565b92915050565b600067ffffffffffffffff82111561422f5761422e613d2c565b5b602082029050602081019050919050565b600080fd5b600080fd5b600080fd5b6000610140828403121561426657614265614245565b5b614271610140613d8c565b9050600061428184828501613b45565b600083015250602082013567ffffffffffffffff8111156142a5576142a461424a565b5b6142b184828501613e29565b602083015250604082013567ffffffffffffffff8111156142d5576142d461424a565b5b6142e184828501613e29565b604083015250606082013567ffffffffffffffff8111156143055761430461424a565b5b61431184828501613e29565b606083015250608082013567ffffffffffffffff8111156143355761433461424a565b5b61434184828501613e29565b60808301525060a061435584828501613b45565b60a08301525060c082013567ffffffffffffffff8111156143795761437861424a565b5b61438584828501613e29565b60c08301525060e082013567ffffffffffffffff8111156143a9576143a861424a565b5b6143b584828501613e29565b60e08301525061010082013567ffffffffffffffff8111156143da576143d961424a565b5b6143e684828501613e29565b6101008301525061012082013567ffffffffffffffff81111561440c5761440b61424a565b5b61441884828501613e29565b6101208301525092915050565b600061443861443384614214565b613d8c565b9050808382526020820190506020840283018581111561445b5761445a614240565b5b835b818110156144a257803567ffffffffffffffff8111156144805761447f613d22565b5b80860161448d898261424f565b8552602085019450505060208101905061445d565b5050509392505050565b600082601f8301126144c1576144c0613d22565b5b81356144d1848260208601614425565b91505092915050565b6000602082840312156144f0576144ef613b1a565b5b600082013567ffffffffffffffff81111561450e5761450d613b1f565b5b61451a848285016144ac565b91505092915050565b600067ffffffffffffffff82111561453e5761453d613d2c565b5b602082029050602081019050919050565b6000610140828403121561456657614565614245565b5b614571610140613d8c565b9050600061458184828501613b45565b600083015250602082013567ffffffffffffffff8111156145a5576145a461424a565b5b6145b184828501613e29565b602083015250604082013567ffffffffffffffff8111156145d5576145d461424a565b5b6145e184828501613e29565b604083015250606082013567ffffffffffffffff8111156146055761460461424a565b5b61461184828501613e29565b606083015250608082013567ffffffffffffffff8111156146355761463461424a565b5b61464184828501613e29565b60808301525060a061465584828501613b45565b60a08301525060c082013567ffffffffffffffff8111156146795761467861424a565b5b61468584828501613e29565b60c08301525060e061469984828501613b45565b60e0830152506101006146ae84828501613b45565b6101008301525061012082013567ffffffffffffffff8111156146d4576146d361424a565b5b6146e084828501613e29565b6101208301525092915050565b60006147006146fb84614523565b613d8c565b9050808382526020820190506020840283018581111561472357614722614240565b5b835b8181101561476a57803567ffffffffffffffff81111561474857614747613d22565b5b808601614755898261454f565b85526020850194505050602081019050614725565b5050509392505050565b600082601f83011261478957614788613d22565b5b81356147998482602086016146ed565b91505092915050565b6000602082840312156147b8576147b7613b1a565b5b600082013567ffffffffffffffff8111156147d6576147d5613b1f565b5b6147e284828501614774565b91505092915050565b6147f481613b24565b82525050565b600082825260208201905092915050565b600061481682613b96565b61482081856147fa565b9350614830818560208601613bb2565b61483981613bdc565b840191505092915050565b60006101408301600083015161485d60008601826147eb565b5060208301518482036020860152614875828261480b565b9150506040830151848203604086015261488f828261480b565b915050606083015184820360608601526148a9828261480b565b915050608083015184820360808601526148c3828261480b565b91505060a08301516148d860a08601826147eb565b5060c083015184820360c08601526148f0828261480b565b91505060e083015161490560e08601826147eb565b5061010083015161491a6101008601826147eb565b50610120830151848203610120860152614934828261480b565b9150508091505092915050565b6000602082019050818103600083015261495b8184614844565b905092915050565b600080600080600080600080610100898b03121561498457614983613b1a565b5b600089013567ffffffffffffffff8111156149a2576149a1613b1f565b5b6149ae8b828c01613e29565b985050602089013567ffffffffffffffff8111156149cf576149ce613b1f565b5b6149db8b828c01613e29565b975050604089013567ffffffffffffffff8111156149fc576149fb613b1f565b5b614a088b828c01613e29565b9650506060614a198b828c01613b45565b955050608089013567ffffffffffffffff811115614a3a57614a39613b1f565b5b614a468b828c01613e29565b94505060a0614a578b828c01613b45565b93505060c0614a688b828c01613b45565b92505060e089013567ffffffffffffffff811115614a8957614a88613b1f565b5b614a958b828c01613e29565b9150509295985092959890939650565b600080600080600080600060e0888a031215614ac457614ac3613b1a565b5b600088013567ffffffffffffffff811115614ae257614ae1613b1f565b5b614aee8a828b01613e29565b975050602088013567ffffffffffffffff811115614b0f57614b0e613b1f565b5b614b1b8a828b01613e29565b965050604088013567ffffffffffffffff811115614b3c57614b3b613b1f565b5b614b488a828b01613e29565b9550506060614b598a828b01613b45565b945050608088013567ffffffffffffffff811115614b7a57614b79613b1f565b5b614b868a828b01613e29565b93505060a088013567ffffffffffffffff811115614ba757614ba6613b1f565b5b614bb38a828b01613e29565b92505060c088013567ffffffffffffffff811115614bd457614bd3613b1f565b5b614be08a828b01613e29565b91505092959891949750929550565b7f4e487b7100000000000000000000000000000000000000000000000000000000600052602260045260246000fd5b60006002820490506001821680614c3657607f821691505b602082108103614c4957614c48614bef565b5b50919050565b60008190508160005260206000209050919050565b60006020601f8301049050919050565b600082821b905092915050565b600060088302614cb17fffffffffffffffffffffffffffffffffffffffffffffffffffffffffffffffff82614c74565b614cbb8683614c74565b95508019841693508086168417925050509392505050565b6000819050919050565b6000614cf8614cf3614cee84613b24565b614cd3565b613b24565b9050919050565b6000819050919050565b614d1283614cdd565b614d26614d1e82614cff565b848454614c81565b825550505050565b600090565b614d3b614d2e565b614d46818484614d09565b505050565b5b81811015614d6a57614d5f600082614d33565b600181019050614d4c565b5050565b601f821115614daf57614d8081614c4f565b614d8984614c64565b81016020851015614d98578190505b614dac614da485614c64565b830182614d4b565b50505b505050565b600082821c905092915050565b6000614dd260001984600802614db4565b1980831691505092915050565b6000614deb8383614dc1565b9150826002028217905092915050565b614e0482613b96565b67ffffffffffffffff811115614e1d57614e1c613d2c565b5b614e278254614c1e565b614e32828285614d6e565b600060209050601f831160018114614e655760008415614e53578287015190505b614e5d8582614ddf565b865550614ec5565b601f198416614e7386614c4f565b60005b82811015614e9b57848901518255600182019150602085019450602081019050614e76565b86831015614eb85784890151614eb4601f891682614dc1565b8355505b6001600288020188555050505b505050505050565b600081905092915050565b6000614ee382613b96565b614eed8185614ecd565b9350614efd818560208601613bb2565b80840191505092915050565b6000614f158284614ed8565b915081905092915050565b7f4e487b7100000000000000000000000000000000000000000000000000000000600052601260045260246000fd5b7f4e487b7100000000000000000000000000000000000000000000000000000000600052601160045260246000fd5b6000614f8982614014565b9150614f9483614014565b925082614fa457614fa3614f20565b5b828204905092915050565b7f4e487b7100000000000000000000000000000000000000000000000000000000600052603260045260246000fd5b6000614fe982614014565b9150614ff483614014565b9250828201905060ff81111561500d5761500c614f4f565b5b92915050565b600061501e82614014565b915060ff820361503157615030614f4f565b5b600182019050919050565b6000819050919050565b61505761505282613b24565b61503c565b82525050565b60006150698285614ed8565b91506150758284615046565b6020820191508190509392505050565b600061509082613b24565b91507fffffffffffffffffffffffffffffffffffffffffffffffffffffffffffffffff82036150c2576150c1614f4f565b5b600182019050919050565b600081546150da81614c1e565b6150e48186614ecd565b945060018216600081146150ff576001811461511457615147565b60ff1983168652811515820286019350615147565b61511d85614c4f565b60005b8381101561513f57815481890152600182019150602081019050615120565b838801955050505b50505092915050565b600061515c82846150cd565b91508190509291505056fea2646970667358221220fc2269db9a5213492142e301be58a0c00984011bc733210c05b4554b8c6d1f7e64736f6c63430008110033",
  "linkReferences": {},
  "deployedLinkReferences": {}
}