{
  "_format": "hh-sol-artifact-1",
  "contractName": "Ecertify",
  "sourceName": "contracts/Ecertify.sol",
  "abi": [
    {
      "inputs": [
        {
          "internalType": "string",
          "name": "_name",
          "type": "string"
        },
        {
          "internalType": "string",
          "name": "_course",
          "type": "string"
        },
        {
          "internalType": "string",
          "name": "_email",
          "type": "string"
        },
        {
          "internalType": "uint256",
          "name": "_passoutYear",
          "type": "uint256"
        },
        {
          "internalType": "string",
          "name": "_percentage",
          "type": "string"
        },
        {
          "internalType": "uint256",
          "name": "_SAP",
          "type": "uint256"
        },
        {
          "internalType": "uint256",
          "name": "_phone",
          "type": "uint256"
        },
        {
          "internalType": "string",
          "name": "_issueDate",
          "type": "string"
        }
      ],
      "name": "addCertificate",
      "outputs": [],
      "stateMutability": "nonpayable",
      "type": "function"
    },
    {
      "inputs": [
        {
          "components": [
            {
              "internalType": "uint256",
              "name": "certid",
              "type": "uint256"
            },
            {
              "internalType": "string",
              "name": "transactionHash",
              "type": "string"
            },
            {
              "internalType": "string",
              "name": "name",
              "type": "string"
            },
            {
              "internalType": "string",
              "name": "email",
              "type": "string"
            },
            {
              "internalType": "string",
              "name": "domain",
              "type": "string"
            },
            {
              "internalType": "uint256",
              "name": "contact",
              "type": "uint256"
            },
            {
              "internalType": "string",
              "name": "eventName",
              "type": "string"
            },
            {
              "internalType": "string",
              "name": "eventType",
              "type": "string"
            },
            {
              "internalType": "string",
              "name": "eventDate",
              "type": "string"
            },
            {
              "internalType": "string",
              "name": "issueDate",
              "type": "string"
            }
          ],
          "internalType": "struct Ecertify.EventCertificate[]",
          "name": "b",
          "type": "tuple[]"
        }
      ],
      "name": "addEventInBulk",
      "outputs": [],
      "stateMutability": "nonpayable",
      "type": "function"
    },
    {
      "inputs": [
        {
          "internalType": "string",
          "name": "_name",
          "type": "string"
        },
        {
          "internalType": "string",
          "name": "_course",
          "type": "string"
        },
        {
          "internalType": "string",
          "name": "_email",
          "type": "string"
        },
        {
          "internalType": "uint256",
          "name": "_SAP",
          "type": "uint256"
        },
        {
          "internalType": "string",
          "name": "_reason",
          "type": "string"
        },
        {
          "internalType": "string",
          "name": "_type",
          "type": "string"
        }
      ],
      "name": "addExtraCertificate",
      "outputs": [],
      "stateMutability": "nonpayable",
      "type": "function"
    },
    {
      "inputs": [
        {
          "components": [
            {
              "internalType": "uint256",
              "name": "certid",
              "type": "uint256"
            },
            {
              "internalType": "string",
              "name": "transactionHash",
              "type": "string"
            },
            {
              "internalType": "string",
              "name": "name",
              "type": "string"
            },
            {
              "internalType": "string",
              "name": "course",
              "type": "string"
            },
            {
              "internalType": "string",
              "name": "email",
              "type": "string"
            },
            {
              "internalType": "uint256",
              "name": "passoutYear",
              "type": "uint256"
            },
            {
              "internalType": "string",
              "name": "percentage",
              "type": "string"
            },
            {
              "internalType": "uint256",
              "name": "SAP",
              "type": "uint256"
            },
            {
              "internalType": "uint256",
              "name": "contact",
              "type": "uint256"
            },
            {
              "internalType": "string",
              "name": "issueDate",
              "type": "string"
            }
          ],
          "internalType": "struct Ecertify.Certificate[]",
          "name": "b",
          "type": "tuple[]"
        }
      ],
      "name": "addInBulk",
      "outputs": [],
      "stateMutability": "nonpayable",
      "type": "function"
    },
    {
      "inputs": [
        {
          "internalType": "uint256",
          "name": "",
          "type": "uint256"
        }
      ],
      "name": "allCertificates",
      "outputs": [
        {
          "internalType": "uint256",
          "name": "certid",
          "type": "uint256"
        },
        {
          "internalType": "string",
          "name": "transactionHash",
          "type": "string"
        },
        {
          "internalType": "string",
          "name": "name",
          "type": "string"
        },
        {
          "internalType": "string",
          "name": "course",
          "type": "string"
        },
        {
          "internalType": "string",
          "name": "email",
          "type": "string"
        },
        {
          "internalType": "uint256",
          "name": "passoutYear",
          "type": "uint256"
        },
        {
          "internalType": "string",
          "name": "percentage",
          "type": "string"
        },
        {
          "internalType": "uint256",
          "name": "SAP",
          "type": "uint256"
        },
        {
          "internalType": "uint256",
          "name": "contact",
          "type": "uint256"
        },
        {
          "internalType": "string",
          "name": "issueDate",
          "type": "string"
        }
      ],
      "stateMutability": "view",
      "type": "function"
    },
    {
      "inputs": [
        {
          "internalType": "uint256",
          "name": "",
          "type": "uint256"
        }
      ],
      "name": "allEventCertificates",
      "outputs": [
        {
          "internalType": "uint256",
          "name": "certid",
          "type": "uint256"
        },
        {
          "internalType": "string",
          "name": "transactionHash",
          "type": "string"
        },
        {
          "internalType": "string",
          "name": "name",
          "type": "string"
        },
        {
          "internalType": "string",
          "name": "email",
          "type": "string"
        },
        {
          "internalType": "string",
          "name": "domain",
          "type": "string"
        },
        {
          "internalType": "uint256",
          "name": "contact",
          "type": "uint256"
        },
        {
          "internalType": "string",
          "name": "eventName",
          "type": "string"
        },
        {
          "internalType": "string",
          "name": "eventType",
          "type": "string"
        },
        {
          "internalType": "string",
          "name": "eventDate",
          "type": "string"
        },
        {
          "internalType": "string",
          "name": "issueDate",
          "type": "string"
        }
      ],
      "stateMutability": "view",
      "type": "function"
    },
    {
      "inputs": [
        {
          "internalType": "uint256",
          "name": "",
          "type": "uint256"
        }
      ],
      "name": "allExtraCertificates",
      "outputs": [
        {
          "internalType": "uint256",
          "name": "certid",
          "type": "uint256"
        },
        {
          "internalType": "string",
          "name": "transactionHash",
          "type": "string"
        },
        {
          "internalType": "string",
          "name": "name",
          "type": "string"
        },
        {
          "internalType": "string",
          "name": "course",
          "type": "string"
        },
        {
          "internalType": "string",
          "name": "email",
          "type": "string"
        },
        {
          "internalType": "uint256",
          "name": "SAP",
          "type": "uint256"
        },
        {
          "internalType": "string",
          "name": "reason",
          "type": "string"
        },
        {
          "internalType": "string",
          "name": "certType",
          "type": "string"
        }
      ],
      "stateMutability": "view",
      "type": "function"
    },
    {
      "inputs": [
        {
          "internalType": "string",
          "name": "",
          "type": "string"
        }
      ],
      "name": "allhashedCertificates",
      "outputs": [
        {
          "internalType": "uint256",
          "name": "certid",
          "type": "uint256"
        },
        {
          "internalType": "string",
          "name": "transactionHash",
          "type": "string"
        },
        {
          "internalType": "string",
          "name": "name",
          "type": "string"
        },
        {
          "internalType": "string",
          "name": "course",
          "type": "string"
        },
        {
          "internalType": "string",
          "name": "email",
          "type": "string"
        },
        {
          "internalType": "uint256",
          "name": "passoutYear",
          "type": "uint256"
        },
        {
          "internalType": "string",
          "name": "percentage",
          "type": "string"
        },
        {
          "internalType": "uint256",
          "name": "SAP",
          "type": "uint256"
        },
        {
          "internalType": "uint256",
          "name": "contact",
          "type": "uint256"
        },
        {
          "internalType": "string",
          "name": "issueDate",
          "type": "string"
        }
      ],
      "stateMutability": "view",
      "type": "function"
    },
    {
      "inputs": [
        {
          "internalType": "string",
          "name": "",
          "type": "string"
        }
      ],
      "name": "allhashedEventCertificates",
      "outputs": [
        {
          "internalType": "uint256",
          "name": "certid",
          "type": "uint256"
        },
        {
          "internalType": "string",
          "name": "transactionHash",
          "type": "string"
        },
        {
          "internalType": "string",
          "name": "name",
          "type": "string"
        },
        {
          "internalType": "string",
          "name": "email",
          "type": "string"
        },
        {
          "internalType": "string",
          "name": "domain",
          "type": "string"
        },
        {
          "internalType": "uint256",
          "name": "contact",
          "type": "uint256"
        },
        {
          "internalType": "string",
          "name": "eventName",
          "type": "string"
        },
        {
          "internalType": "string",
          "name": "eventType",
          "type": "string"
        },
        {
          "internalType": "string",
          "name": "eventDate",
          "type": "string"
        },
        {
          "internalType": "string",
          "name": "issueDate",
          "type": "string"
        }
      ],
      "stateMutability": "view",
      "type": "function"
    },
    {
      "inputs": [
        {
          "internalType": "string",
          "name": "",
          "type": "string"
        }
      ],
      "name": "allhashedExtraCertificates",
      "outputs": [
        {
          "internalType": "uint256",
          "name": "certid",
          "type": "uint256"
        },
        {
          "internalType": "string",
          "name": "transactionHash",
          "type": "string"
        },
        {
          "internalType": "string",
          "name": "name",
          "type": "string"
        },
        {
          "internalType": "string",
          "name": "course",
          "type": "string"
        },
        {
          "internalType": "string",
          "name": "email",
          "type": "string"
        },
        {
          "internalType": "uint256",
          "name": "SAP",
          "type": "uint256"
        },
        {
          "internalType": "string",
          "name": "reason",
          "type": "string"
        },
        {
          "internalType": "string",
          "name": "certType",
          "type": "string"
        }
      ],
      "stateMutability": "view",
      "type": "function"
    },
    {
      "inputs": [
        {
          "internalType": "bytes32",
          "name": "_bytes32",
          "type": "bytes32"
        }
      ],
      "name": "bytes32ToString",
      "outputs": [
        {
          "internalType": "string",
          "name": "",
          "type": "string"
        }
      ],
      "stateMutability": "pure",
      "type": "function"
    },
    {
      "inputs": [
        {
          "internalType": "string",
          "name": "",
          "type": "string"
        }
      ],
      "name": "certficateHashExist",
      "outputs": [
        {
          "internalType": "bool",
          "name": "",
          "type": "bool"
        }
      ],
      "stateMutability": "view",
      "type": "function"
    },
    {
      "inputs": [],
      "name": "certificateCounter",
      "outputs": [
        {
          "internalType": "uint256",
          "name": "",
          "type": "uint256"
        }
      ],
      "stateMutability": "view",
      "type": "function"
    },
    {
      "inputs": [],
      "name": "eventCertificateCounter",
      "outputs": [
        {
          "internalType": "uint256",
          "name": "",
          "type": "uint256"
        }
      ],
      "stateMutability": "view",
      "type": "function"
    },
    {
      "inputs": [],
      "name": "extracertificateCounter",
      "outputs": [
        {
          "internalType": "uint256",
          "name": "",
          "type": "uint256"
        }
      ],
      "stateMutability": "view",
      "type": "function"
    },
    {
      "inputs": [
        {
          "internalType": "string",
          "name": "userAddress",
          "type": "string"
        }
      ],
      "name": "getValueAtMapping",
      "outputs": [
        {
          "components": [
            {
              "internalType": "uint256",
              "name": "certid",
              "type": "uint256"
            },
            {
              "internalType": "string",
              "name": "transactionHash",
              "type": "string"
            },
            {
              "internalType": "string",
              "name": "name",
              "type": "string"
            },
            {
              "internalType": "string",
              "name": "course",
              "type": "string"
            },
            {
              "internalType": "string",
              "name": "email",
              "type": "string"
            },
            {
              "internalType": "uint256",
              "name": "passoutYear",
              "type": "uint256"
            },
            {
              "internalType": "string",
              "name": "percentage",
              "type": "string"
            },
            {
              "internalType": "uint256",
              "name": "SAP",
              "type": "uint256"
            },
            {
              "internalType": "uint256",
              "name": "contact",
              "type": "uint256"
            },
            {
              "internalType": "string",
              "name": "issueDate",
              "type": "string"
            }
          ],
          "internalType": "struct Ecertify.Certificate",
          "name": "",
          "type": "tuple"
        }
      ],
      "stateMutability": "view",
      "type": "function"
    },
    {
      "inputs": [
        {
          "internalType": "string",
          "name": "_string",
          "type": "string"
        },
        {
          "internalType": "uint256",
          "name": "_contact",
          "type": "uint256"
        }
      ],
      "name": "hash",
      "outputs": [
        {
          "internalType": "bytes32",
          "name": "",
          "type": "bytes32"
        }
      ],
      "stateMutability": "pure",
      "type": "function"
    },
    {
      "inputs": [
        {
          "internalType": "uint256",
          "name": "",
          "type": "uint256"
        }
      ],
      "name": "sapIdExist",
      "outputs": [
        {
          "internalType": "bool",
          "name": "",
          "type": "bool"
        }
      ],
      "stateMutability": "view",
      "type": "function"
    },
    {
      "inputs": [
        {
          "internalType": "uint8",
          "name": "_uint8",
          "type": "uint8"
        }
      ],
      "name": "toByte",
      "outputs": [
        {
          "internalType": "bytes1",
          "name": "",
          "type": "bytes1"
        }
      ],
      "stateMutability": "pure",
      "type": "function"
    },
    {
      "inputs": [
        {
          "internalType": "string",
          "name": "_transactionHash",
          "type": "string"
        }
      ],
      "name": "updateExtraTransaction",
      "outputs": [],
      "stateMutability": "nonpayable",
      "type": "function"
    },
    {
      "inputs": [
        {
          "internalType": "string",
          "name": "_transactionHash",
          "type": "string"
        }
      ],
      "name": "updateTransaction",
      "outputs": [],
      "stateMutability": "nonpayable",
      "type": "function"
    }
  ],
  "bytecode": "0x608060405234801561001057600080fd5b50614dd5806100206000396000f3fe608060405234801561001057600080fd5b50600436106101375760003560e01c8063b1fc3f92116100b8578063dbdd28cf1161007c578063dbdd28cf146103ba578063de3d6411146103ea578063dfcaf60d14610421578063e9a80da71461045a578063f31125cf14610476578063fbfb8ce21461049257610137565b8063b1fc3f92146102eb578063be25270f14610322578063c65c94c714610352578063d3a3f0821461036e578063da4039df1461039e57610137565b80632a10cec4116100ff5780632a10cec41461023557806367764b26146102515780637f0740441461026f5780639201de551461028b578063a86b73f0146102bb57610137565b8063053c8e251461013c57806312e25330146101755780631e830c3f146101a55780631f0be590146101de57806329ee2559146101fc575b600080fd5b610156600480360381019061015191906137d9565b6104b0565b60405161016c9a999897969594939291906138a5565b60405180910390f35b61018f600480360381019061018a91906137d9565b610834565b60405161019c9190613986565b60405180910390f35b6101bf60048036038101906101ba9190613ad6565b610854565b6040516101d59a999897969594939291906138a5565b60405180910390f35b6101e6610bee565b6040516101f39190613b1f565b60405180910390f35b610216600480360381019061021191906137d9565b610bf4565b60405161022c9a99989796959493929190613b3a565b60405180910390f35b61024f600480360381019061024a9190613c0e565b611088565b005b6102596111fb565b6040516102669190613b1f565b60405180910390f35b61028960048036038101906102849190613ad6565b611201565b005b6102a560048036038101906102a09190613d5d565b611753565b6040516102b29190613d8a565b60405180910390f35b6102d560048036038101906102d09190613de5565b611909565b6040516102e29190613e4d565b60405180910390f35b61030560048036038101906103009190613ad6565b611946565b604051610319989796959493929190613e68565b60405180910390f35b61033c60048036038101906103379190613f10565b611cd4565b6040516103499190613f7b565b60405180910390f35b61036c6004803603810190610367919061425c565b611d07565b005b61038860048036038101906103839190613ad6565b612085565b6040516103959190613986565b60405180910390f35b6103b860048036038101906103b39190614524565b6120bb565b005b6103d460048036038101906103cf9190613ad6565b612420565b6040516103e191906146c3565b60405180910390f35b61040460048036038101906103ff91906137d9565b6127ed565b604051610418989796959493929190613e68565b60405180910390f35b61043b60048036038101906104369190613ad6565b612b65565b6040516104519a99989796959493929190613b3a565b60405180910390f35b610474600480360381019061046f91906146e5565b61300f565b005b610490600480360381019061048b9190613ad6565b6131a4565b005b61049a613736565b6040516104a79190613b1f565b60405180910390f35b60046020528060005260406000206000915090508060000154908060010180546104d990614856565b80601f016020809104026020016040519081016040528092919081815260200182805461050590614856565b80156105525780601f1061052757610100808354040283529160200191610552565b820191906000526020600020905b81548152906001019060200180831161053557829003601f168201915b50505050509080600201805461056790614856565b80601f016020809104026020016040519081016040528092919081815260200182805461059390614856565b80156105e05780601f106105b5576101008083540402835291602001916105e0565b820191906000526020600020905b8154815290600101906020018083116105c357829003601f168201915b5050505050908060030180546105f590614856565b80601f016020809104026020016040519081016040528092919081815260200182805461062190614856565b801561066e5780601f106106435761010080835404028352916020019161066e565b820191906000526020600020905b81548152906001019060200180831161065157829003601f168201915b50505050509080600401805461068390614856565b80601f01602080910402602001604051908101604052809291908181526020018280546106af90614856565b80156106fc5780601f106106d1576101008083540402835291602001916106fc565b820191906000526020600020905b8154815290600101906020018083116106df57829003601f168201915b50505050509080600501549080600601805461071790614856565b80601f016020809104026020016040519081016040528092919081815260200182805461074390614856565b80156107905780601f1061076557610100808354040283529160200191610790565b820191906000526020600020905b81548152906001019060200180831161077357829003601f168201915b5050505050908060070154908060080154908060090180546107b190614856565b80601f01602080910402602001604051908101604052809291908181526020018280546107dd90614856565b801561082a5780601f106107ff5761010080835404028352916020019161082a565b820191906000526020600020905b81548152906001019060200180831161080d57829003601f168201915b505050505090508a565b600b6020528060005260406000206000915054906101000a900460ff1681565b60078180516020810182018051848252602083016020850120818352809550505050505060009150905080600001549080600101805461089390614856565b80601f01602080910402602001604051908101604052809291908181526020018280546108bf90614856565b801561090c5780601f106108e15761010080835404028352916020019161090c565b820191906000526020600020905b8154815290600101906020018083116108ef57829003601f168201915b50505050509080600201805461092190614856565b80601f016020809104026020016040519081016040528092919081815260200182805461094d90614856565b801561099a5780601f1061096f5761010080835404028352916020019161099a565b820191906000526020600020905b81548152906001019060200180831161097d57829003601f168201915b5050505050908060030180546109af90614856565b80601f01602080910402602001604051908101604052809291908181526020018280546109db90614856565b8015610a285780601f106109fd57610100808354040283529160200191610a28565b820191906000526020600020905b815481529060010190602001808311610a0b57829003601f168201915b505050505090806004018054610a3d90614856565b80601f0160208091040260200160405190810160405280929190818152602001828054610a6990614856565b8015610ab65780601f10610a8b57610100808354040283529160200191610ab6565b820191906000526020600020905b815481529060010190602001808311610a9957829003601f168201915b505050505090806005015490806006018054610ad190614856565b80601f0160208091040260200160405190810160405280929190818152602001828054610afd90614856565b8015610b4a5780601f10610b1f57610100808354040283529160200191610b4a565b820191906000526020600020905b815481529060010190602001808311610b2d57829003601f168201915b505050505090806007015490806008015490806009018054610b6b90614856565b80601f0160208091040260200160405190810160405280929190818152602001828054610b9790614856565b8015610be45780601f10610bb957610100808354040283529160200191610be4565b820191906000526020600020905b815481529060010190602001808311610bc757829003601f168201915b505050505090508a565b60025481565b6005602052806000526040600020600091509050806000015490806001018054610c1d90614856565b80601f0160208091040260200160405190810160405280929190818152602001828054610c4990614856565b8015610c965780601f10610c6b57610100808354040283529160200191610c96565b820191906000526020600020905b815481529060010190602001808311610c7957829003601f168201915b505050505090806002018054610cab90614856565b80601f0160208091040260200160405190810160405280929190818152602001828054610cd790614856565b8015610d245780601f10610cf957610100808354040283529160200191610d24565b820191906000526020600020905b815481529060010190602001808311610d0757829003601f168201915b505050505090806003018054610d3990614856565b80601f0160208091040260200160405190810160405280929190818152602001828054610d6590614856565b8015610db25780601f10610d8757610100808354040283529160200191610db2565b820191906000526020600020905b815481529060010190602001808311610d9557829003601f168201915b505050505090806004018054610dc790614856565b80601f0160208091040260200160405190810160405280929190818152602001828054610df390614856565b8015610e405780601f10610e1557610100808354040283529160200191610e40565b820191906000526020600020905b815481529060010190602001808311610e2357829003601f168201915b505050505090806005015490806006018054610e5b90614856565b80601f0160208091040260200160405190810160405280929190818152602001828054610e8790614856565b8015610ed45780601f10610ea957610100808354040283529160200191610ed4565b820191906000526020600020905b815481529060010190602001808311610eb757829003601f168201915b505050505090806007018054610ee990614856565b80601f0160208091040260200160405190810160405280929190818152602001828054610f1590614856565b8015610f625780601f10610f3757610100808354040283529160200191610f62565b820191906000526020600020905b815481529060010190602001808311610f4557829003601f168201915b505050505090806008018054610f7790614856565b80601f0160208091040260200160405190810160405280929190818152602001828054610fa390614856565b8015610ff05780601f10610fc557610100808354040283529160200191610ff0565b820191906000526020600020905b815481529060010190602001808311610fd357829003601f168201915b50505050509080600901805461100590614856565b80601f016020809104026020016040519081016040528092919081815260200182805461103190614856565b801561107e5780601f106110535761010080835404028352916020019161107e565b820191906000526020600020905b81548152906001019060200180831161106157829003601f168201915b505050505090508a565b6002600081548092919061109b906148b6565b9190505550600060405180610100016040528060025481526020016040518060400160405280600381526020017f307830000000000000000000000000000000000000000000000000000000000081525081526020018881526020018781526020018681526020018581526020018481526020018381525090508060066000600254815260200190815260200160002060008201518160000155602082015181600101908161114a9190614aaa565b5060408201518160020190816111609190614aaa565b5060608201518160030190816111769190614aaa565b50608082015181600401908161118c9190614aaa565b5060a0820151816005015560c08201518160060190816111ac9190614aaa565b5060e08201518160070190816111c29190614aaa565b509050506001600b600086815260200190815260200160002060006101000a81548160ff02191690831515021790555050505050505050565b60005481565b60006006600080548152602001908152602001600020604051806101000160405290816000820154815260200160018201805461123d90614856565b80601f016020809104026020016040519081016040528092919081815260200182805461126990614856565b80156112b65780601f1061128b576101008083540402835291602001916112b6565b820191906000526020600020905b81548152906001019060200180831161129957829003601f168201915b505050505081526020016002820180546112cf90614856565b80601f01602080910402602001604051908101604052809291908181526020018280546112fb90614856565b80156113485780601f1061131d57610100808354040283529160200191611348565b820191906000526020600020905b81548152906001019060200180831161132b57829003601f168201915b5050505050815260200160038201805461136190614856565b80601f016020809104026020016040519081016040528092919081815260200182805461138d90614856565b80156113da5780601f106113af576101008083540402835291602001916113da565b820191906000526020600020905b8154815290600101906020018083116113bd57829003601f168201915b505050505081526020016004820180546113f390614856565b80601f016020809104026020016040519081016040528092919081815260200182805461141f90614856565b801561146c5780601f106114415761010080835404028352916020019161146c565b820191906000526020600020905b81548152906001019060200180831161144f57829003601f168201915b505050505081526020016005820154815260200160068201805461148f90614856565b80601f01602080910402602001604051908101604052809291908181526020018280546114bb90614856565b80156115085780601f106114dd57610100808354040283529160200191611508565b820191906000526020600020905b8154815290600101906020018083116114eb57829003601f168201915b5050505050815260200160078201805461152190614856565b80601f016020809104026020016040519081016040528092919081815260200182805461154d90614856565b801561159a5780601f1061156f5761010080835404028352916020019161159a565b820191906000526020600020905b81548152906001019060200180831161157d57829003601f168201915b50505050508152505090508181602001819052508060066000805481526020019081526020016000206000820151816000015560208201518160010190816115e29190614aaa565b5060408201518160020190816115f89190614aaa565b50606082015181600301908161160e9190614aaa565b5060808201518160040190816116249190614aaa565b5060a0820151816005015560c08201518160060190816116449190614aaa565b5060e082015181600701908161165a9190614aaa565b509050508060098360405161166f9190614bb8565b908152602001604051809103902060008201518160000155602082015181600101908161169c9190614aaa565b5060408201518160020190816116b29190614aaa565b5060608201518160030190816116c89190614aaa565b5060808201518160040190816116de9190614aaa565b5060a0820151816005015560c08201518160060190816116fe9190614aaa565b5060e08201518160070190816117149190614aaa565b509050506001600a8360405161172a9190614bb8565b908152602001604051809103902060006101000a81548160ff0219169083151502179055505050565b6060600080604067ffffffffffffffff811115611773576117726139ab565b5b6040519080825280601f01601f1916602001820160405280156117a55781602001600182028036833780820191505090505b509050600091505b80518260ff1610156118ff576000600f60f81b856002856117ce9190614bfe565b60ff16602081106117e2576117e1614c2f565b5b1a60f81b1660f81c905060006004866002866117fe9190614bfe565b60ff166020811061181257611811614c2f565b5b1a60f81b7effffffffffffffffffffffffffffffffffffffffffffffffffffffffffffff1916901c60f81c905061184882611909565b838560ff168151811061185e5761185d614c2f565b5b60200101907effffffffffffffffffffffffffffffffffffffffffffffffffffffffffffff1916908160001a90535060018461189a9190614c5e565b93506118a581611909565b838560ff16815181106118bb576118ba614c2f565b5b60200101907effffffffffffffffffffffffffffffffffffffffffffffffffffffffffffff1916908160001a905350505081806118f790614c93565b9250506117ad565b8092505050919050565b6000600a8260ff16101561192e576030826119249190614c5e565b60f81b9050611941565b60578261193b9190614c5e565b60f81b90505b919050565b60098180516020810182018051848252602083016020850120818352809550505050505060009150905080600001549080600101805461198590614856565b80601f01602080910402602001604051908101604052809291908181526020018280546119b190614856565b80156119fe5780601f106119d3576101008083540402835291602001916119fe565b820191906000526020600020905b8154815290600101906020018083116119e157829003601f168201915b505050505090806002018054611a1390614856565b80601f0160208091040260200160405190810160405280929190818152602001828054611a3f90614856565b8015611a8c5780601f10611a6157610100808354040283529160200191611a8c565b820191906000526020600020905b815481529060010190602001808311611a6f57829003601f168201915b505050505090806003018054611aa190614856565b80601f0160208091040260200160405190810160405280929190818152602001828054611acd90614856565b8015611b1a5780601f10611aef57610100808354040283529160200191611b1a565b820191906000526020600020905b815481529060010190602001808311611afd57829003601f168201915b505050505090806004018054611b2f90614856565b80601f0160208091040260200160405190810160405280929190818152602001828054611b5b90614856565b8015611ba85780601f10611b7d57610100808354040283529160200191611ba8565b820191906000526020600020905b815481529060010190602001808311611b8b57829003601f168201915b505050505090806005015490806006018054611bc390614856565b80601f0160208091040260200160405190810160405280929190818152602001828054611bef90614856565b8015611c3c5780601f10611c1157610100808354040283529160200191611c3c565b820191906000526020600020905b815481529060010190602001808311611c1f57829003601f168201915b505050505090806007018054611c5190614856565b80601f0160208091040260200160405190810160405280929190818152602001828054611c7d90614856565b8015611cca5780601f10611c9f57610100808354040283529160200191611cca565b820191906000526020600020905b815481529060010190602001808311611cad57829003601f168201915b5050505050905088565b60008282604051602001611ce9929190614cdd565b60405160208183030381529060405280519060200120905092915050565b60005b81518110156120815760016000815480929190611d26906148b6565b91905055506000611d73838381518110611d4357611d42614c2f565b5b602002602001015160400151848481518110611d6257611d61614c2f565b5b602002602001015160a00151611cd4565b9050611d7e81611753565b60039081611d8c9190614aaa565b506000604051806101400160405280600154815260200160038054611db090614856565b80601f0160208091040260200160405190810160405280929190818152602001828054611ddc90614856565b8015611e295780601f10611dfe57610100808354040283529160200191611e29565b820191906000526020600020905b815481529060010190602001808311611e0c57829003601f168201915b50505050508152602001858581518110611e4657611e45614c2f565b5b6020026020010151604001518152602001858581518110611e6a57611e69614c2f565b5b6020026020010151606001518152602001858581518110611e8e57611e8d614c2f565b5b6020026020010151608001518152602001858581518110611eb257611eb1614c2f565b5b602002602001015160a001518152602001858581518110611ed657611ed5614c2f565b5b602002602001015160c001518152602001858581518110611efa57611ef9614c2f565b5b602002602001015160e001518152602001858581518110611f1e57611f1d614c2f565b5b602002602001015161010001518152602001858581518110611f4357611f42614c2f565b5b60200260200101516101200151815250905080600560006001548152602001908152602001600020600082015181600001556020820151816001019081611f8a9190614aaa565b506040820151816002019081611fa09190614aaa565b506060820151816003019081611fb69190614aaa565b506080820151816004019081611fcc9190614aaa565b5060a0820151816005015560c0820151816006019081611fec9190614aaa565b5060e08201518160070190816120029190614aaa565b506101008201518160080190816120199190614aaa565b506101208201518160090190816120309190614aaa565b509050506001600a60036040516120479190614d88565b908152602001604051809103902060006101000a81548160ff02191690831515021790555050508080612079906148b6565b915050611d0a565b5050565b600a818051602081018201805184825260208301602085012081835280955050505050506000915054906101000a900460ff1681565b60005b815181101561241c576000808154809291906120d9906148b6565b919050555060006121278383815181106120f6576120f5614c2f565b5b60200260200101516040015184848151811061211557612114614c2f565b5b60200260200101516101000151611cd4565b905061213281611753565b600390816121409190614aaa565b50600060405180610140016040528060005481526020016003805461216490614856565b80601f016020809104026020016040519081016040528092919081815260200182805461219090614856565b80156121dd5780601f106121b2576101008083540402835291602001916121dd565b820191906000526020600020905b8154815290600101906020018083116121c057829003601f168201915b505050505081526020018585815181106121fa576121f9614c2f565b5b602002602001015160400151815260200185858151811061221e5761221d614c2f565b5b602002602001015160600151815260200185858151811061224257612241614c2f565b5b602002602001015160800151815260200185858151811061226657612265614c2f565b5b602002602001015160a00151815260200185858151811061228a57612289614c2f565b5b602002602001015160c0015181526020018585815181106122ae576122ad614c2f565b5b602002602001015160e0015181526020018585815181106122d2576122d1614c2f565b5b6020026020010151610100015181526020018585815181106122f7576122f6614c2f565b5b60200260200101516101200151815250905080600460008054815260200190815260200160002060008201518160000155602082015181600101908161233d9190614aaa565b5060408201518160020190816123539190614aaa565b5060608201518160030190816123699190614aaa565b50608082015181600401908161237f9190614aaa565b5060a0820151816005015560c082015181600601908161239f9190614aaa565b5060e0820151816007015561010082015181600801556101208201518160090190816123cb9190614aaa565b509050506001600a60036040516123e29190614d88565b908152602001604051809103902060006101000a81548160ff02191690831515021790555050508080612414906148b6565b9150506120be565b5050565b61242861373c565b6007826040516124389190614bb8565b9081526020016040518091039020604051806101400160405290816000820154815260200160018201805461246c90614856565b80601f016020809104026020016040519081016040528092919081815260200182805461249890614856565b80156124e55780601f106124ba576101008083540402835291602001916124e5565b820191906000526020600020905b8154815290600101906020018083116124c857829003601f168201915b505050505081526020016002820180546124fe90614856565b80601f016020809104026020016040519081016040528092919081815260200182805461252a90614856565b80156125775780601f1061254c57610100808354040283529160200191612577565b820191906000526020600020905b81548152906001019060200180831161255a57829003601f168201915b5050505050815260200160038201805461259090614856565b80601f01602080910402602001604051908101604052809291908181526020018280546125bc90614856565b80156126095780601f106125de57610100808354040283529160200191612609565b820191906000526020600020905b8154815290600101906020018083116125ec57829003601f168201915b5050505050815260200160048201805461262290614856565b80601f016020809104026020016040519081016040528092919081815260200182805461264e90614856565b801561269b5780601f106126705761010080835404028352916020019161269b565b820191906000526020600020905b81548152906001019060200180831161267e57829003601f168201915b50505050508152602001600582015481526020016006820180546126be90614856565b80601f01602080910402602001604051908101604052809291908181526020018280546126ea90614856565b80156127375780601f1061270c57610100808354040283529160200191612737565b820191906000526020600020905b81548152906001019060200180831161271a57829003601f168201915b50505050508152602001600782015481526020016008820154815260200160098201805461276490614856565b80601f016020809104026020016040519081016040528092919081815260200182805461279090614856565b80156127dd5780601f106127b2576101008083540402835291602001916127dd565b820191906000526020600020905b8154815290600101906020018083116127c057829003601f168201915b5050505050815250509050919050565b600660205280600052604060002060009150905080600001549080600101805461281690614856565b80601f016020809104026020016040519081016040528092919081815260200182805461284290614856565b801561288f5780601f106128645761010080835404028352916020019161288f565b820191906000526020600020905b81548152906001019060200180831161287257829003601f168201915b5050505050908060020180546128a490614856565b80601f01602080910402602001604051908101604052809291908181526020018280546128d090614856565b801561291d5780601f106128f25761010080835404028352916020019161291d565b820191906000526020600020905b81548152906001019060200180831161290057829003601f168201915b50505050509080600301805461293290614856565b80601f016020809104026020016040519081016040528092919081815260200182805461295e90614856565b80156129ab5780601f10612980576101008083540402835291602001916129ab565b820191906000526020600020905b81548152906001019060200180831161298e57829003601f168201915b5050505050908060040180546129c090614856565b80601f01602080910402602001604051908101604052809291908181526020018280546129ec90614856565b8015612a395780601f10612a0e57610100808354040283529160200191612a39565b820191906000526020600020905b815481529060010190602001808311612a1c57829003601f168201915b505050505090806005015490806006018054612a5490614856565b80601f0160208091040260200160405190810160405280929190818152602001828054612a8090614856565b8015612acd5780601f10612aa257610100808354040283529160200191612acd565b820191906000526020600020905b815481529060010190602001808311612ab057829003601f168201915b505050505090806007018054612ae290614856565b80601f0160208091040260200160405190810160405280929190818152602001828054612b0e90614856565b8015612b5b5780601f10612b3057610100808354040283529160200191612b5b565b820191906000526020600020905b815481529060010190602001808311612b3e57829003601f168201915b5050505050905088565b600881805160208101820180518482526020830160208501208183528095505050505050600091509050806000015490806001018054612ba490614856565b80601f0160208091040260200160405190810160405280929190818152602001828054612bd090614856565b8015612c1d5780601f10612bf257610100808354040283529160200191612c1d565b820191906000526020600020905b815481529060010190602001808311612c0057829003601f168201915b505050505090806002018054612c3290614856565b80601f0160208091040260200160405190810160405280929190818152602001828054612c5e90614856565b8015612cab5780601f10612c8057610100808354040283529160200191612cab565b820191906000526020600020905b815481529060010190602001808311612c8e57829003601f168201915b505050505090806003018054612cc090614856565b80601f0160208091040260200160405190810160405280929190818152602001828054612cec90614856565b8015612d395780601f10612d0e57610100808354040283529160200191612d39565b820191906000526020600020905b815481529060010190602001808311612d1c57829003601f168201915b505050505090806004018054612d4e90614856565b80601f0160208091040260200160405190810160405280929190818152602001828054612d7a90614856565b8015612dc75780601f10612d9c57610100808354040283529160200191612dc7565b820191906000526020600020905b815481529060010190602001808311612daa57829003601f168201915b505050505090806005015490806006018054612de290614856565b80601f0160208091040260200160405190810160405280929190818152602001828054612e0e90614856565b8015612e5b5780601f10612e3057610100808354040283529160200191612e5b565b820191906000526020600020905b815481529060010190602001808311612e3e57829003601f168201915b505050505090806007018054612e7090614856565b80601f0160208091040260200160405190810160405280929190818152602001828054612e9c90614856565b8015612ee95780601f10612ebe57610100808354040283529160200191612ee9565b820191906000526020600020905b815481529060010190602001808311612ecc57829003601f168201915b505050505090806008018054612efe90614856565b80601f0160208091040260200160405190810160405280929190818152602001828054612f2a90614856565b8015612f775780601f10612f4c57610100808354040283529160200191612f77565b820191906000526020600020905b815481529060010190602001808311612f5a57829003601f168201915b505050505090806009018054612f8c90614856565b80601f0160208091040260200160405190810160405280929190818152602001828054612fb890614856565b80156130055780601f10612fda57610100808354040283529160200191613005565b820191906000526020600020905b815481529060010190602001808311612fe857829003601f168201915b505050505090508a565b600080815480929190613021906148b6565b9190505550600060405180610140016040528060005481526020016040518060400160405280600381526020017f307830000000000000000000000000000000000000000000000000000000000081525081526020018a81526020018981526020018881526020018781526020018681526020018581526020018481526020018381525090508060046000805481526020019081526020016000206000820151816000015560208201518160010190816130db9190614aaa565b5060408201518160020190816130f19190614aaa565b5060608201518160030190816131079190614aaa565b50608082015181600401908161311d9190614aaa565b5060a0820151816005015560c082015181600601908161313d9190614aaa565b5060e0820151816007015561010082015181600801556101208201518160090190816131699190614aaa565b509050506001600b600086815260200190815260200160002060006101000a81548160ff021916908315150217905550505050505050505050565b6000600460008054815260200190815260200160002060405180610140016040529081600082015481526020016001820180546131e090614856565b80601f016020809104026020016040519081016040528092919081815260200182805461320c90614856565b80156132595780601f1061322e57610100808354040283529160200191613259565b820191906000526020600020905b81548152906001019060200180831161323c57829003601f168201915b5050505050815260200160028201805461327290614856565b80601f016020809104026020016040519081016040528092919081815260200182805461329e90614856565b80156132eb5780601f106132c0576101008083540402835291602001916132eb565b820191906000526020600020905b8154815290600101906020018083116132ce57829003601f168201915b5050505050815260200160038201805461330490614856565b80601f016020809104026020016040519081016040528092919081815260200182805461333090614856565b801561337d5780601f106133525761010080835404028352916020019161337d565b820191906000526020600020905b81548152906001019060200180831161336057829003601f168201915b5050505050815260200160048201805461339690614856565b80601f01602080910402602001604051908101604052809291908181526020018280546133c290614856565b801561340f5780601f106133e45761010080835404028352916020019161340f565b820191906000526020600020905b8154815290600101906020018083116133f257829003601f168201915b505050505081526020016005820154815260200160068201805461343290614856565b80601f016020809104026020016040519081016040528092919081815260200182805461345e90614856565b80156134ab5780601f10613480576101008083540402835291602001916134ab565b820191906000526020600020905b81548152906001019060200180831161348e57829003601f168201915b5050505050815260200160078201548152602001600882015481526020016009820180546134d890614856565b80601f016020809104026020016040519081016040528092919081815260200182805461350490614856565b80156135515780601f1061352657610100808354040283529160200191613551565b820191906000526020600020905b81548152906001019060200180831161353457829003601f168201915b50505050508152505090508181602001819052508060046000805481526020019081526020016000206000820151816000015560208201518160010190816135999190614aaa565b5060408201518160020190816135af9190614aaa565b5060608201518160030190816135c59190614aaa565b5060808201518160040190816135db9190614aaa565b5060a0820151816005015560c08201518160060190816135fb9190614aaa565b5060e0820151816007015561010082015181600801556101208201518160090190816136279190614aaa565b509050508060078360405161363c9190614bb8565b90815260200160405180910390206000820151816000015560208201518160010190816136699190614aaa565b50604082015181600201908161367f9190614aaa565b5060608201518160030190816136959190614aaa565b5060808201518160040190816136ab9190614aaa565b5060a0820151816005015560c08201518160060190816136cb9190614aaa565b5060e0820151816007015561010082015181600801556101208201518160090190816136f79190614aaa565b509050506001600a8360405161370d9190614bb8565b908152602001604051809103902060006101000a81548160ff0219169083151502179055505050565b60015481565b604051806101400160405280600081526020016060815260200160608152602001606081526020016060815260200160008152602001606081526020016000815260200160008152602001606081525090565b6000604051905090565b600080fd5b600080fd5b6000819050919050565b6137b6816137a3565b81146137c157600080fd5b50565b6000813590506137d3816137ad565b92915050565b6000602082840312156137ef576137ee613799565b5b60006137fd848285016137c4565b91505092915050565b61380f816137a3565b82525050565b600081519050919050565b600082825260208201905092915050565b60005b8381101561384f578082015181840152602081019050613834565b60008484015250505050565b6000601f19601f8301169050919050565b600061387782613815565b6138818185613820565b9350613891818560208601613831565b61389a8161385b565b840191505092915050565b6000610140820190506138bb600083018d613806565b81810360208301526138cd818c61386c565b905081810360408301526138e1818b61386c565b905081810360608301526138f5818a61386c565b90508181036080830152613909818961386c565b905061391860a0830188613806565b81810360c083015261392a818761386c565b905061393960e0830186613806565b613947610100830185613806565b81810361012083015261395a818461386c565b90509b9a5050505050505050505050565b60008115159050919050565b6139808161396b565b82525050565b600060208201905061399b6000830184613977565b92915050565b600080fd5b600080fd5b7f4e487b7100000000000000000000000000000000000000000000000000000000600052604160045260246000fd5b6139e38261385b565b810181811067ffffffffffffffff82111715613a0257613a016139ab565b5b80604052505050565b6000613a1561378f565b9050613a2182826139da565b919050565b600067ffffffffffffffff821115613a4157613a406139ab565b5b613a4a8261385b565b9050602081019050919050565b82818337600083830152505050565b6000613a79613a7484613a26565b613a0b565b905082815260208101848484011115613a9557613a946139a6565b5b613aa0848285613a57565b509392505050565b600082601f830112613abd57613abc6139a1565b5b8135613acd848260208601613a66565b91505092915050565b600060208284031215613aec57613aeb613799565b5b600082013567ffffffffffffffff811115613b0a57613b0961379e565b5b613b1684828501613aa8565b91505092915050565b6000602082019050613b346000830184613806565b92915050565b600061014082019050613b50600083018d613806565b8181036020830152613b62818c61386c565b90508181036040830152613b76818b61386c565b90508181036060830152613b8a818a61386c565b90508181036080830152613b9e818961386c565b9050613bad60a0830188613806565b81810360c0830152613bbf818761386c565b905081810360e0830152613bd3818661386c565b9050818103610100830152613be8818561386c565b9050818103610120830152613bfd818461386c565b90509b9a5050505050505050505050565b60008060008060008060c08789031215613c2b57613c2a613799565b5b600087013567ffffffffffffffff811115613c4957613c4861379e565b5b613c5589828a01613aa8565b965050602087013567ffffffffffffffff811115613c7657613c7561379e565b5b613c8289828a01613aa8565b955050604087013567ffffffffffffffff811115613ca357613ca261379e565b5b613caf89828a01613aa8565b9450506060613cc089828a016137c4565b935050608087013567ffffffffffffffff811115613ce157613ce061379e565b5b613ced89828a01613aa8565b92505060a087013567ffffffffffffffff811115613d0e57613d0d61379e565b5b613d1a89828a01613aa8565b9150509295509295509295565b6000819050919050565b613d3a81613d27565b8114613d4557600080fd5b50565b600081359050613d5781613d31565b92915050565b600060208284031215613d7357613d72613799565b5b6000613d8184828501613d48565b91505092915050565b60006020820190508181036000830152613da4818461386c565b905092915050565b600060ff82169050919050565b613dc281613dac565b8114613dcd57600080fd5b50565b600081359050613ddf81613db9565b92915050565b600060208284031215613dfb57613dfa613799565b5b6000613e0984828501613dd0565b91505092915050565b60007fff0000000000000000000000000000000000000000000000000000000000000082169050919050565b613e4781613e12565b82525050565b6000602082019050613e626000830184613e3e565b92915050565b600061010082019050613e7e600083018b613806565b8181036020830152613e90818a61386c565b90508181036040830152613ea4818961386c565b90508181036060830152613eb8818861386c565b90508181036080830152613ecc818761386c565b9050613edb60a0830186613806565b81810360c0830152613eed818561386c565b905081810360e0830152613f01818461386c565b90509998505050505050505050565b60008060408385031215613f2757613f26613799565b5b600083013567ffffffffffffffff811115613f4557613f4461379e565b5b613f5185828601613aa8565b9250506020613f62858286016137c4565b9150509250929050565b613f7581613d27565b82525050565b6000602082019050613f906000830184613f6c565b92915050565b600067ffffffffffffffff821115613fb157613fb06139ab565b5b602082029050602081019050919050565b600080fd5b600080fd5b600080fd5b60006101408284031215613fe857613fe7613fc7565b5b613ff3610140613a0b565b90506000614003848285016137c4565b600083015250602082013567ffffffffffffffff81111561402757614026613fcc565b5b61403384828501613aa8565b602083015250604082013567ffffffffffffffff81111561405757614056613fcc565b5b61406384828501613aa8565b604083015250606082013567ffffffffffffffff81111561408757614086613fcc565b5b61409384828501613aa8565b606083015250608082013567ffffffffffffffff8111156140b7576140b6613fcc565b5b6140c384828501613aa8565b60808301525060a06140d7848285016137c4565b60a08301525060c082013567ffffffffffffffff8111156140fb576140fa613fcc565b5b61410784828501613aa8565b60c08301525060e082013567ffffffffffffffff81111561412b5761412a613fcc565b5b61413784828501613aa8565b60e08301525061010082013567ffffffffffffffff81111561415c5761415b613fcc565b5b61416884828501613aa8565b6101008301525061012082013567ffffffffffffffff81111561418e5761418d613fcc565b5b61419a84828501613aa8565b6101208301525092915050565b60006141ba6141b584613f96565b613a0b565b905080838252602082019050602084028301858111156141dd576141dc613fc2565b5b835b8181101561422457803567ffffffffffffffff811115614202576142016139a1565b5b80860161420f8982613fd1565b855260208501945050506020810190506141df565b5050509392505050565b600082601f830112614243576142426139a1565b5b81356142538482602086016141a7565b91505092915050565b60006020828403121561427257614271613799565b5b600082013567ffffffffffffffff8111156142905761428f61379e565b5b61429c8482850161422e565b91505092915050565b600067ffffffffffffffff8211156142c0576142bf6139ab565b5b602082029050602081019050919050565b600061014082840312156142e8576142e7613fc7565b5b6142f3610140613a0b565b90506000614303848285016137c4565b600083015250602082013567ffffffffffffffff81111561432757614326613fcc565b5b61433384828501613aa8565b602083015250604082013567ffffffffffffffff81111561435757614356613fcc565b5b61436384828501613aa8565b604083015250606082013567ffffffffffffffff81111561438757614386613fcc565b5b61439384828501613aa8565b606083015250608082013567ffffffffffffffff8111156143b7576143b6613fcc565b5b6143c384828501613aa8565b60808301525060a06143d7848285016137c4565b60a08301525060c082013567ffffffffffffffff8111156143fb576143fa613fcc565b5b61440784828501613aa8565b60c08301525060e061441b848285016137c4565b60e083015250610100614430848285016137c4565b6101008301525061012082013567ffffffffffffffff81111561445657614455613fcc565b5b61446284828501613aa8565b6101208301525092915050565b600061448261447d846142a5565b613a0b565b905080838252602082019050602084028301858111156144a5576144a4613fc2565b5b835b818110156144ec57803567ffffffffffffffff8111156144ca576144c96139a1565b5b8086016144d789826142d1565b855260208501945050506020810190506144a7565b5050509392505050565b600082601f83011261450b5761450a6139a1565b5b813561451b84826020860161446f565b91505092915050565b60006020828403121561453a57614539613799565b5b600082013567ffffffffffffffff8111156145585761455761379e565b5b614564848285016144f6565b91505092915050565b614576816137a3565b82525050565b600082825260208201905092915050565b600061459882613815565b6145a2818561457c565b93506145b2818560208601613831565b6145bb8161385b565b840191505092915050565b6000610140830160008301516145df600086018261456d565b50602083015184820360208601526145f7828261458d565b91505060408301518482036040860152614611828261458d565b9150506060830151848203606086015261462b828261458d565b91505060808301518482036080860152614645828261458d565b91505060a083015161465a60a086018261456d565b5060c083015184820360c0860152614672828261458d565b91505060e083015161468760e086018261456d565b5061010083015161469c61010086018261456d565b506101208301518482036101208601526146b6828261458d565b9150508091505092915050565b600060208201905081810360008301526146dd81846145c6565b905092915050565b600080600080600080600080610100898b03121561470657614705613799565b5b600089013567ffffffffffffffff8111156147245761472361379e565b5b6147308b828c01613aa8565b985050602089013567ffffffffffffffff8111156147515761475061379e565b5b61475d8b828c01613aa8565b975050604089013567ffffffffffffffff81111561477e5761477d61379e565b5b61478a8b828c01613aa8565b965050606061479b8b828c016137c4565b955050608089013567ffffffffffffffff8111156147bc576147bb61379e565b5b6147c88b828c01613aa8565b94505060a06147d98b828c016137c4565b93505060c06147ea8b828c016137c4565b92505060e089013567ffffffffffffffff81111561480b5761480a61379e565b5b6148178b828c01613aa8565b9150509295985092959890939650565b7f4e487b7100000000000000000000000000000000000000000000000000000000600052602260045260246000fd5b6000600282049050600182168061486e57607f821691505b60208210810361488157614880614827565b5b50919050565b7f4e487b7100000000000000000000000000000000000000000000000000000000600052601160045260246000fd5b60006148c1826137a3565b91507fffffffffffffffffffffffffffffffffffffffffffffffffffffffffffffffff82036148f3576148f2614887565b5b600182019050919050565b60008190508160005260206000209050919050565b60006020601f8301049050919050565b600082821b905092915050565b6000600883026149607fffffffffffffffffffffffffffffffffffffffffffffffffffffffffffffffff82614923565b61496a8683614923565b95508019841693508086168417925050509392505050565b6000819050919050565b60006149a76149a261499d846137a3565b614982565b6137a3565b9050919050565b6000819050919050565b6149c18361498c565b6149d56149cd826149ae565b848454614930565b825550505050565b600090565b6149ea6149dd565b6149f58184846149b8565b505050565b5b81811015614a1957614a0e6000826149e2565b6001810190506149fb565b5050565b601f821115614a5e57614a2f816148fe565b614a3884614913565b81016020851015614a47578190505b614a5b614a5385614913565b8301826149fa565b50505b505050565b600082821c905092915050565b6000614a8160001984600802614a63565b1980831691505092915050565b6000614a9a8383614a70565b9150826002028217905092915050565b614ab382613815565b67ffffffffffffffff811115614acc57614acb6139ab565b5b614ad68254614856565b614ae1828285614a1d565b600060209050601f831160018114614b145760008415614b02578287015190505b614b0c8582614a8e565b865550614b74565b601f198416614b22866148fe565b60005b82811015614b4a57848901518255600182019150602085019450602081019050614b25565b86831015614b675784890151614b63601f891682614a70565b8355505b6001600288020188555050505b505050505050565b600081905092915050565b6000614b9282613815565b614b9c8185614b7c565b9350614bac818560208601613831565b80840191505092915050565b6000614bc48284614b87565b915081905092915050565b7f4e487b7100000000000000000000000000000000000000000000000000000000600052601260045260246000fd5b6000614c0982613dac565b9150614c1483613dac565b925082614c2457614c23614bcf565b5b828204905092915050565b7f4e487b7100000000000000000000000000000000000000000000000000000000600052603260045260246000fd5b6000614c6982613dac565b9150614c7483613dac565b9250828201905060ff811115614c8d57614c8c614887565b5b92915050565b6000614c9e82613dac565b915060ff8203614cb157614cb0614887565b5b600182019050919050565b6000819050919050565b614cd7614cd2826137a3565b614cbc565b82525050565b6000614ce98285614b87565b9150614cf58284614cc6565b6020820191508190509392505050565b60008154614d1281614856565b614d1c8186614b7c565b94506001821660008114614d375760018114614d4c57614d7f565b60ff1983168652811515820286019350614d7f565b614d55856148fe565b60005b83811015614d7757815481890152600182019150602081019050614d58565b838801955050505b50505092915050565b6000614d948284614d05565b91508190509291505056fea2646970667358221220859ed1a1044bbefed8b4462cc328aa990927fd14e7b926399e29ede1da72f97664736f6c63430008110033",
  "linkReferences": {},
  "deployedLinkReferences": {}
}