{
  "_format": "hh-sol-artifact-1",
  "contractName": "Ecertify",
  "sourceName": "contracts/Ecertify.sol",
  "abi": [
    {
      "inputs": [
        {
          "internalType": "string",
          "name": "_name",
          "type": "string"
        },
        {
          "internalType": "string",
          "name": "_course",
          "type": "string"
        },
        {
          "internalType": "string",
          "name": "_email",
          "type": "string"
        },
        {
          "internalType": "uint256",
          "name": "_passoutYear",
          "type": "uint256"
        },
        {
          "internalType": "string",
          "name": "_percentage",
          "type": "string"
        },
        {
          "internalType": "uint256",
          "name": "_SAP",
          "type": "uint256"
        },
        {
          "internalType": "uint256",
          "name": "_phone",
          "type": "uint256"
        },
        {
          "internalType": "string",
          "name": "_issueDate",
          "type": "string"
        }
      ],
      "name": "addCertificate",
      "outputs": [],
      "stateMutability": "nonpayable",
      "type": "function"
    },
    {
      "inputs": [
        {
          "components": [
            {
              "internalType": "uint256",
              "name": "certid",
              "type": "uint256"
            },
            {
              "internalType": "string",
              "name": "transactionHash",
              "type": "string"
            },
            {
              "internalType": "string",
              "name": "name",
              "type": "string"
            },
            {
              "internalType": "string",
              "name": "email",
              "type": "string"
            },
            {
              "internalType": "string",
              "name": "domain",
              "type": "string"
            },
            {
              "internalType": "uint256",
              "name": "contact",
              "type": "uint256"
            },
            {
              "internalType": "string",
              "name": "eventName",
              "type": "string"
            },
            {
              "internalType": "string",
              "name": "eventType",
              "type": "string"
            },
            {
              "internalType": "string",
              "name": "eventDate",
              "type": "string"
            },
            {
              "internalType": "string",
              "name": "issueDate",
              "type": "string"
            }
          ],
          "internalType": "struct Ecertify.EventCertificate[]",
          "name": "b",
          "type": "tuple[]"
        }
      ],
      "name": "addEventInBulk",
      "outputs": [],
      "stateMutability": "nonpayable",
      "type": "function"
    },
    {
      "inputs": [
        {
          "internalType": "string",
          "name": "_name",
          "type": "string"
        },
        {
          "internalType": "string",
          "name": "_course",
          "type": "string"
        },
        {
          "internalType": "string",
          "name": "_email",
          "type": "string"
        },
        {
          "internalType": "uint256",
          "name": "_SAP",
          "type": "uint256"
        },
        {
          "internalType": "string",
          "name": "_type",
          "type": "string"
        }
      ],
      "name": "addExtraCertificate",
      "outputs": [],
      "stateMutability": "nonpayable",
      "type": "function"
    },
    {
      "inputs": [
        {
          "components": [
            {
              "internalType": "uint256",
              "name": "certid",
              "type": "uint256"
            },
            {
              "internalType": "string",
              "name": "transactionHash",
              "type": "string"
            },
            {
              "internalType": "string",
              "name": "name",
              "type": "string"
            },
            {
              "internalType": "string",
              "name": "course",
              "type": "string"
            },
            {
              "internalType": "string",
              "name": "email",
              "type": "string"
            },
            {
              "internalType": "uint256",
              "name": "passoutYear",
              "type": "uint256"
            },
            {
              "internalType": "string",
              "name": "percentage",
              "type": "string"
            },
            {
              "internalType": "uint256",
              "name": "SAP",
              "type": "uint256"
            },
            {
              "internalType": "uint256",
              "name": "contact",
              "type": "uint256"
            },
            {
              "internalType": "string",
              "name": "issueDate",
              "type": "string"
            }
          ],
          "internalType": "struct Ecertify.Certificate[]",
          "name": "b",
          "type": "tuple[]"
        }
      ],
      "name": "addInBulk",
      "outputs": [],
      "stateMutability": "nonpayable",
      "type": "function"
    },
    {
      "inputs": [
        {
          "internalType": "uint256",
          "name": "",
          "type": "uint256"
        }
      ],
      "name": "allCertificates",
      "outputs": [
        {
          "internalType": "uint256",
          "name": "certid",
          "type": "uint256"
        },
        {
          "internalType": "string",
          "name": "transactionHash",
          "type": "string"
        },
        {
          "internalType": "string",
          "name": "name",
          "type": "string"
        },
        {
          "internalType": "string",
          "name": "course",
          "type": "string"
        },
        {
          "internalType": "string",
          "name": "email",
          "type": "string"
        },
        {
          "internalType": "uint256",
          "name": "passoutYear",
          "type": "uint256"
        },
        {
          "internalType": "string",
          "name": "percentage",
          "type": "string"
        },
        {
          "internalType": "uint256",
          "name": "SAP",
          "type": "uint256"
        },
        {
          "internalType": "uint256",
          "name": "contact",
          "type": "uint256"
        },
        {
          "internalType": "string",
          "name": "issueDate",
          "type": "string"
        }
      ],
      "stateMutability": "view",
      "type": "function"
    },
    {
      "inputs": [
        {
          "internalType": "uint256",
          "name": "",
          "type": "uint256"
        }
      ],
      "name": "allEventCertificates",
      "outputs": [
        {
          "internalType": "uint256",
          "name": "certid",
          "type": "uint256"
        },
        {
          "internalType": "string",
          "name": "transactionHash",
          "type": "string"
        },
        {
          "internalType": "string",
          "name": "name",
          "type": "string"
        },
        {
          "internalType": "string",
          "name": "email",
          "type": "string"
        },
        {
          "internalType": "string",
          "name": "domain",
          "type": "string"
        },
        {
          "internalType": "uint256",
          "name": "contact",
          "type": "uint256"
        },
        {
          "internalType": "string",
          "name": "eventName",
          "type": "string"
        },
        {
          "internalType": "string",
          "name": "eventType",
          "type": "string"
        },
        {
          "internalType": "string",
          "name": "eventDate",
          "type": "string"
        },
        {
          "internalType": "string",
          "name": "issueDate",
          "type": "string"
        }
      ],
      "stateMutability": "view",
      "type": "function"
    },
    {
      "inputs": [
        {
          "internalType": "uint256",
          "name": "",
          "type": "uint256"
        }
      ],
      "name": "allExtraCertificates",
      "outputs": [
        {
          "internalType": "uint256",
          "name": "certid",
          "type": "uint256"
        },
        {
          "internalType": "string",
          "name": "transactionHash",
          "type": "string"
        },
        {
          "internalType": "string",
          "name": "name",
          "type": "string"
        },
        {
          "internalType": "string",
          "name": "course",
          "type": "string"
        },
        {
          "internalType": "string",
          "name": "email",
          "type": "string"
        },
        {
          "internalType": "uint256",
          "name": "SAP",
          "type": "uint256"
        },
        {
          "internalType": "string",
          "name": "certType",
          "type": "string"
        }
      ],
      "stateMutability": "view",
      "type": "function"
    },
    {
      "inputs": [
        {
          "internalType": "string",
          "name": "",
          "type": "string"
        }
      ],
      "name": "allhashedCertificates",
      "outputs": [
        {
          "internalType": "uint256",
          "name": "certid",
          "type": "uint256"
        },
        {
          "internalType": "string",
          "name": "transactionHash",
          "type": "string"
        },
        {
          "internalType": "string",
          "name": "name",
          "type": "string"
        },
        {
          "internalType": "string",
          "name": "course",
          "type": "string"
        },
        {
          "internalType": "string",
          "name": "email",
          "type": "string"
        },
        {
          "internalType": "uint256",
          "name": "passoutYear",
          "type": "uint256"
        },
        {
          "internalType": "string",
          "name": "percentage",
          "type": "string"
        },
        {
          "internalType": "uint256",
          "name": "SAP",
          "type": "uint256"
        },
        {
          "internalType": "uint256",
          "name": "contact",
          "type": "uint256"
        },
        {
          "internalType": "string",
          "name": "issueDate",
          "type": "string"
        }
      ],
      "stateMutability": "view",
      "type": "function"
    },
    {
      "inputs": [
        {
          "internalType": "string",
          "name": "",
          "type": "string"
        }
      ],
      "name": "allhashedEventCertificates",
      "outputs": [
        {
          "internalType": "uint256",
          "name": "certid",
          "type": "uint256"
        },
        {
          "internalType": "string",
          "name": "transactionHash",
          "type": "string"
        },
        {
          "internalType": "string",
          "name": "name",
          "type": "string"
        },
        {
          "internalType": "string",
          "name": "email",
          "type": "string"
        },
        {
          "internalType": "string",
          "name": "domain",
          "type": "string"
        },
        {
          "internalType": "uint256",
          "name": "contact",
          "type": "uint256"
        },
        {
          "internalType": "string",
          "name": "eventName",
          "type": "string"
        },
        {
          "internalType": "string",
          "name": "eventType",
          "type": "string"
        },
        {
          "internalType": "string",
          "name": "eventDate",
          "type": "string"
        },
        {
          "internalType": "string",
          "name": "issueDate",
          "type": "string"
        }
      ],
      "stateMutability": "view",
      "type": "function"
    },
    {
      "inputs": [
        {
          "internalType": "string",
          "name": "",
          "type": "string"
        }
      ],
      "name": "allhashedExtraCertificates",
      "outputs": [
        {
          "internalType": "uint256",
          "name": "certid",
          "type": "uint256"
        },
        {
          "internalType": "string",
          "name": "transactionHash",
          "type": "string"
        },
        {
          "internalType": "string",
          "name": "name",
          "type": "string"
        },
        {
          "internalType": "string",
          "name": "course",
          "type": "string"
        },
        {
          "internalType": "string",
          "name": "email",
          "type": "string"
        },
        {
          "internalType": "uint256",
          "name": "SAP",
          "type": "uint256"
        },
        {
          "internalType": "string",
          "name": "certType",
          "type": "string"
        }
      ],
      "stateMutability": "view",
      "type": "function"
    },
    {
      "inputs": [
        {
          "internalType": "bytes32",
          "name": "_bytes32",
          "type": "bytes32"
        }
      ],
      "name": "bytes32ToString",
      "outputs": [
        {
          "internalType": "string",
          "name": "",
          "type": "string"
        }
      ],
      "stateMutability": "pure",
      "type": "function"
    },
    {
      "inputs": [
        {
          "internalType": "string",
          "name": "",
          "type": "string"
        }
      ],
      "name": "certficateHashExist",
      "outputs": [
        {
          "internalType": "bool",
          "name": "",
          "type": "bool"
        }
      ],
      "stateMutability": "view",
      "type": "function"
    },
    {
      "inputs": [],
      "name": "certificateCounter",
      "outputs": [
        {
          "internalType": "uint256",
          "name": "",
          "type": "uint256"
        }
      ],
      "stateMutability": "view",
      "type": "function"
    },
    {
      "inputs": [],
      "name": "eventCertificateCounter",
      "outputs": [
        {
          "internalType": "uint256",
          "name": "",
          "type": "uint256"
        }
      ],
      "stateMutability": "view",
      "type": "function"
    },
    {
      "inputs": [],
      "name": "extracertificateCounter",
      "outputs": [
        {
          "internalType": "uint256",
          "name": "",
          "type": "uint256"
        }
      ],
      "stateMutability": "view",
      "type": "function"
    },
    {
      "inputs": [
        {
          "internalType": "string",
          "name": "userAddress",
          "type": "string"
        }
      ],
      "name": "getValueAtMapping",
      "outputs": [
        {
          "components": [
            {
              "internalType": "uint256",
              "name": "certid",
              "type": "uint256"
            },
            {
              "internalType": "string",
              "name": "transactionHash",
              "type": "string"
            },
            {
              "internalType": "string",
              "name": "name",
              "type": "string"
            },
            {
              "internalType": "string",
              "name": "course",
              "type": "string"
            },
            {
              "internalType": "string",
              "name": "email",
              "type": "string"
            },
            {
              "internalType": "uint256",
              "name": "passoutYear",
              "type": "uint256"
            },
            {
              "internalType": "string",
              "name": "percentage",
              "type": "string"
            },
            {
              "internalType": "uint256",
              "name": "SAP",
              "type": "uint256"
            },
            {
              "internalType": "uint256",
              "name": "contact",
              "type": "uint256"
            },
            {
              "internalType": "string",
              "name": "issueDate",
              "type": "string"
            }
          ],
          "internalType": "struct Ecertify.Certificate",
          "name": "",
          "type": "tuple"
        }
      ],
      "stateMutability": "view",
      "type": "function"
    },
    {
      "inputs": [
        {
          "internalType": "string",
          "name": "_string",
          "type": "string"
        },
        {
          "internalType": "uint256",
          "name": "_contact",
          "type": "uint256"
        }
      ],
      "name": "hash",
      "outputs": [
        {
          "internalType": "bytes32",
          "name": "",
          "type": "bytes32"
        }
      ],
      "stateMutability": "pure",
      "type": "function"
    },
    {
      "inputs": [
        {
          "internalType": "uint256",
          "name": "",
          "type": "uint256"
        }
      ],
      "name": "sapIdExist",
      "outputs": [
        {
          "internalType": "bool",
          "name": "",
          "type": "bool"
        }
      ],
      "stateMutability": "view",
      "type": "function"
    },
    {
      "inputs": [
        {
          "internalType": "uint8",
          "name": "_uint8",
          "type": "uint8"
        }
      ],
      "name": "toByte",
      "outputs": [
        {
          "internalType": "bytes1",
          "name": "",
          "type": "bytes1"
        }
      ],
      "stateMutability": "pure",
      "type": "function"
    },
    {
      "inputs": [
        {
          "internalType": "string",
          "name": "_transactionHash",
          "type": "string"
        }
      ],
      "name": "updateExtraTransaction",
      "outputs": [],
      "stateMutability": "nonpayable",
      "type": "function"
    },
    {
      "inputs": [
        {
          "internalType": "string",
          "name": "_transactionHash",
          "type": "string"
        }
      ],
      "name": "updateTransaction",
      "outputs": [],
      "stateMutability": "nonpayable",
      "type": "function"
    }
  ],
  "bytecode": "0x608060405234801561001057600080fd5b50614c12806100206000396000f3fe608060405234801561001057600080fd5b50600436106101375760003560e01c8063b1fc3f92116100b8578063dbdd28cf1161007c578063dbdd28cf146103b9578063de3d6411146103e9578063dfcaf60d1461041f578063e9a80da714610458578063f31125cf14610474578063fbfb8ce21461049057610137565b8063b1fc3f92146102eb578063be25270f14610321578063c65c94c714610351578063d3a3f0821461036d578063da4039df1461039d57610137565b806361ac7fc4116100ff57806361ac7fc41461023557806367764b26146102515780637f0740441461026f5780639201de551461028b578063a86b73f0146102bb57610137565b8063053c8e251461013c57806312e25330146101755780631e830c3f146101a55780631f0be590146101de57806329ee2559146101fc575b600080fd5b6101566004803603810190610151919061365a565b6104ae565b60405161016c9a99989796959493929190613726565b60405180910390f35b61018f600480360381019061018a919061365a565b610832565b60405161019c9190613807565b60405180910390f35b6101bf60048036038101906101ba9190613957565b610852565b6040516101d59a99989796959493929190613726565b60405180910390f35b6101e6610bec565b6040516101f391906139a0565b60405180910390f35b6102166004803603810190610211919061365a565b610bf2565b60405161022c9a999897969594939291906139bb565b60405180910390f35b61024f600480360381019061024a9190613a8f565b611086565b005b610259611257565b60405161026691906139a0565b60405180910390f35b61028960048036038101906102849190613957565b61125d565b005b6102a560048036038101906102a09190613bb0565b6116f0565b6040516102b29190613bdd565b60405180910390f35b6102d560048036038101906102d09190613c38565b6118a6565b6040516102e29190613ca0565b60405180910390f35b61030560048036038101906103009190613957565b6118e3565b6040516103189796959493929190613cbb565b60405180910390f35b61033b60048036038101906103369190613d4d565b611be3565b6040516103489190613db8565b60405180910390f35b61036b60048036038101906103669190614099565b611c16565b005b61038760048036038101906103829190613957565b611f94565b6040516103949190613807565b60405180910390f35b6103b760048036038101906103b29190614361565b611fca565b005b6103d360048036038101906103ce9190613957565b61232f565b6040516103e09190614500565b60405180910390f35b61040360048036038101906103fe919061365a565b6126fc565b6040516104169796959493929190613cbb565b60405180910390f35b61043960048036038101906104349190613957565b6129e6565b60405161044f9a999897969594939291906139bb565b60405180910390f35b610472600480360381019061046d9190614522565b612e90565b005b61048e60048036038101906104899190613957565b613025565b005b6104986135b7565b6040516104a591906139a0565b60405180910390f35b60046020528060005260406000206000915090508060000154908060010180546104d790614693565b80601f016020809104026020016040519081016040528092919081815260200182805461050390614693565b80156105505780601f1061052557610100808354040283529160200191610550565b820191906000526020600020905b81548152906001019060200180831161053357829003601f168201915b50505050509080600201805461056590614693565b80601f016020809104026020016040519081016040528092919081815260200182805461059190614693565b80156105de5780601f106105b3576101008083540402835291602001916105de565b820191906000526020600020905b8154815290600101906020018083116105c157829003601f168201915b5050505050908060030180546105f390614693565b80601f016020809104026020016040519081016040528092919081815260200182805461061f90614693565b801561066c5780601f106106415761010080835404028352916020019161066c565b820191906000526020600020905b81548152906001019060200180831161064f57829003601f168201915b50505050509080600401805461068190614693565b80601f01602080910402602001604051908101604052809291908181526020018280546106ad90614693565b80156106fa5780601f106106cf576101008083540402835291602001916106fa565b820191906000526020600020905b8154815290600101906020018083116106dd57829003601f168201915b50505050509080600501549080600601805461071590614693565b80601f016020809104026020016040519081016040528092919081815260200182805461074190614693565b801561078e5780601f106107635761010080835404028352916020019161078e565b820191906000526020600020905b81548152906001019060200180831161077157829003601f168201915b5050505050908060070154908060080154908060090180546107af90614693565b80601f01602080910402602001604051908101604052809291908181526020018280546107db90614693565b80156108285780601f106107fd57610100808354040283529160200191610828565b820191906000526020600020905b81548152906001019060200180831161080b57829003601f168201915b505050505090508a565b600b6020528060005260406000206000915054906101000a900460ff1681565b60078180516020810182018051848252602083016020850120818352809550505050505060009150905080600001549080600101805461089190614693565b80601f01602080910402602001604051908101604052809291908181526020018280546108bd90614693565b801561090a5780601f106108df5761010080835404028352916020019161090a565b820191906000526020600020905b8154815290600101906020018083116108ed57829003601f168201915b50505050509080600201805461091f90614693565b80601f016020809104026020016040519081016040528092919081815260200182805461094b90614693565b80156109985780601f1061096d57610100808354040283529160200191610998565b820191906000526020600020905b81548152906001019060200180831161097b57829003601f168201915b5050505050908060030180546109ad90614693565b80601f01602080910402602001604051908101604052809291908181526020018280546109d990614693565b8015610a265780601f106109fb57610100808354040283529160200191610a26565b820191906000526020600020905b815481529060010190602001808311610a0957829003601f168201915b505050505090806004018054610a3b90614693565b80601f0160208091040260200160405190810160405280929190818152602001828054610a6790614693565b8015610ab45780601f10610a8957610100808354040283529160200191610ab4565b820191906000526020600020905b815481529060010190602001808311610a9757829003601f168201915b505050505090806005015490806006018054610acf90614693565b80601f0160208091040260200160405190810160405280929190818152602001828054610afb90614693565b8015610b485780601f10610b1d57610100808354040283529160200191610b48565b820191906000526020600020905b815481529060010190602001808311610b2b57829003601f168201915b505050505090806007015490806008015490806009018054610b6990614693565b80601f0160208091040260200160405190810160405280929190818152602001828054610b9590614693565b8015610be25780601f10610bb757610100808354040283529160200191610be2565b820191906000526020600020905b815481529060010190602001808311610bc557829003601f168201915b505050505090508a565b60025481565b6005602052806000526040600020600091509050806000015490806001018054610c1b90614693565b80601f0160208091040260200160405190810160405280929190818152602001828054610c4790614693565b8015610c945780601f10610c6957610100808354040283529160200191610c94565b820191906000526020600020905b815481529060010190602001808311610c7757829003601f168201915b505050505090806002018054610ca990614693565b80601f0160208091040260200160405190810160405280929190818152602001828054610cd590614693565b8015610d225780601f10610cf757610100808354040283529160200191610d22565b820191906000526020600020905b815481529060010190602001808311610d0557829003601f168201915b505050505090806003018054610d3790614693565b80601f0160208091040260200160405190810160405280929190818152602001828054610d6390614693565b8015610db05780601f10610d8557610100808354040283529160200191610db0565b820191906000526020600020905b815481529060010190602001808311610d9357829003601f168201915b505050505090806004018054610dc590614693565b80601f0160208091040260200160405190810160405280929190818152602001828054610df190614693565b8015610e3e5780601f10610e1357610100808354040283529160200191610e3e565b820191906000526020600020905b815481529060010190602001808311610e2157829003601f168201915b505050505090806005015490806006018054610e5990614693565b80601f0160208091040260200160405190810160405280929190818152602001828054610e8590614693565b8015610ed25780601f10610ea757610100808354040283529160200191610ed2565b820191906000526020600020905b815481529060010190602001808311610eb557829003601f168201915b505050505090806007018054610ee790614693565b80601f0160208091040260200160405190810160405280929190818152602001828054610f1390614693565b8015610f605780601f10610f3557610100808354040283529160200191610f60565b820191906000526020600020905b815481529060010190602001808311610f4357829003601f168201915b505050505090806008018054610f7590614693565b80601f0160208091040260200160405190810160405280929190818152602001828054610fa190614693565b8015610fee5780601f10610fc357610100808354040283529160200191610fee565b820191906000526020600020905b815481529060010190602001808311610fd157829003601f168201915b50505050509080600901805461100390614693565b80601f016020809104026020016040519081016040528092919081815260200182805461102f90614693565b801561107c5780601f106110515761010080835404028352916020019161107c565b820191906000526020600020905b81548152906001019060200180831161105f57829003601f168201915b505050505090508a565b60026000815480929190611099906146f3565b919050555060006110aa8684611be3565b90506110b5816116f0565b600390816110c391906148e7565b5060006040518060e001604052806002548152602001600380546110e690614693565b80601f016020809104026020016040519081016040528092919081815260200182805461111290614693565b801561115f5780601f106111345761010080835404028352916020019161115f565b820191906000526020600020905b81548152906001019060200180831161114257829003601f168201915b50505050508152602001888152602001878152602001868152602001858152602001848152509050806006600060025481526020019081526020016000206000820151816000015560208201518160010190816111bc91906148e7565b5060408201518160020190816111d291906148e7565b5060608201518160030190816111e891906148e7565b5060808201518160040190816111fe91906148e7565b5060a0820151816005015560c082015181600601908161121e91906148e7565b509050506001600b600086815260200190815260200160002060006101000a81548160ff02191690831515021790555050505050505050565b60005481565b600060066000805481526020019081526020016000206040518060e00160405290816000820154815260200160018201805461129890614693565b80601f01602080910402602001604051908101604052809291908181526020018280546112c490614693565b80156113115780601f106112e657610100808354040283529160200191611311565b820191906000526020600020905b8154815290600101906020018083116112f457829003601f168201915b5050505050815260200160028201805461132a90614693565b80601f016020809104026020016040519081016040528092919081815260200182805461135690614693565b80156113a35780601f10611378576101008083540402835291602001916113a3565b820191906000526020600020905b81548152906001019060200180831161138657829003601f168201915b505050505081526020016003820180546113bc90614693565b80601f01602080910402602001604051908101604052809291908181526020018280546113e890614693565b80156114355780601f1061140a57610100808354040283529160200191611435565b820191906000526020600020905b81548152906001019060200180831161141857829003601f168201915b5050505050815260200160048201805461144e90614693565b80601f016020809104026020016040519081016040528092919081815260200182805461147a90614693565b80156114c75780601f1061149c576101008083540402835291602001916114c7565b820191906000526020600020905b8154815290600101906020018083116114aa57829003601f168201915b50505050508152602001600582015481526020016006820180546114ea90614693565b80601f016020809104026020016040519081016040528092919081815260200182805461151690614693565b80156115635780601f1061153857610100808354040283529160200191611563565b820191906000526020600020905b81548152906001019060200180831161154657829003601f168201915b50505050508152505090508181602001819052508060066000805481526020019081526020016000206000820151816000015560208201518160010190816115ab91906148e7565b5060408201518160020190816115c191906148e7565b5060608201518160030190816115d791906148e7565b5060808201518160040190816115ed91906148e7565b5060a0820151816005015560c082015181600601908161160d91906148e7565b509050508060098360405161162291906149f5565b908152602001604051809103902060008201518160000155602082015181600101908161164f91906148e7565b50604082015181600201908161166591906148e7565b50606082015181600301908161167b91906148e7565b50608082015181600401908161169191906148e7565b5060a0820151816005015560c08201518160060190816116b191906148e7565b509050506001600a836040516116c791906149f5565b908152602001604051809103902060006101000a81548160ff0219169083151502179055505050565b6060600080604067ffffffffffffffff8111156117105761170f61382c565b5b6040519080825280601f01601f1916602001820160405280156117425781602001600182028036833780820191505090505b509050600091505b80518260ff16101561189c576000600f60f81b8560028561176b9190614a3b565b60ff166020811061177f5761177e614a6c565b5b1a60f81b1660f81c9050600060048660028661179b9190614a3b565b60ff16602081106117af576117ae614a6c565b5b1a60f81b7effffffffffffffffffffffffffffffffffffffffffffffffffffffffffffff1916901c60f81c90506117e5826118a6565b838560ff16815181106117fb576117fa614a6c565b5b60200101907effffffffffffffffffffffffffffffffffffffffffffffffffffffffffffff1916908160001a9053506001846118379190614a9b565b9350611842816118a6565b838560ff168151811061185857611857614a6c565b5b60200101907effffffffffffffffffffffffffffffffffffffffffffffffffffffffffffff1916908160001a9053505050818061189490614ad0565b92505061174a565b8092505050919050565b6000600a8260ff1610156118cb576030826118c19190614a9b565b60f81b90506118de565b6057826118d89190614a9b565b60f81b90505b919050565b60098180516020810182018051848252602083016020850120818352809550505050505060009150905080600001549080600101805461192290614693565b80601f016020809104026020016040519081016040528092919081815260200182805461194e90614693565b801561199b5780601f106119705761010080835404028352916020019161199b565b820191906000526020600020905b81548152906001019060200180831161197e57829003601f168201915b5050505050908060020180546119b090614693565b80601f01602080910402602001604051908101604052809291908181526020018280546119dc90614693565b8015611a295780601f106119fe57610100808354040283529160200191611a29565b820191906000526020600020905b815481529060010190602001808311611a0c57829003601f168201915b505050505090806003018054611a3e90614693565b80601f0160208091040260200160405190810160405280929190818152602001828054611a6a90614693565b8015611ab75780601f10611a8c57610100808354040283529160200191611ab7565b820191906000526020600020905b815481529060010190602001808311611a9a57829003601f168201915b505050505090806004018054611acc90614693565b80601f0160208091040260200160405190810160405280929190818152602001828054611af890614693565b8015611b455780601f10611b1a57610100808354040283529160200191611b45565b820191906000526020600020905b815481529060010190602001808311611b2857829003601f168201915b505050505090806005015490806006018054611b6090614693565b80601f0160208091040260200160405190810160405280929190818152602001828054611b8c90614693565b8015611bd95780601f10611bae57610100808354040283529160200191611bd9565b820191906000526020600020905b815481529060010190602001808311611bbc57829003601f168201915b5050505050905087565b60008282604051602001611bf8929190614b1a565b60405160208183030381529060405280519060200120905092915050565b60005b8151811015611f905760016000815480929190611c35906146f3565b91905055506000611c82838381518110611c5257611c51614a6c565b5b602002602001015160400151848481518110611c7157611c70614a6c565b5b602002602001015160a00151611be3565b9050611c8d816116f0565b60039081611c9b91906148e7565b506000604051806101400160405280600154815260200160038054611cbf90614693565b80601f0160208091040260200160405190810160405280929190818152602001828054611ceb90614693565b8015611d385780601f10611d0d57610100808354040283529160200191611d38565b820191906000526020600020905b815481529060010190602001808311611d1b57829003601f168201915b50505050508152602001858581518110611d5557611d54614a6c565b5b6020026020010151604001518152602001858581518110611d7957611d78614a6c565b5b6020026020010151606001518152602001858581518110611d9d57611d9c614a6c565b5b6020026020010151608001518152602001858581518110611dc157611dc0614a6c565b5b602002602001015160a001518152602001858581518110611de557611de4614a6c565b5b602002602001015160c001518152602001858581518110611e0957611e08614a6c565b5b602002602001015160e001518152602001858581518110611e2d57611e2c614a6c565b5b602002602001015161010001518152602001858581518110611e5257611e51614a6c565b5b60200260200101516101200151815250905080600560006001548152602001908152602001600020600082015181600001556020820151816001019081611e9991906148e7565b506040820151816002019081611eaf91906148e7565b506060820151816003019081611ec591906148e7565b506080820151816004019081611edb91906148e7565b5060a0820151816005015560c0820151816006019081611efb91906148e7565b5060e0820151816007019081611f1191906148e7565b50610100820151816008019081611f2891906148e7565b50610120820151816009019081611f3f91906148e7565b509050506001600a6003604051611f569190614bc5565b908152602001604051809103902060006101000a81548160ff02191690831515021790555050508080611f88906146f3565b915050611c19565b5050565b600a818051602081018201805184825260208301602085012081835280955050505050506000915054906101000a900460ff1681565b60005b815181101561232b57600080815480929190611fe8906146f3565b9190505550600061203683838151811061200557612004614a6c565b5b60200260200101516040015184848151811061202457612023614a6c565b5b60200260200101516101000151611be3565b9050612041816116f0565b6003908161204f91906148e7565b50600060405180610140016040528060005481526020016003805461207390614693565b80601f016020809104026020016040519081016040528092919081815260200182805461209f90614693565b80156120ec5780601f106120c1576101008083540402835291602001916120ec565b820191906000526020600020905b8154815290600101906020018083116120cf57829003601f168201915b5050505050815260200185858151811061210957612108614a6c565b5b602002602001015160400151815260200185858151811061212d5761212c614a6c565b5b602002602001015160600151815260200185858151811061215157612150614a6c565b5b602002602001015160800151815260200185858151811061217557612174614a6c565b5b602002602001015160a00151815260200185858151811061219957612198614a6c565b5b602002602001015160c0015181526020018585815181106121bd576121bc614a6c565b5b602002602001015160e0015181526020018585815181106121e1576121e0614a6c565b5b60200260200101516101000151815260200185858151811061220657612205614a6c565b5b60200260200101516101200151815250905080600460008054815260200190815260200160002060008201518160000155602082015181600101908161224c91906148e7565b50604082015181600201908161226291906148e7565b50606082015181600301908161227891906148e7565b50608082015181600401908161228e91906148e7565b5060a0820151816005015560c08201518160060190816122ae91906148e7565b5060e0820151816007015561010082015181600801556101208201518160090190816122da91906148e7565b509050506001600a60036040516122f19190614bc5565b908152602001604051809103902060006101000a81548160ff02191690831515021790555050508080612323906146f3565b915050611fcd565b5050565b6123376135bd565b60078260405161234791906149f5565b9081526020016040518091039020604051806101400160405290816000820154815260200160018201805461237b90614693565b80601f01602080910402602001604051908101604052809291908181526020018280546123a790614693565b80156123f45780601f106123c9576101008083540402835291602001916123f4565b820191906000526020600020905b8154815290600101906020018083116123d757829003601f168201915b5050505050815260200160028201805461240d90614693565b80601f016020809104026020016040519081016040528092919081815260200182805461243990614693565b80156124865780601f1061245b57610100808354040283529160200191612486565b820191906000526020600020905b81548152906001019060200180831161246957829003601f168201915b5050505050815260200160038201805461249f90614693565b80601f01602080910402602001604051908101604052809291908181526020018280546124cb90614693565b80156125185780601f106124ed57610100808354040283529160200191612518565b820191906000526020600020905b8154815290600101906020018083116124fb57829003601f168201915b5050505050815260200160048201805461253190614693565b80601f016020809104026020016040519081016040528092919081815260200182805461255d90614693565b80156125aa5780601f1061257f576101008083540402835291602001916125aa565b820191906000526020600020905b81548152906001019060200180831161258d57829003601f168201915b50505050508152602001600582015481526020016006820180546125cd90614693565b80601f01602080910402602001604051908101604052809291908181526020018280546125f990614693565b80156126465780601f1061261b57610100808354040283529160200191612646565b820191906000526020600020905b81548152906001019060200180831161262957829003601f168201915b50505050508152602001600782015481526020016008820154815260200160098201805461267390614693565b80601f016020809104026020016040519081016040528092919081815260200182805461269f90614693565b80156126ec5780601f106126c1576101008083540402835291602001916126ec565b820191906000526020600020905b8154815290600101906020018083116126cf57829003601f168201915b5050505050815250509050919050565b600660205280600052604060002060009150905080600001549080600101805461272590614693565b80601f016020809104026020016040519081016040528092919081815260200182805461275190614693565b801561279e5780601f106127735761010080835404028352916020019161279e565b820191906000526020600020905b81548152906001019060200180831161278157829003601f168201915b5050505050908060020180546127b390614693565b80601f01602080910402602001604051908101604052809291908181526020018280546127df90614693565b801561282c5780601f106128015761010080835404028352916020019161282c565b820191906000526020600020905b81548152906001019060200180831161280f57829003601f168201915b50505050509080600301805461284190614693565b80601f016020809104026020016040519081016040528092919081815260200182805461286d90614693565b80156128ba5780601f1061288f576101008083540402835291602001916128ba565b820191906000526020600020905b81548152906001019060200180831161289d57829003601f168201915b5050505050908060040180546128cf90614693565b80601f01602080910402602001604051908101604052809291908181526020018280546128fb90614693565b80156129485780601f1061291d57610100808354040283529160200191612948565b820191906000526020600020905b81548152906001019060200180831161292b57829003601f168201915b50505050509080600501549080600601805461296390614693565b80601f016020809104026020016040519081016040528092919081815260200182805461298f90614693565b80156129dc5780601f106129b1576101008083540402835291602001916129dc565b820191906000526020600020905b8154815290600101906020018083116129bf57829003601f168201915b5050505050905087565b600881805160208101820180518482526020830160208501208183528095505050505050600091509050806000015490806001018054612a2590614693565b80601f0160208091040260200160405190810160405280929190818152602001828054612a5190614693565b8015612a9e5780601f10612a7357610100808354040283529160200191612a9e565b820191906000526020600020905b815481529060010190602001808311612a8157829003601f168201915b505050505090806002018054612ab390614693565b80601f0160208091040260200160405190810160405280929190818152602001828054612adf90614693565b8015612b2c5780601f10612b0157610100808354040283529160200191612b2c565b820191906000526020600020905b815481529060010190602001808311612b0f57829003601f168201915b505050505090806003018054612b4190614693565b80601f0160208091040260200160405190810160405280929190818152602001828054612b6d90614693565b8015612bba5780601f10612b8f57610100808354040283529160200191612bba565b820191906000526020600020905b815481529060010190602001808311612b9d57829003601f168201915b505050505090806004018054612bcf90614693565b80601f0160208091040260200160405190810160405280929190818152602001828054612bfb90614693565b8015612c485780601f10612c1d57610100808354040283529160200191612c48565b820191906000526020600020905b815481529060010190602001808311612c2b57829003601f168201915b505050505090806005015490806006018054612c6390614693565b80601f0160208091040260200160405190810160405280929190818152602001828054612c8f90614693565b8015612cdc5780601f10612cb157610100808354040283529160200191612cdc565b820191906000526020600020905b815481529060010190602001808311612cbf57829003601f168201915b505050505090806007018054612cf190614693565b80601f0160208091040260200160405190810160405280929190818152602001828054612d1d90614693565b8015612d6a5780601f10612d3f57610100808354040283529160200191612d6a565b820191906000526020600020905b815481529060010190602001808311612d4d57829003601f168201915b505050505090806008018054612d7f90614693565b80601f0160208091040260200160405190810160405280929190818152602001828054612dab90614693565b8015612df85780601f10612dcd57610100808354040283529160200191612df8565b820191906000526020600020905b815481529060010190602001808311612ddb57829003601f168201915b505050505090806009018054612e0d90614693565b80601f0160208091040260200160405190810160405280929190818152602001828054612e3990614693565b8015612e865780601f10612e5b57610100808354040283529160200191612e86565b820191906000526020600020905b815481529060010190602001808311612e6957829003601f168201915b505050505090508a565b600080815480929190612ea2906146f3565b9190505550600060405180610140016040528060005481526020016040518060400160405280600381526020017f307830000000000000000000000000000000000000000000000000000000000081525081526020018a8152602001898152602001888152602001878152602001868152602001858152602001848152602001838152509050806004600080548152602001908152602001600020600082015181600001556020820151816001019081612f5c91906148e7565b506040820151816002019081612f7291906148e7565b506060820151816003019081612f8891906148e7565b506080820151816004019081612f9e91906148e7565b5060a0820151816005015560c0820151816006019081612fbe91906148e7565b5060e082015181600701556101008201518160080155610120820151816009019081612fea91906148e7565b509050506001600b600086815260200190815260200160002060006101000a81548160ff021916908315150217905550505050505050505050565b60006004600080548152602001908152602001600020604051806101400160405290816000820154815260200160018201805461306190614693565b80601f016020809104026020016040519081016040528092919081815260200182805461308d90614693565b80156130da5780601f106130af576101008083540402835291602001916130da565b820191906000526020600020905b8154815290600101906020018083116130bd57829003601f168201915b505050505081526020016002820180546130f390614693565b80601f016020809104026020016040519081016040528092919081815260200182805461311f90614693565b801561316c5780601f106131415761010080835404028352916020019161316c565b820191906000526020600020905b81548152906001019060200180831161314f57829003601f168201915b5050505050815260200160038201805461318590614693565b80601f01602080910402602001604051908101604052809291908181526020018280546131b190614693565b80156131fe5780601f106131d3576101008083540402835291602001916131fe565b820191906000526020600020905b8154815290600101906020018083116131e157829003601f168201915b5050505050815260200160048201805461321790614693565b80601f016020809104026020016040519081016040528092919081815260200182805461324390614693565b80156132905780601f1061326557610100808354040283529160200191613290565b820191906000526020600020905b81548152906001019060200180831161327357829003601f168201915b50505050508152602001600582015481526020016006820180546132b390614693565b80601f01602080910402602001604051908101604052809291908181526020018280546132df90614693565b801561332c5780601f106133015761010080835404028352916020019161332c565b820191906000526020600020905b81548152906001019060200180831161330f57829003601f168201915b50505050508152602001600782015481526020016008820154815260200160098201805461335990614693565b80601f016020809104026020016040519081016040528092919081815260200182805461338590614693565b80156133d25780601f106133a7576101008083540402835291602001916133d2565b820191906000526020600020905b8154815290600101906020018083116133b557829003601f168201915b505050505081525050905081816020018190525080600460008054815260200190815260200160002060008201518160000155602082015181600101908161341a91906148e7565b50604082015181600201908161343091906148e7565b50606082015181600301908161344691906148e7565b50608082015181600401908161345c91906148e7565b5060a0820151816005015560c082015181600601908161347c91906148e7565b5060e0820151816007015561010082015181600801556101208201518160090190816134a891906148e7565b50905050806007836040516134bd91906149f5565b90815260200160405180910390206000820151816000015560208201518160010190816134ea91906148e7565b50604082015181600201908161350091906148e7565b50606082015181600301908161351691906148e7565b50608082015181600401908161352c91906148e7565b5060a0820151816005015560c082015181600601908161354c91906148e7565b5060e08201518160070155610100820151816008015561012082015181600901908161357891906148e7565b509050506001600a8360405161358e91906149f5565b908152602001604051809103902060006101000a81548160ff0219169083151502179055505050565b60015481565b604051806101400160405280600081526020016060815260200160608152602001606081526020016060815260200160008152602001606081526020016000815260200160008152602001606081525090565b6000604051905090565b600080fd5b600080fd5b6000819050919050565b61363781613624565b811461364257600080fd5b50565b6000813590506136548161362e565b92915050565b6000602082840312156136705761366f61361a565b5b600061367e84828501613645565b91505092915050565b61369081613624565b82525050565b600081519050919050565b600082825260208201905092915050565b60005b838110156136d05780820151818401526020810190506136b5565b60008484015250505050565b6000601f19601f8301169050919050565b60006136f882613696565b61370281856136a1565b93506137128185602086016136b2565b61371b816136dc565b840191505092915050565b60006101408201905061373c600083018d613687565b818103602083015261374e818c6136ed565b90508181036040830152613762818b6136ed565b90508181036060830152613776818a6136ed565b9050818103608083015261378a81896136ed565b905061379960a0830188613687565b81810360c08301526137ab81876136ed565b90506137ba60e0830186613687565b6137c8610100830185613687565b8181036101208301526137db81846136ed565b90509b9a5050505050505050505050565b60008115159050919050565b613801816137ec565b82525050565b600060208201905061381c60008301846137f8565b92915050565b600080fd5b600080fd5b7f4e487b7100000000000000000000000000000000000000000000000000000000600052604160045260246000fd5b613864826136dc565b810181811067ffffffffffffffff821117156138835761388261382c565b5b80604052505050565b6000613896613610565b90506138a2828261385b565b919050565b600067ffffffffffffffff8211156138c2576138c161382c565b5b6138cb826136dc565b9050602081019050919050565b82818337600083830152505050565b60006138fa6138f5846138a7565b61388c565b90508281526020810184848401111561391657613915613827565b5b6139218482856138d8565b509392505050565b600082601f83011261393e5761393d613822565b5b813561394e8482602086016138e7565b91505092915050565b60006020828403121561396d5761396c61361a565b5b600082013567ffffffffffffffff81111561398b5761398a61361f565b5b61399784828501613929565b91505092915050565b60006020820190506139b56000830184613687565b92915050565b6000610140820190506139d1600083018d613687565b81810360208301526139e3818c6136ed565b905081810360408301526139f7818b6136ed565b90508181036060830152613a0b818a6136ed565b90508181036080830152613a1f81896136ed565b9050613a2e60a0830188613687565b81810360c0830152613a4081876136ed565b905081810360e0830152613a5481866136ed565b9050818103610100830152613a6981856136ed565b9050818103610120830152613a7e81846136ed565b90509b9a5050505050505050505050565b600080600080600060a08688031215613aab57613aaa61361a565b5b600086013567ffffffffffffffff811115613ac957613ac861361f565b5b613ad588828901613929565b955050602086013567ffffffffffffffff811115613af657613af561361f565b5b613b0288828901613929565b945050604086013567ffffffffffffffff811115613b2357613b2261361f565b5b613b2f88828901613929565b9350506060613b4088828901613645565b925050608086013567ffffffffffffffff811115613b6157613b6061361f565b5b613b6d88828901613929565b9150509295509295909350565b6000819050919050565b613b8d81613b7a565b8114613b9857600080fd5b50565b600081359050613baa81613b84565b92915050565b600060208284031215613bc657613bc561361a565b5b6000613bd484828501613b9b565b91505092915050565b60006020820190508181036000830152613bf781846136ed565b905092915050565b600060ff82169050919050565b613c1581613bff565b8114613c2057600080fd5b50565b600081359050613c3281613c0c565b92915050565b600060208284031215613c4e57613c4d61361a565b5b6000613c5c84828501613c23565b91505092915050565b60007fff0000000000000000000000000000000000000000000000000000000000000082169050919050565b613c9a81613c65565b82525050565b6000602082019050613cb56000830184613c91565b92915050565b600060e082019050613cd0600083018a613687565b8181036020830152613ce281896136ed565b90508181036040830152613cf681886136ed565b90508181036060830152613d0a81876136ed565b90508181036080830152613d1e81866136ed565b9050613d2d60a0830185613687565b81810360c0830152613d3f81846136ed565b905098975050505050505050565b60008060408385031215613d6457613d6361361a565b5b600083013567ffffffffffffffff811115613d8257613d8161361f565b5b613d8e85828601613929565b9250506020613d9f85828601613645565b9150509250929050565b613db281613b7a565b82525050565b6000602082019050613dcd6000830184613da9565b92915050565b600067ffffffffffffffff821115613dee57613ded61382c565b5b602082029050602081019050919050565b600080fd5b600080fd5b600080fd5b60006101408284031215613e2557613e24613e04565b5b613e3061014061388c565b90506000613e4084828501613645565b600083015250602082013567ffffffffffffffff811115613e6457613e63613e09565b5b613e7084828501613929565b602083015250604082013567ffffffffffffffff811115613e9457613e93613e09565b5b613ea084828501613929565b604083015250606082013567ffffffffffffffff811115613ec457613ec3613e09565b5b613ed084828501613929565b606083015250608082013567ffffffffffffffff811115613ef457613ef3613e09565b5b613f0084828501613929565b60808301525060a0613f1484828501613645565b60a08301525060c082013567ffffffffffffffff811115613f3857613f37613e09565b5b613f4484828501613929565b60c08301525060e082013567ffffffffffffffff811115613f6857613f67613e09565b5b613f7484828501613929565b60e08301525061010082013567ffffffffffffffff811115613f9957613f98613e09565b5b613fa584828501613929565b6101008301525061012082013567ffffffffffffffff811115613fcb57613fca613e09565b5b613fd784828501613929565b6101208301525092915050565b6000613ff7613ff284613dd3565b61388c565b9050808382526020820190506020840283018581111561401a57614019613dff565b5b835b8181101561406157803567ffffffffffffffff81111561403f5761403e613822565b5b80860161404c8982613e0e565b8552602085019450505060208101905061401c565b5050509392505050565b600082601f8301126140805761407f613822565b5b8135614090848260208601613fe4565b91505092915050565b6000602082840312156140af576140ae61361a565b5b600082013567ffffffffffffffff8111156140cd576140cc61361f565b5b6140d98482850161406b565b91505092915050565b600067ffffffffffffffff8211156140fd576140fc61382c565b5b602082029050602081019050919050565b6000610140828403121561412557614124613e04565b5b61413061014061388c565b9050600061414084828501613645565b600083015250602082013567ffffffffffffffff81111561416457614163613e09565b5b61417084828501613929565b602083015250604082013567ffffffffffffffff81111561419457614193613e09565b5b6141a084828501613929565b604083015250606082013567ffffffffffffffff8111156141c4576141c3613e09565b5b6141d084828501613929565b606083015250608082013567ffffffffffffffff8111156141f4576141f3613e09565b5b61420084828501613929565b60808301525060a061421484828501613645565b60a08301525060c082013567ffffffffffffffff81111561423857614237613e09565b5b61424484828501613929565b60c08301525060e061425884828501613645565b60e08301525061010061426d84828501613645565b6101008301525061012082013567ffffffffffffffff81111561429357614292613e09565b5b61429f84828501613929565b6101208301525092915050565b60006142bf6142ba846140e2565b61388c565b905080838252602082019050602084028301858111156142e2576142e1613dff565b5b835b8181101561432957803567ffffffffffffffff81111561430757614306613822565b5b808601614314898261410e565b855260208501945050506020810190506142e4565b5050509392505050565b600082601f83011261434857614347613822565b5b81356143588482602086016142ac565b91505092915050565b6000602082840312156143775761437661361a565b5b600082013567ffffffffffffffff8111156143955761439461361f565b5b6143a184828501614333565b91505092915050565b6143b381613624565b82525050565b600082825260208201905092915050565b60006143d582613696565b6143df81856143b9565b93506143ef8185602086016136b2565b6143f8816136dc565b840191505092915050565b60006101408301600083015161441c60008601826143aa565b506020830151848203602086015261443482826143ca565b9150506040830151848203604086015261444e82826143ca565b9150506060830151848203606086015261446882826143ca565b9150506080830151848203608086015261448282826143ca565b91505060a083015161449760a08601826143aa565b5060c083015184820360c08601526144af82826143ca565b91505060e08301516144c460e08601826143aa565b506101008301516144d96101008601826143aa565b506101208301518482036101208601526144f382826143ca565b9150508091505092915050565b6000602082019050818103600083015261451a8184614403565b905092915050565b600080600080600080600080610100898b0312156145435761454261361a565b5b600089013567ffffffffffffffff8111156145615761456061361f565b5b61456d8b828c01613929565b985050602089013567ffffffffffffffff81111561458e5761458d61361f565b5b61459a8b828c01613929565b975050604089013567ffffffffffffffff8111156145bb576145ba61361f565b5b6145c78b828c01613929565b96505060606145d88b828c01613645565b955050608089013567ffffffffffffffff8111156145f9576145f861361f565b5b6146058b828c01613929565b94505060a06146168b828c01613645565b93505060c06146278b828c01613645565b92505060e089013567ffffffffffffffff8111156146485761464761361f565b5b6146548b828c01613929565b9150509295985092959890939650565b7f4e487b7100000000000000000000000000000000000000000000000000000000600052602260045260246000fd5b600060028204905060018216806146ab57607f821691505b6020821081036146be576146bd614664565b5b50919050565b7f4e487b7100000000000000000000000000000000000000000000000000000000600052601160045260246000fd5b60006146fe82613624565b91507fffffffffffffffffffffffffffffffffffffffffffffffffffffffffffffffff82036147305761472f6146c4565b5b600182019050919050565b60008190508160005260206000209050919050565b60006020601f8301049050919050565b600082821b905092915050565b60006008830261479d7fffffffffffffffffffffffffffffffffffffffffffffffffffffffffffffffff82614760565b6147a78683614760565b95508019841693508086168417925050509392505050565b6000819050919050565b60006147e46147df6147da84613624565b6147bf565b613624565b9050919050565b6000819050919050565b6147fe836147c9565b61481261480a826147eb565b84845461476d565b825550505050565b600090565b61482761481a565b6148328184846147f5565b505050565b5b818110156148565761484b60008261481f565b600181019050614838565b5050565b601f82111561489b5761486c8161473b565b61487584614750565b81016020851015614884578190505b61489861489085614750565b830182614837565b50505b505050565b600082821c905092915050565b60006148be600019846008026148a0565b1980831691505092915050565b60006148d783836148ad565b9150826002028217905092915050565b6148f082613696565b67ffffffffffffffff8111156149095761490861382c565b5b6149138254614693565b61491e82828561485a565b600060209050601f831160018114614951576000841561493f578287015190505b61494985826148cb565b8655506149b1565b601f19841661495f8661473b565b60005b8281101561498757848901518255600182019150602085019450602081019050614962565b868310156149a457848901516149a0601f8916826148ad565b8355505b6001600288020188555050505b505050505050565b600081905092915050565b60006149cf82613696565b6149d981856149b9565b93506149e98185602086016136b2565b80840191505092915050565b6000614a0182846149c4565b915081905092915050565b7f4e487b7100000000000000000000000000000000000000000000000000000000600052601260045260246000fd5b6000614a4682613bff565b9150614a5183613bff565b925082614a6157614a60614a0c565b5b828204905092915050565b7f4e487b7100000000000000000000000000000000000000000000000000000000600052603260045260246000fd5b6000614aa682613bff565b9150614ab183613bff565b9250828201905060ff811115614aca57614ac96146c4565b5b92915050565b6000614adb82613bff565b915060ff8203614aee57614aed6146c4565b5b600182019050919050565b6000819050919050565b614b14614b0f82613624565b614af9565b82525050565b6000614b2682856149c4565b9150614b328284614b03565b6020820191508190509392505050565b60008154614b4f81614693565b614b5981866149b9565b94506001821660008114614b745760018114614b8957614bbc565b60ff1983168652811515820286019350614bbc565b614b928561473b565b60005b83811015614bb457815481890152600182019150602081019050614b95565b838801955050505b50505092915050565b6000614bd18284614b42565b91508190509291505056fea2646970667358221220d33143885e98c33235825dd96a729af9c2a36674d86c99b9900072859bb6aa9964736f6c63430008110033",
  "linkReferences": {},
  "deployedLinkReferences": {}
}