{
  "_format": "hh-sol-artifact-1",
  "contractName": "Ecertify",
  "sourceName": "contracts/Ecertify.sol",
  "abi": [
    {
      "inputs": [
        {
          "internalType": "string",
          "name": "_name",
          "type": "string"
        },
        {
          "internalType": "string",
          "name": "_course",
          "type": "string"
        },
        {
          "internalType": "string",
          "name": "_email",
          "type": "string"
        },
        {
          "internalType": "uint256",
          "name": "_passoutYear",
          "type": "uint256"
        },
        {
          "internalType": "string",
          "name": "_percentage",
          "type": "string"
        },
        {
          "internalType": "uint256",
          "name": "_SAP",
          "type": "uint256"
        },
        {
          "internalType": "uint256",
          "name": "_phone",
          "type": "uint256"
        },
        {
          "internalType": "string",
          "name": "_issueDate",
          "type": "string"
        }
      ],
      "name": "addCertificate",
      "outputs": [],
      "stateMutability": "nonpayable",
      "type": "function"
    },
    {
      "inputs": [
        {
          "components": [
            {
              "internalType": "uint256",
              "name": "certid",
              "type": "uint256"
            },
            {
              "internalType": "string",
              "name": "transactionHash",
              "type": "string"
            },
            {
              "internalType": "string",
              "name": "name",
              "type": "string"
            },
            {
              "internalType": "string",
              "name": "email",
              "type": "string"
            },
            {
              "internalType": "string",
              "name": "domain",
              "type": "string"
            },
            {
              "internalType": "uint256",
              "name": "contact",
              "type": "uint256"
            },
            {
              "internalType": "string",
              "name": "eventName",
              "type": "string"
            },
            {
              "internalType": "string",
              "name": "eventType",
              "type": "string"
            },
            {
              "internalType": "string",
              "name": "eventDate",
              "type": "string"
            },
            {
              "internalType": "string",
              "name": "issueDate",
              "type": "string"
            }
          ],
          "internalType": "struct Ecertify.EventCertificate[]",
          "name": "b",
          "type": "tuple[]"
        }
      ],
      "name": "addEventInBulk",
      "outputs": [],
      "stateMutability": "nonpayable",
      "type": "function"
    },
    {
      "inputs": [
        {
          "internalType": "string",
          "name": "_name",
          "type": "string"
        },
        {
          "internalType": "string",
          "name": "_course",
          "type": "string"
        },
        {
          "internalType": "string",
          "name": "_email",
          "type": "string"
        },
        {
          "internalType": "uint256",
          "name": "_SAP",
          "type": "uint256"
        },
        {
          "internalType": "string",
          "name": "_reason",
          "type": "string"
        },
        {
          "internalType": "string",
          "name": "_type",
          "type": "string"
        }
      ],
      "name": "addExtraCertificate",
      "outputs": [],
      "stateMutability": "nonpayable",
      "type": "function"
    },
    {
      "inputs": [
        {
          "components": [
            {
              "internalType": "uint256",
              "name": "certid",
              "type": "uint256"
            },
            {
              "internalType": "string",
              "name": "transactionHash",
              "type": "string"
            },
            {
              "internalType": "string",
              "name": "name",
              "type": "string"
            },
            {
              "internalType": "string",
              "name": "course",
              "type": "string"
            },
            {
              "internalType": "string",
              "name": "email",
              "type": "string"
            },
            {
              "internalType": "uint256",
              "name": "passoutYear",
              "type": "uint256"
            },
            {
              "internalType": "string",
              "name": "percentage",
              "type": "string"
            },
            {
              "internalType": "uint256",
              "name": "SAP",
              "type": "uint256"
            },
            {
              "internalType": "uint256",
              "name": "contact",
              "type": "uint256"
            },
            {
              "internalType": "string",
              "name": "issueDate",
              "type": "string"
            }
          ],
          "internalType": "struct Ecertify.Certificate[]",
          "name": "b",
          "type": "tuple[]"
        }
      ],
      "name": "addInBulk",
      "outputs": [],
      "stateMutability": "nonpayable",
      "type": "function"
    },
    {
      "inputs": [
        {
          "internalType": "uint256",
          "name": "",
          "type": "uint256"
        }
      ],
      "name": "allCertificates",
      "outputs": [
        {
          "internalType": "uint256",
          "name": "certid",
          "type": "uint256"
        },
        {
          "internalType": "string",
          "name": "transactionHash",
          "type": "string"
        },
        {
          "internalType": "string",
          "name": "name",
          "type": "string"
        },
        {
          "internalType": "string",
          "name": "course",
          "type": "string"
        },
        {
          "internalType": "string",
          "name": "email",
          "type": "string"
        },
        {
          "internalType": "uint256",
          "name": "passoutYear",
          "type": "uint256"
        },
        {
          "internalType": "string",
          "name": "percentage",
          "type": "string"
        },
        {
          "internalType": "uint256",
          "name": "SAP",
          "type": "uint256"
        },
        {
          "internalType": "uint256",
          "name": "contact",
          "type": "uint256"
        },
        {
          "internalType": "string",
          "name": "issueDate",
          "type": "string"
        }
      ],
      "stateMutability": "view",
      "type": "function"
    },
    {
      "inputs": [
        {
          "internalType": "uint256",
          "name": "",
          "type": "uint256"
        }
      ],
      "name": "allEventCertificates",
      "outputs": [
        {
          "internalType": "uint256",
          "name": "certid",
          "type": "uint256"
        },
        {
          "internalType": "string",
          "name": "transactionHash",
          "type": "string"
        },
        {
          "internalType": "string",
          "name": "name",
          "type": "string"
        },
        {
          "internalType": "string",
          "name": "email",
          "type": "string"
        },
        {
          "internalType": "string",
          "name": "domain",
          "type": "string"
        },
        {
          "internalType": "uint256",
          "name": "contact",
          "type": "uint256"
        },
        {
          "internalType": "string",
          "name": "eventName",
          "type": "string"
        },
        {
          "internalType": "string",
          "name": "eventType",
          "type": "string"
        },
        {
          "internalType": "string",
          "name": "eventDate",
          "type": "string"
        },
        {
          "internalType": "string",
          "name": "issueDate",
          "type": "string"
        }
      ],
      "stateMutability": "view",
      "type": "function"
    },
    {
      "inputs": [
        {
          "internalType": "uint256",
          "name": "",
          "type": "uint256"
        }
      ],
      "name": "allExtraCertificates",
      "outputs": [
        {
          "internalType": "uint256",
          "name": "certid",
          "type": "uint256"
        },
        {
          "internalType": "string",
          "name": "transactionHash",
          "type": "string"
        },
        {
          "internalType": "string",
          "name": "name",
          "type": "string"
        },
        {
          "internalType": "string",
          "name": "course",
          "type": "string"
        },
        {
          "internalType": "string",
          "name": "email",
          "type": "string"
        },
        {
          "internalType": "uint256",
          "name": "SAP",
          "type": "uint256"
        },
        {
          "internalType": "string",
          "name": "reason",
          "type": "string"
        },
        {
          "internalType": "string",
          "name": "certType",
          "type": "string"
        }
      ],
      "stateMutability": "view",
      "type": "function"
    },
    {
      "inputs": [
        {
          "internalType": "string",
          "name": "",
          "type": "string"
        }
      ],
      "name": "allhashedCertificates",
      "outputs": [
        {
          "internalType": "uint256",
          "name": "certid",
          "type": "uint256"
        },
        {
          "internalType": "string",
          "name": "transactionHash",
          "type": "string"
        },
        {
          "internalType": "string",
          "name": "name",
          "type": "string"
        },
        {
          "internalType": "string",
          "name": "course",
          "type": "string"
        },
        {
          "internalType": "string",
          "name": "email",
          "type": "string"
        },
        {
          "internalType": "uint256",
          "name": "passoutYear",
          "type": "uint256"
        },
        {
          "internalType": "string",
          "name": "percentage",
          "type": "string"
        },
        {
          "internalType": "uint256",
          "name": "SAP",
          "type": "uint256"
        },
        {
          "internalType": "uint256",
          "name": "contact",
          "type": "uint256"
        },
        {
          "internalType": "string",
          "name": "issueDate",
          "type": "string"
        }
      ],
      "stateMutability": "view",
      "type": "function"
    },
    {
      "inputs": [
        {
          "internalType": "string",
          "name": "",
          "type": "string"
        }
      ],
      "name": "allhashedEventCertificates",
      "outputs": [
        {
          "internalType": "uint256",
          "name": "certid",
          "type": "uint256"
        },
        {
          "internalType": "string",
          "name": "transactionHash",
          "type": "string"
        },
        {
          "internalType": "string",
          "name": "name",
          "type": "string"
        },
        {
          "internalType": "string",
          "name": "email",
          "type": "string"
        },
        {
          "internalType": "string",
          "name": "domain",
          "type": "string"
        },
        {
          "internalType": "uint256",
          "name": "contact",
          "type": "uint256"
        },
        {
          "internalType": "string",
          "name": "eventName",
          "type": "string"
        },
        {
          "internalType": "string",
          "name": "eventType",
          "type": "string"
        },
        {
          "internalType": "string",
          "name": "eventDate",
          "type": "string"
        },
        {
          "internalType": "string",
          "name": "issueDate",
          "type": "string"
        }
      ],
      "stateMutability": "view",
      "type": "function"
    },
    {
      "inputs": [
        {
          "internalType": "string",
          "name": "",
          "type": "string"
        }
      ],
      "name": "allhashedExtraCertificates",
      "outputs": [
        {
          "internalType": "uint256",
          "name": "certid",
          "type": "uint256"
        },
        {
          "internalType": "string",
          "name": "transactionHash",
          "type": "string"
        },
        {
          "internalType": "string",
          "name": "name",
          "type": "string"
        },
        {
          "internalType": "string",
          "name": "course",
          "type": "string"
        },
        {
          "internalType": "string",
          "name": "email",
          "type": "string"
        },
        {
          "internalType": "uint256",
          "name": "SAP",
          "type": "uint256"
        },
        {
          "internalType": "string",
          "name": "reason",
          "type": "string"
        },
        {
          "internalType": "string",
          "name": "certType",
          "type": "string"
        }
      ],
      "stateMutability": "view",
      "type": "function"
    },
    {
      "inputs": [
        {
          "internalType": "bytes32",
          "name": "_bytes32",
          "type": "bytes32"
        }
      ],
      "name": "bytes32ToString",
      "outputs": [
        {
          "internalType": "string",
          "name": "",
          "type": "string"
        }
      ],
      "stateMutability": "pure",
      "type": "function"
    },
    {
      "inputs": [
        {
          "internalType": "string",
          "name": "",
          "type": "string"
        }
      ],
      "name": "certficateHashExist",
      "outputs": [
        {
          "internalType": "bool",
          "name": "",
          "type": "bool"
        }
      ],
      "stateMutability": "view",
      "type": "function"
    },
    {
      "inputs": [],
      "name": "certificateCounter",
      "outputs": [
        {
          "internalType": "uint256",
          "name": "",
          "type": "uint256"
        }
      ],
      "stateMutability": "view",
      "type": "function"
    },
    {
      "inputs": [],
      "name": "eventCertificateCounter",
      "outputs": [
        {
          "internalType": "uint256",
          "name": "",
          "type": "uint256"
        }
      ],
      "stateMutability": "view",
      "type": "function"
    },
    {
      "inputs": [],
      "name": "extracertificateCounter",
      "outputs": [
        {
          "internalType": "uint256",
          "name": "",
          "type": "uint256"
        }
      ],
      "stateMutability": "view",
      "type": "function"
    },
    {
      "inputs": [
        {
          "internalType": "string",
          "name": "userAddress",
          "type": "string"
        }
      ],
      "name": "getValueAtMapping",
      "outputs": [
        {
          "components": [
            {
              "internalType": "uint256",
              "name": "certid",
              "type": "uint256"
            },
            {
              "internalType": "string",
              "name": "transactionHash",
              "type": "string"
            },
            {
              "internalType": "string",
              "name": "name",
              "type": "string"
            },
            {
              "internalType": "string",
              "name": "course",
              "type": "string"
            },
            {
              "internalType": "string",
              "name": "email",
              "type": "string"
            },
            {
              "internalType": "uint256",
              "name": "passoutYear",
              "type": "uint256"
            },
            {
              "internalType": "string",
              "name": "percentage",
              "type": "string"
            },
            {
              "internalType": "uint256",
              "name": "SAP",
              "type": "uint256"
            },
            {
              "internalType": "uint256",
              "name": "contact",
              "type": "uint256"
            },
            {
              "internalType": "string",
              "name": "issueDate",
              "type": "string"
            }
          ],
          "internalType": "struct Ecertify.Certificate",
          "name": "",
          "type": "tuple"
        }
      ],
      "stateMutability": "view",
      "type": "function"
    },
    {
      "inputs": [
        {
          "internalType": "string",
          "name": "_string",
          "type": "string"
        },
        {
          "internalType": "uint256",
          "name": "_contact",
          "type": "uint256"
        }
      ],
      "name": "hash",
      "outputs": [
        {
          "internalType": "bytes32",
          "name": "",
          "type": "bytes32"
        }
      ],
      "stateMutability": "pure",
      "type": "function"
    },
    {
      "inputs": [
        {
          "internalType": "uint256",
          "name": "",
          "type": "uint256"
        }
      ],
      "name": "sapIdExist",
      "outputs": [
        {
          "internalType": "bool",
          "name": "",
          "type": "bool"
        }
      ],
      "stateMutability": "view",
      "type": "function"
    },
    {
      "inputs": [
        {
          "internalType": "uint8",
          "name": "_uint8",
          "type": "uint8"
        }
      ],
      "name": "toByte",
      "outputs": [
        {
          "internalType": "bytes1",
          "name": "",
          "type": "bytes1"
        }
      ],
      "stateMutability": "pure",
      "type": "function"
    },
    {
      "inputs": [
        {
          "internalType": "string",
          "name": "_transactionHash",
          "type": "string"
        }
      ],
      "name": "updateExtraTransaction",
      "outputs": [],
      "stateMutability": "nonpayable",
      "type": "function"
    },
    {
      "inputs": [
        {
          "internalType": "string",
          "name": "_transactionHash",
          "type": "string"
        }
      ],
      "name": "updateTransaction",
      "outputs": [],
      "stateMutability": "nonpayable",
      "type": "function"
    }
  ],
  "bytecode": "0x608060405234801561001057600080fd5b50614e51806100206000396000f3fe608060405234801561001057600080fd5b50600436106101375760003560e01c8063b1fc3f92116100b8578063dbdd28cf1161007c578063dbdd28cf146103ba578063de3d6411146103ea578063dfcaf60d14610421578063e9a80da71461045a578063f31125cf14610476578063fbfb8ce21461049257610137565b8063b1fc3f92146102eb578063be25270f14610322578063c65c94c714610352578063d3a3f0821461036e578063da4039df1461039e57610137565b80632a10cec4116100ff5780632a10cec41461023557806367764b26146102515780637f0740441461026f5780639201de551461028b578063a86b73f0146102bb57610137565b8063053c8e251461013c57806312e25330146101755780631e830c3f146101a55780631f0be590146101de57806329ee2559146101fc575b600080fd5b61015660048036038101906101519190613855565b6104b0565b60405161016c9a99989796959493929190613921565b60405180910390f35b61018f600480360381019061018a9190613855565b610834565b60405161019c9190613a02565b60405180910390f35b6101bf60048036038101906101ba9190613b52565b610854565b6040516101d59a99989796959493929190613921565b60405180910390f35b6101e6610bee565b6040516101f39190613b9b565b60405180910390f35b61021660048036038101906102119190613855565b610bf4565b60405161022c9a99989796959493929190613bb6565b60405180910390f35b61024f600480360381019061024a9190613c8a565b611088565b005b610259611277565b6040516102669190613b9b565b60405180910390f35b61028960048036038101906102849190613b52565b61127d565b005b6102a560048036038101906102a09190613dd9565b6117cf565b6040516102b29190613e06565b60405180910390f35b6102d560048036038101906102d09190613e61565b611985565b6040516102e29190613ec9565b60405180910390f35b61030560048036038101906103009190613b52565b6119c2565b604051610319989796959493929190613ee4565b60405180910390f35b61033c60048036038101906103379190613f8c565b611d50565b6040516103499190613ff7565b60405180910390f35b61036c600480360381019061036791906142d8565b611d83565b005b61038860048036038101906103839190613b52565b612101565b6040516103959190613a02565b60405180910390f35b6103b860048036038101906103b391906145a0565b612137565b005b6103d460048036038101906103cf9190613b52565b61249c565b6040516103e1919061473f565b60405180910390f35b61040460048036038101906103ff9190613855565b612869565b604051610418989796959493929190613ee4565b60405180910390f35b61043b60048036038101906104369190613b52565b612be1565b6040516104519a99989796959493929190613bb6565b60405180910390f35b610474600480360381019061046f9190614761565b61308b565b005b610490600480360381019061048b9190613b52565b613220565b005b61049a6137b2565b6040516104a79190613b9b565b60405180910390f35b60046020528060005260406000206000915090508060000154908060010180546104d9906148d2565b80601f0160208091040260200160405190810160405280929190818152602001828054610505906148d2565b80156105525780601f1061052757610100808354040283529160200191610552565b820191906000526020600020905b81548152906001019060200180831161053557829003601f168201915b505050505090806002018054610567906148d2565b80601f0160208091040260200160405190810160405280929190818152602001828054610593906148d2565b80156105e05780601f106105b5576101008083540402835291602001916105e0565b820191906000526020600020905b8154815290600101906020018083116105c357829003601f168201915b5050505050908060030180546105f5906148d2565b80601f0160208091040260200160405190810160405280929190818152602001828054610621906148d2565b801561066e5780601f106106435761010080835404028352916020019161066e565b820191906000526020600020905b81548152906001019060200180831161065157829003601f168201915b505050505090806004018054610683906148d2565b80601f01602080910402602001604051908101604052809291908181526020018280546106af906148d2565b80156106fc5780601f106106d1576101008083540402835291602001916106fc565b820191906000526020600020905b8154815290600101906020018083116106df57829003601f168201915b505050505090806005015490806006018054610717906148d2565b80601f0160208091040260200160405190810160405280929190818152602001828054610743906148d2565b80156107905780601f1061076557610100808354040283529160200191610790565b820191906000526020600020905b81548152906001019060200180831161077357829003601f168201915b5050505050908060070154908060080154908060090180546107b1906148d2565b80601f01602080910402602001604051908101604052809291908181526020018280546107dd906148d2565b801561082a5780601f106107ff5761010080835404028352916020019161082a565b820191906000526020600020905b81548152906001019060200180831161080d57829003601f168201915b505050505090508a565b600b6020528060005260406000206000915054906101000a900460ff1681565b600781805160208101820180518482526020830160208501208183528095505050505050600091509050806000015490806001018054610893906148d2565b80601f01602080910402602001604051908101604052809291908181526020018280546108bf906148d2565b801561090c5780601f106108e15761010080835404028352916020019161090c565b820191906000526020600020905b8154815290600101906020018083116108ef57829003601f168201915b505050505090806002018054610921906148d2565b80601f016020809104026020016040519081016040528092919081815260200182805461094d906148d2565b801561099a5780601f1061096f5761010080835404028352916020019161099a565b820191906000526020600020905b81548152906001019060200180831161097d57829003601f168201915b5050505050908060030180546109af906148d2565b80601f01602080910402602001604051908101604052809291908181526020018280546109db906148d2565b8015610a285780601f106109fd57610100808354040283529160200191610a28565b820191906000526020600020905b815481529060010190602001808311610a0b57829003601f168201915b505050505090806004018054610a3d906148d2565b80601f0160208091040260200160405190810160405280929190818152602001828054610a69906148d2565b8015610ab65780601f10610a8b57610100808354040283529160200191610ab6565b820191906000526020600020905b815481529060010190602001808311610a9957829003601f168201915b505050505090806005015490806006018054610ad1906148d2565b80601f0160208091040260200160405190810160405280929190818152602001828054610afd906148d2565b8015610b4a5780601f10610b1f57610100808354040283529160200191610b4a565b820191906000526020600020905b815481529060010190602001808311610b2d57829003601f168201915b505050505090806007015490806008015490806009018054610b6b906148d2565b80601f0160208091040260200160405190810160405280929190818152602001828054610b97906148d2565b8015610be45780601f10610bb957610100808354040283529160200191610be4565b820191906000526020600020905b815481529060010190602001808311610bc757829003601f168201915b505050505090508a565b60025481565b6005602052806000526040600020600091509050806000015490806001018054610c1d906148d2565b80601f0160208091040260200160405190810160405280929190818152602001828054610c49906148d2565b8015610c965780601f10610c6b57610100808354040283529160200191610c96565b820191906000526020600020905b815481529060010190602001808311610c7957829003601f168201915b505050505090806002018054610cab906148d2565b80601f0160208091040260200160405190810160405280929190818152602001828054610cd7906148d2565b8015610d245780601f10610cf957610100808354040283529160200191610d24565b820191906000526020600020905b815481529060010190602001808311610d0757829003601f168201915b505050505090806003018054610d39906148d2565b80601f0160208091040260200160405190810160405280929190818152602001828054610d65906148d2565b8015610db25780601f10610d8757610100808354040283529160200191610db2565b820191906000526020600020905b815481529060010190602001808311610d9557829003601f168201915b505050505090806004018054610dc7906148d2565b80601f0160208091040260200160405190810160405280929190818152602001828054610df3906148d2565b8015610e405780601f10610e1557610100808354040283529160200191610e40565b820191906000526020600020905b815481529060010190602001808311610e2357829003601f168201915b505050505090806005015490806006018054610e5b906148d2565b80601f0160208091040260200160405190810160405280929190818152602001828054610e87906148d2565b8015610ed45780601f10610ea957610100808354040283529160200191610ed4565b820191906000526020600020905b815481529060010190602001808311610eb757829003601f168201915b505050505090806007018054610ee9906148d2565b80601f0160208091040260200160405190810160405280929190818152602001828054610f15906148d2565b8015610f625780601f10610f3757610100808354040283529160200191610f62565b820191906000526020600020905b815481529060010190602001808311610f4557829003601f168201915b505050505090806008018054610f77906148d2565b80601f0160208091040260200160405190810160405280929190818152602001828054610fa3906148d2565b8015610ff05780601f10610fc557610100808354040283529160200191610ff0565b820191906000526020600020905b815481529060010190602001808311610fd357829003601f168201915b505050505090806009018054611005906148d2565b80601f0160208091040260200160405190810160405280929190818152602001828054611031906148d2565b801561107e5780601f106110535761010080835404028352916020019161107e565b820191906000526020600020905b81548152906001019060200180831161106157829003601f168201915b505050505090508a565b6002600081548092919061109b90614932565b919050555060006110ac8785611d50565b90506110b7816117cf565b600390816110c59190614b26565b5060006040518061010001604052806002548152602001600380546110e9906148d2565b80601f0160208091040260200160405190810160405280929190818152602001828054611115906148d2565b80156111625780601f1061113757610100808354040283529160200191611162565b820191906000526020600020905b81548152906001019060200180831161114557829003601f168201915b50505050508152602001898152602001888152602001878152602001868152602001858152602001848152509050806006600060025481526020019081526020016000206000820151816000015560208201518160010190816111c59190614b26565b5060408201518160020190816111db9190614b26565b5060608201518160030190816111f19190614b26565b5060808201518160040190816112079190614b26565b5060a0820151816005015560c08201518160060190816112279190614b26565b5060e082015181600701908161123d9190614b26565b509050506001600b600087815260200190815260200160002060006101000a81548160ff0219169083151502179055505050505050505050565b60005481565b6000600660008054815260200190815260200160002060405180610100016040529081600082015481526020016001820180546112b9906148d2565b80601f01602080910402602001604051908101604052809291908181526020018280546112e5906148d2565b80156113325780601f1061130757610100808354040283529160200191611332565b820191906000526020600020905b81548152906001019060200180831161131557829003601f168201915b5050505050815260200160028201805461134b906148d2565b80601f0160208091040260200160405190810160405280929190818152602001828054611377906148d2565b80156113c45780601f10611399576101008083540402835291602001916113c4565b820191906000526020600020905b8154815290600101906020018083116113a757829003601f168201915b505050505081526020016003820180546113dd906148d2565b80601f0160208091040260200160405190810160405280929190818152602001828054611409906148d2565b80156114565780601f1061142b57610100808354040283529160200191611456565b820191906000526020600020905b81548152906001019060200180831161143957829003601f168201915b5050505050815260200160048201805461146f906148d2565b80601f016020809104026020016040519081016040528092919081815260200182805461149b906148d2565b80156114e85780601f106114bd576101008083540402835291602001916114e8565b820191906000526020600020905b8154815290600101906020018083116114cb57829003601f168201915b505050505081526020016005820154815260200160068201805461150b906148d2565b80601f0160208091040260200160405190810160405280929190818152602001828054611537906148d2565b80156115845780601f1061155957610100808354040283529160200191611584565b820191906000526020600020905b81548152906001019060200180831161156757829003601f168201915b5050505050815260200160078201805461159d906148d2565b80601f01602080910402602001604051908101604052809291908181526020018280546115c9906148d2565b80156116165780601f106115eb57610100808354040283529160200191611616565b820191906000526020600020905b8154815290600101906020018083116115f957829003601f168201915b505050505081525050905081816020018190525080600660008054815260200190815260200160002060008201518160000155602082015181600101908161165e9190614b26565b5060408201518160020190816116749190614b26565b50606082015181600301908161168a9190614b26565b5060808201518160040190816116a09190614b26565b5060a0820151816005015560c08201518160060190816116c09190614b26565b5060e08201518160070190816116d69190614b26565b50905050806009836040516116eb9190614c34565b90815260200160405180910390206000820151816000015560208201518160010190816117189190614b26565b50604082015181600201908161172e9190614b26565b5060608201518160030190816117449190614b26565b50608082015181600401908161175a9190614b26565b5060a0820151816005015560c082015181600601908161177a9190614b26565b5060e08201518160070190816117909190614b26565b509050506001600a836040516117a69190614c34565b908152602001604051809103902060006101000a81548160ff0219169083151502179055505050565b6060600080604067ffffffffffffffff8111156117ef576117ee613a27565b5b6040519080825280601f01601f1916602001820160405280156118215781602001600182028036833780820191505090505b509050600091505b80518260ff16101561197b576000600f60f81b8560028561184a9190614c7a565b60ff166020811061185e5761185d614cab565b5b1a60f81b1660f81c9050600060048660028661187a9190614c7a565b60ff166020811061188e5761188d614cab565b5b1a60f81b7effffffffffffffffffffffffffffffffffffffffffffffffffffffffffffff1916901c60f81c90506118c482611985565b838560ff16815181106118da576118d9614cab565b5b60200101907effffffffffffffffffffffffffffffffffffffffffffffffffffffffffffff1916908160001a9053506001846119169190614cda565b935061192181611985565b838560ff168151811061193757611936614cab565b5b60200101907effffffffffffffffffffffffffffffffffffffffffffffffffffffffffffff1916908160001a9053505050818061197390614d0f565b925050611829565b8092505050919050565b6000600a8260ff1610156119aa576030826119a09190614cda565b60f81b90506119bd565b6057826119b79190614cda565b60f81b90505b919050565b600981805160208101820180518482526020830160208501208183528095505050505050600091509050806000015490806001018054611a01906148d2565b80601f0160208091040260200160405190810160405280929190818152602001828054611a2d906148d2565b8015611a7a5780601f10611a4f57610100808354040283529160200191611a7a565b820191906000526020600020905b815481529060010190602001808311611a5d57829003601f168201915b505050505090806002018054611a8f906148d2565b80601f0160208091040260200160405190810160405280929190818152602001828054611abb906148d2565b8015611b085780601f10611add57610100808354040283529160200191611b08565b820191906000526020600020905b815481529060010190602001808311611aeb57829003601f168201915b505050505090806003018054611b1d906148d2565b80601f0160208091040260200160405190810160405280929190818152602001828054611b49906148d2565b8015611b965780601f10611b6b57610100808354040283529160200191611b96565b820191906000526020600020905b815481529060010190602001808311611b7957829003601f168201915b505050505090806004018054611bab906148d2565b80601f0160208091040260200160405190810160405280929190818152602001828054611bd7906148d2565b8015611c245780601f10611bf957610100808354040283529160200191611c24565b820191906000526020600020905b815481529060010190602001808311611c0757829003601f168201915b505050505090806005015490806006018054611c3f906148d2565b80601f0160208091040260200160405190810160405280929190818152602001828054611c6b906148d2565b8015611cb85780601f10611c8d57610100808354040283529160200191611cb8565b820191906000526020600020905b815481529060010190602001808311611c9b57829003601f168201915b505050505090806007018054611ccd906148d2565b80601f0160208091040260200160405190810160405280929190818152602001828054611cf9906148d2565b8015611d465780601f10611d1b57610100808354040283529160200191611d46565b820191906000526020600020905b815481529060010190602001808311611d2957829003601f168201915b5050505050905088565b60008282604051602001611d65929190614d59565b60405160208183030381529060405280519060200120905092915050565b60005b81518110156120fd5760016000815480929190611da290614932565b91905055506000611def838381518110611dbf57611dbe614cab565b5b602002602001015160400151848481518110611dde57611ddd614cab565b5b602002602001015160a00151611d50565b9050611dfa816117cf565b60039081611e089190614b26565b506000604051806101400160405280600154815260200160038054611e2c906148d2565b80601f0160208091040260200160405190810160405280929190818152602001828054611e58906148d2565b8015611ea55780601f10611e7a57610100808354040283529160200191611ea5565b820191906000526020600020905b815481529060010190602001808311611e8857829003601f168201915b50505050508152602001858581518110611ec257611ec1614cab565b5b6020026020010151604001518152602001858581518110611ee657611ee5614cab565b5b6020026020010151606001518152602001858581518110611f0a57611f09614cab565b5b6020026020010151608001518152602001858581518110611f2e57611f2d614cab565b5b602002602001015160a001518152602001858581518110611f5257611f51614cab565b5b602002602001015160c001518152602001858581518110611f7657611f75614cab565b5b602002602001015160e001518152602001858581518110611f9a57611f99614cab565b5b602002602001015161010001518152602001858581518110611fbf57611fbe614cab565b5b602002602001015161012001518152509050806005600060015481526020019081526020016000206000820151816000015560208201518160010190816120069190614b26565b50604082015181600201908161201c9190614b26565b5060608201518160030190816120329190614b26565b5060808201518160040190816120489190614b26565b5060a0820151816005015560c08201518160060190816120689190614b26565b5060e082015181600701908161207e9190614b26565b506101008201518160080190816120959190614b26565b506101208201518160090190816120ac9190614b26565b509050506001600a60036040516120c39190614e04565b908152602001604051809103902060006101000a81548160ff021916908315150217905550505080806120f590614932565b915050611d86565b5050565b600a818051602081018201805184825260208301602085012081835280955050505050506000915054906101000a900460ff1681565b60005b81518110156124985760008081548092919061215590614932565b919050555060006121a383838151811061217257612171614cab565b5b60200260200101516040015184848151811061219157612190614cab565b5b60200260200101516101000151611d50565b90506121ae816117cf565b600390816121bc9190614b26565b5060006040518061014001604052806000548152602001600380546121e0906148d2565b80601f016020809104026020016040519081016040528092919081815260200182805461220c906148d2565b80156122595780601f1061222e57610100808354040283529160200191612259565b820191906000526020600020905b81548152906001019060200180831161223c57829003601f168201915b5050505050815260200185858151811061227657612275614cab565b5b602002602001015160400151815260200185858151811061229a57612299614cab565b5b60200260200101516060015181526020018585815181106122be576122bd614cab565b5b60200260200101516080015181526020018585815181106122e2576122e1614cab565b5b602002602001015160a00151815260200185858151811061230657612305614cab565b5b602002602001015160c00151815260200185858151811061232a57612329614cab565b5b602002602001015160e00151815260200185858151811061234e5761234d614cab565b5b60200260200101516101000151815260200185858151811061237357612372614cab565b5b6020026020010151610120015181525090508060046000805481526020019081526020016000206000820151816000015560208201518160010190816123b99190614b26565b5060408201518160020190816123cf9190614b26565b5060608201518160030190816123e59190614b26565b5060808201518160040190816123fb9190614b26565b5060a0820151816005015560c082015181600601908161241b9190614b26565b5060e0820151816007015561010082015181600801556101208201518160090190816124479190614b26565b509050506001600a600360405161245e9190614e04565b908152602001604051809103902060006101000a81548160ff0219169083151502179055505050808061249090614932565b91505061213a565b5050565b6124a46137b8565b6007826040516124b49190614c34565b908152602001604051809103902060405180610140016040529081600082015481526020016001820180546124e8906148d2565b80601f0160208091040260200160405190810160405280929190818152602001828054612514906148d2565b80156125615780601f1061253657610100808354040283529160200191612561565b820191906000526020600020905b81548152906001019060200180831161254457829003601f168201915b5050505050815260200160028201805461257a906148d2565b80601f01602080910402602001604051908101604052809291908181526020018280546125a6906148d2565b80156125f35780601f106125c8576101008083540402835291602001916125f3565b820191906000526020600020905b8154815290600101906020018083116125d657829003601f168201915b5050505050815260200160038201805461260c906148d2565b80601f0160208091040260200160405190810160405280929190818152602001828054612638906148d2565b80156126855780601f1061265a57610100808354040283529160200191612685565b820191906000526020600020905b81548152906001019060200180831161266857829003601f168201915b5050505050815260200160048201805461269e906148d2565b80601f01602080910402602001604051908101604052809291908181526020018280546126ca906148d2565b80156127175780601f106126ec57610100808354040283529160200191612717565b820191906000526020600020905b8154815290600101906020018083116126fa57829003601f168201915b505050505081526020016005820154815260200160068201805461273a906148d2565b80601f0160208091040260200160405190810160405280929190818152602001828054612766906148d2565b80156127b35780601f10612788576101008083540402835291602001916127b3565b820191906000526020600020905b81548152906001019060200180831161279657829003601f168201915b5050505050815260200160078201548152602001600882015481526020016009820180546127e0906148d2565b80601f016020809104026020016040519081016040528092919081815260200182805461280c906148d2565b80156128595780601f1061282e57610100808354040283529160200191612859565b820191906000526020600020905b81548152906001019060200180831161283c57829003601f168201915b5050505050815250509050919050565b6006602052806000526040600020600091509050806000015490806001018054612892906148d2565b80601f01602080910402602001604051908101604052809291908181526020018280546128be906148d2565b801561290b5780601f106128e05761010080835404028352916020019161290b565b820191906000526020600020905b8154815290600101906020018083116128ee57829003601f168201915b505050505090806002018054612920906148d2565b80601f016020809104026020016040519081016040528092919081815260200182805461294c906148d2565b80156129995780601f1061296e57610100808354040283529160200191612999565b820191906000526020600020905b81548152906001019060200180831161297c57829003601f168201915b5050505050908060030180546129ae906148d2565b80601f01602080910402602001604051908101604052809291908181526020018280546129da906148d2565b8015612a275780601f106129fc57610100808354040283529160200191612a27565b820191906000526020600020905b815481529060010190602001808311612a0a57829003601f168201915b505050505090806004018054612a3c906148d2565b80601f0160208091040260200160405190810160405280929190818152602001828054612a68906148d2565b8015612ab55780601f10612a8a57610100808354040283529160200191612ab5565b820191906000526020600020905b815481529060010190602001808311612a9857829003601f168201915b505050505090806005015490806006018054612ad0906148d2565b80601f0160208091040260200160405190810160405280929190818152602001828054612afc906148d2565b8015612b495780601f10612b1e57610100808354040283529160200191612b49565b820191906000526020600020905b815481529060010190602001808311612b2c57829003601f168201915b505050505090806007018054612b5e906148d2565b80601f0160208091040260200160405190810160405280929190818152602001828054612b8a906148d2565b8015612bd75780601f10612bac57610100808354040283529160200191612bd7565b820191906000526020600020905b815481529060010190602001808311612bba57829003601f168201915b5050505050905088565b600881805160208101820180518482526020830160208501208183528095505050505050600091509050806000015490806001018054612c20906148d2565b80601f0160208091040260200160405190810160405280929190818152602001828054612c4c906148d2565b8015612c995780601f10612c6e57610100808354040283529160200191612c99565b820191906000526020600020905b815481529060010190602001808311612c7c57829003601f168201915b505050505090806002018054612cae906148d2565b80601f0160208091040260200160405190810160405280929190818152602001828054612cda906148d2565b8015612d275780601f10612cfc57610100808354040283529160200191612d27565b820191906000526020600020905b815481529060010190602001808311612d0a57829003601f168201915b505050505090806003018054612d3c906148d2565b80601f0160208091040260200160405190810160405280929190818152602001828054612d68906148d2565b8015612db55780601f10612d8a57610100808354040283529160200191612db5565b820191906000526020600020905b815481529060010190602001808311612d9857829003601f168201915b505050505090806004018054612dca906148d2565b80601f0160208091040260200160405190810160405280929190818152602001828054612df6906148d2565b8015612e435780601f10612e1857610100808354040283529160200191612e43565b820191906000526020600020905b815481529060010190602001808311612e2657829003601f168201915b505050505090806005015490806006018054612e5e906148d2565b80601f0160208091040260200160405190810160405280929190818152602001828054612e8a906148d2565b8015612ed75780601f10612eac57610100808354040283529160200191612ed7565b820191906000526020600020905b815481529060010190602001808311612eba57829003601f168201915b505050505090806007018054612eec906148d2565b80601f0160208091040260200160405190810160405280929190818152602001828054612f18906148d2565b8015612f655780601f10612f3a57610100808354040283529160200191612f65565b820191906000526020600020905b815481529060010190602001808311612f4857829003601f168201915b505050505090806008018054612f7a906148d2565b80601f0160208091040260200160405190810160405280929190818152602001828054612fa6906148d2565b8015612ff35780601f10612fc857610100808354040283529160200191612ff3565b820191906000526020600020905b815481529060010190602001808311612fd657829003601f168201915b505050505090806009018054613008906148d2565b80601f0160208091040260200160405190810160405280929190818152602001828054613034906148d2565b80156130815780601f1061305657610100808354040283529160200191613081565b820191906000526020600020905b81548152906001019060200180831161306457829003601f168201915b505050505090508a565b60008081548092919061309d90614932565b9190505550600060405180610140016040528060005481526020016040518060400160405280600381526020017f307830000000000000000000000000000000000000000000000000000000000081525081526020018a81526020018981526020018881526020018781526020018681526020018581526020018481526020018381525090508060046000805481526020019081526020016000206000820151816000015560208201518160010190816131579190614b26565b50604082015181600201908161316d9190614b26565b5060608201518160030190816131839190614b26565b5060808201518160040190816131999190614b26565b5060a0820151816005015560c08201518160060190816131b99190614b26565b5060e0820151816007015561010082015181600801556101208201518160090190816131e59190614b26565b509050506001600b600086815260200190815260200160002060006101000a81548160ff021916908315150217905550505050505050505050565b60006004600080548152602001908152602001600020604051806101400160405290816000820154815260200160018201805461325c906148d2565b80601f0160208091040260200160405190810160405280929190818152602001828054613288906148d2565b80156132d55780601f106132aa576101008083540402835291602001916132d5565b820191906000526020600020905b8154815290600101906020018083116132b857829003601f168201915b505050505081526020016002820180546132ee906148d2565b80601f016020809104026020016040519081016040528092919081815260200182805461331a906148d2565b80156133675780601f1061333c57610100808354040283529160200191613367565b820191906000526020600020905b81548152906001019060200180831161334a57829003601f168201915b50505050508152602001600382018054613380906148d2565b80601f01602080910402602001604051908101604052809291908181526020018280546133ac906148d2565b80156133f95780601f106133ce576101008083540402835291602001916133f9565b820191906000526020600020905b8154815290600101906020018083116133dc57829003601f168201915b50505050508152602001600482018054613412906148d2565b80601f016020809104026020016040519081016040528092919081815260200182805461343e906148d2565b801561348b5780601f106134605761010080835404028352916020019161348b565b820191906000526020600020905b81548152906001019060200180831161346e57829003601f168201915b50505050508152602001600582015481526020016006820180546134ae906148d2565b80601f01602080910402602001604051908101604052809291908181526020018280546134da906148d2565b80156135275780601f106134fc57610100808354040283529160200191613527565b820191906000526020600020905b81548152906001019060200180831161350a57829003601f168201915b505050505081526020016007820154815260200160088201548152602001600982018054613554906148d2565b80601f0160208091040260200160405190810160405280929190818152602001828054613580906148d2565b80156135cd5780601f106135a2576101008083540402835291602001916135cd565b820191906000526020600020905b8154815290600101906020018083116135b057829003601f168201915b50505050508152505090508181602001819052508060046000805481526020019081526020016000206000820151816000015560208201518160010190816136159190614b26565b50604082015181600201908161362b9190614b26565b5060608201518160030190816136419190614b26565b5060808201518160040190816136579190614b26565b5060a0820151816005015560c08201518160060190816136779190614b26565b5060e0820151816007015561010082015181600801556101208201518160090190816136a39190614b26565b50905050806007836040516136b89190614c34565b90815260200160405180910390206000820151816000015560208201518160010190816136e59190614b26565b5060408201518160020190816136fb9190614b26565b5060608201518160030190816137119190614b26565b5060808201518160040190816137279190614b26565b5060a0820151816005015560c08201518160060190816137479190614b26565b5060e0820151816007015561010082015181600801556101208201518160090190816137739190614b26565b509050506001600a836040516137899190614c34565b908152602001604051809103902060006101000a81548160ff0219169083151502179055505050565b60015481565b604051806101400160405280600081526020016060815260200160608152602001606081526020016060815260200160008152602001606081526020016000815260200160008152602001606081525090565b6000604051905090565b600080fd5b600080fd5b6000819050919050565b6138328161381f565b811461383d57600080fd5b50565b60008135905061384f81613829565b92915050565b60006020828403121561386b5761386a613815565b5b600061387984828501613840565b91505092915050565b61388b8161381f565b82525050565b600081519050919050565b600082825260208201905092915050565b60005b838110156138cb5780820151818401526020810190506138b0565b60008484015250505050565b6000601f19601f8301169050919050565b60006138f382613891565b6138fd818561389c565b935061390d8185602086016138ad565b613916816138d7565b840191505092915050565b600061014082019050613937600083018d613882565b8181036020830152613949818c6138e8565b9050818103604083015261395d818b6138e8565b90508181036060830152613971818a6138e8565b9050818103608083015261398581896138e8565b905061399460a0830188613882565b81810360c08301526139a681876138e8565b90506139b560e0830186613882565b6139c3610100830185613882565b8181036101208301526139d681846138e8565b90509b9a5050505050505050505050565b60008115159050919050565b6139fc816139e7565b82525050565b6000602082019050613a1760008301846139f3565b92915050565b600080fd5b600080fd5b7f4e487b7100000000000000000000000000000000000000000000000000000000600052604160045260246000fd5b613a5f826138d7565b810181811067ffffffffffffffff82111715613a7e57613a7d613a27565b5b80604052505050565b6000613a9161380b565b9050613a9d8282613a56565b919050565b600067ffffffffffffffff821115613abd57613abc613a27565b5b613ac6826138d7565b9050602081019050919050565b82818337600083830152505050565b6000613af5613af084613aa2565b613a87565b905082815260208101848484011115613b1157613b10613a22565b5b613b1c848285613ad3565b509392505050565b600082601f830112613b3957613b38613a1d565b5b8135613b49848260208601613ae2565b91505092915050565b600060208284031215613b6857613b67613815565b5b600082013567ffffffffffffffff811115613b8657613b8561381a565b5b613b9284828501613b24565b91505092915050565b6000602082019050613bb06000830184613882565b92915050565b600061014082019050613bcc600083018d613882565b8181036020830152613bde818c6138e8565b90508181036040830152613bf2818b6138e8565b90508181036060830152613c06818a6138e8565b90508181036080830152613c1a81896138e8565b9050613c2960a0830188613882565b81810360c0830152613c3b81876138e8565b905081810360e0830152613c4f81866138e8565b9050818103610100830152613c6481856138e8565b9050818103610120830152613c7981846138e8565b90509b9a5050505050505050505050565b60008060008060008060c08789031215613ca757613ca6613815565b5b600087013567ffffffffffffffff811115613cc557613cc461381a565b5b613cd189828a01613b24565b965050602087013567ffffffffffffffff811115613cf257613cf161381a565b5b613cfe89828a01613b24565b955050604087013567ffffffffffffffff811115613d1f57613d1e61381a565b5b613d2b89828a01613b24565b9450506060613d3c89828a01613840565b935050608087013567ffffffffffffffff811115613d5d57613d5c61381a565b5b613d6989828a01613b24565b92505060a087013567ffffffffffffffff811115613d8a57613d8961381a565b5b613d9689828a01613b24565b9150509295509295509295565b6000819050919050565b613db681613da3565b8114613dc157600080fd5b50565b600081359050613dd381613dad565b92915050565b600060208284031215613def57613dee613815565b5b6000613dfd84828501613dc4565b91505092915050565b60006020820190508181036000830152613e2081846138e8565b905092915050565b600060ff82169050919050565b613e3e81613e28565b8114613e4957600080fd5b50565b600081359050613e5b81613e35565b92915050565b600060208284031215613e7757613e76613815565b5b6000613e8584828501613e4c565b91505092915050565b60007fff0000000000000000000000000000000000000000000000000000000000000082169050919050565b613ec381613e8e565b82525050565b6000602082019050613ede6000830184613eba565b92915050565b600061010082019050613efa600083018b613882565b8181036020830152613f0c818a6138e8565b90508181036040830152613f2081896138e8565b90508181036060830152613f3481886138e8565b90508181036080830152613f4881876138e8565b9050613f5760a0830186613882565b81810360c0830152613f6981856138e8565b905081810360e0830152613f7d81846138e8565b90509998505050505050505050565b60008060408385031215613fa357613fa2613815565b5b600083013567ffffffffffffffff811115613fc157613fc061381a565b5b613fcd85828601613b24565b9250506020613fde85828601613840565b9150509250929050565b613ff181613da3565b82525050565b600060208201905061400c6000830184613fe8565b92915050565b600067ffffffffffffffff82111561402d5761402c613a27565b5b602082029050602081019050919050565b600080fd5b600080fd5b600080fd5b6000610140828403121561406457614063614043565b5b61406f610140613a87565b9050600061407f84828501613840565b600083015250602082013567ffffffffffffffff8111156140a3576140a2614048565b5b6140af84828501613b24565b602083015250604082013567ffffffffffffffff8111156140d3576140d2614048565b5b6140df84828501613b24565b604083015250606082013567ffffffffffffffff81111561410357614102614048565b5b61410f84828501613b24565b606083015250608082013567ffffffffffffffff81111561413357614132614048565b5b61413f84828501613b24565b60808301525060a061415384828501613840565b60a08301525060c082013567ffffffffffffffff81111561417757614176614048565b5b61418384828501613b24565b60c08301525060e082013567ffffffffffffffff8111156141a7576141a6614048565b5b6141b384828501613b24565b60e08301525061010082013567ffffffffffffffff8111156141d8576141d7614048565b5b6141e484828501613b24565b6101008301525061012082013567ffffffffffffffff81111561420a57614209614048565b5b61421684828501613b24565b6101208301525092915050565b600061423661423184614012565b613a87565b905080838252602082019050602084028301858111156142595761425861403e565b5b835b818110156142a057803567ffffffffffffffff81111561427e5761427d613a1d565b5b80860161428b898261404d565b8552602085019450505060208101905061425b565b5050509392505050565b600082601f8301126142bf576142be613a1d565b5b81356142cf848260208601614223565b91505092915050565b6000602082840312156142ee576142ed613815565b5b600082013567ffffffffffffffff81111561430c5761430b61381a565b5b614318848285016142aa565b91505092915050565b600067ffffffffffffffff82111561433c5761433b613a27565b5b602082029050602081019050919050565b6000610140828403121561436457614363614043565b5b61436f610140613a87565b9050600061437f84828501613840565b600083015250602082013567ffffffffffffffff8111156143a3576143a2614048565b5b6143af84828501613b24565b602083015250604082013567ffffffffffffffff8111156143d3576143d2614048565b5b6143df84828501613b24565b604083015250606082013567ffffffffffffffff81111561440357614402614048565b5b61440f84828501613b24565b606083015250608082013567ffffffffffffffff81111561443357614432614048565b5b61443f84828501613b24565b60808301525060a061445384828501613840565b60a08301525060c082013567ffffffffffffffff81111561447757614476614048565b5b61448384828501613b24565b60c08301525060e061449784828501613840565b60e0830152506101006144ac84828501613840565b6101008301525061012082013567ffffffffffffffff8111156144d2576144d1614048565b5b6144de84828501613b24565b6101208301525092915050565b60006144fe6144f984614321565b613a87565b905080838252602082019050602084028301858111156145215761452061403e565b5b835b8181101561456857803567ffffffffffffffff81111561454657614545613a1d565b5b808601614553898261434d565b85526020850194505050602081019050614523565b5050509392505050565b600082601f83011261458757614586613a1d565b5b81356145978482602086016144eb565b91505092915050565b6000602082840312156145b6576145b5613815565b5b600082013567ffffffffffffffff8111156145d4576145d361381a565b5b6145e084828501614572565b91505092915050565b6145f28161381f565b82525050565b600082825260208201905092915050565b600061461482613891565b61461e81856145f8565b935061462e8185602086016138ad565b614637816138d7565b840191505092915050565b60006101408301600083015161465b60008601826145e9565b50602083015184820360208601526146738282614609565b9150506040830151848203604086015261468d8282614609565b915050606083015184820360608601526146a78282614609565b915050608083015184820360808601526146c18282614609565b91505060a08301516146d660a08601826145e9565b5060c083015184820360c08601526146ee8282614609565b91505060e083015161470360e08601826145e9565b506101008301516147186101008601826145e9565b506101208301518482036101208601526147328282614609565b9150508091505092915050565b600060208201905081810360008301526147598184614642565b905092915050565b600080600080600080600080610100898b03121561478257614781613815565b5b600089013567ffffffffffffffff8111156147a05761479f61381a565b5b6147ac8b828c01613b24565b985050602089013567ffffffffffffffff8111156147cd576147cc61381a565b5b6147d98b828c01613b24565b975050604089013567ffffffffffffffff8111156147fa576147f961381a565b5b6148068b828c01613b24565b96505060606148178b828c01613840565b955050608089013567ffffffffffffffff8111156148385761483761381a565b5b6148448b828c01613b24565b94505060a06148558b828c01613840565b93505060c06148668b828c01613840565b92505060e089013567ffffffffffffffff8111156148875761488661381a565b5b6148938b828c01613b24565b9150509295985092959890939650565b7f4e487b7100000000000000000000000000000000000000000000000000000000600052602260045260246000fd5b600060028204905060018216806148ea57607f821691505b6020821081036148fd576148fc6148a3565b5b50919050565b7f4e487b7100000000000000000000000000000000000000000000000000000000600052601160045260246000fd5b600061493d8261381f565b91507fffffffffffffffffffffffffffffffffffffffffffffffffffffffffffffffff820361496f5761496e614903565b5b600182019050919050565b60008190508160005260206000209050919050565b60006020601f8301049050919050565b600082821b905092915050565b6000600883026149dc7fffffffffffffffffffffffffffffffffffffffffffffffffffffffffffffffff8261499f565b6149e6868361499f565b95508019841693508086168417925050509392505050565b6000819050919050565b6000614a23614a1e614a198461381f565b6149fe565b61381f565b9050919050565b6000819050919050565b614a3d83614a08565b614a51614a4982614a2a565b8484546149ac565b825550505050565b600090565b614a66614a59565b614a71818484614a34565b505050565b5b81811015614a9557614a8a600082614a5e565b600181019050614a77565b5050565b601f821115614ada57614aab8161497a565b614ab48461498f565b81016020851015614ac3578190505b614ad7614acf8561498f565b830182614a76565b50505b505050565b600082821c905092915050565b6000614afd60001984600802614adf565b1980831691505092915050565b6000614b168383614aec565b9150826002028217905092915050565b614b2f82613891565b67ffffffffffffffff811115614b4857614b47613a27565b5b614b5282546148d2565b614b5d828285614a99565b600060209050601f831160018114614b905760008415614b7e578287015190505b614b888582614b0a565b865550614bf0565b601f198416614b9e8661497a565b60005b82811015614bc657848901518255600182019150602085019450602081019050614ba1565b86831015614be35784890151614bdf601f891682614aec565b8355505b6001600288020188555050505b505050505050565b600081905092915050565b6000614c0e82613891565b614c188185614bf8565b9350614c288185602086016138ad565b80840191505092915050565b6000614c408284614c03565b915081905092915050565b7f4e487b7100000000000000000000000000000000000000000000000000000000600052601260045260246000fd5b6000614c8582613e28565b9150614c9083613e28565b925082614ca057614c9f614c4b565b5b828204905092915050565b7f4e487b7100000000000000000000000000000000000000000000000000000000600052603260045260246000fd5b6000614ce582613e28565b9150614cf083613e28565b9250828201905060ff811115614d0957614d08614903565b5b92915050565b6000614d1a82613e28565b915060ff8203614d2d57614d2c614903565b5b600182019050919050565b6000819050919050565b614d53614d4e8261381f565b614d38565b82525050565b6000614d658285614c03565b9150614d718284614d42565b6020820191508190509392505050565b60008154614d8e816148d2565b614d988186614bf8565b94506001821660008114614db35760018114614dc857614dfb565b60ff1983168652811515820286019350614dfb565b614dd18561497a565b60005b83811015614df357815481890152600182019150602081019050614dd4565b838801955050505b50505092915050565b6000614e108284614d81565b91508190509291505056fea2646970667358221220fff032e39801dce7a98e8d7129f5425a6ac66ccc9c36fb86842cb8721235730a64736f6c63430008110033",
  "linkReferences": {},
  "deployedLinkReferences": {}
}